{
	"contracts/lottery.sol": {
		"Lottery": {
			"abi": [
				{
					"inputs": [],
					"stateMutability": "nonpayable",
					"type": "constructor"
				},
				{
					"inputs": [],
					"name": "getBalance",
					"outputs": [
						{
							"internalType": "uint256",
							"name": "",
							"type": "uint256"
						}
					],
					"stateMutability": "view",
					"type": "function"
				},
				{
					"inputs": [],
					"name": "manager",
					"outputs": [
						{
							"internalType": "address",
							"name": "",
							"type": "address"
						}
					],
					"stateMutability": "view",
					"type": "function"
				},
				{
					"inputs": [],
					"name": "pickWinner",
					"outputs": [],
					"stateMutability": "payable",
					"type": "function"
				},
				{
					"inputs": [
						{
							"internalType": "uint256",
							"name": "",
							"type": "uint256"
						}
					],
					"name": "players",
					"outputs": [
						{
							"internalType": "address payable",
							"name": "",
							"type": "address"
						}
					],
					"stateMutability": "view",
					"type": "function"
				},
				{
					"inputs": [],
					"name": "random",
					"outputs": [
						{
							"internalType": "uint256",
							"name": "",
							"type": "uint256"
						}
					],
					"stateMutability": "view",
					"type": "function"
				},
				{
					"stateMutability": "payable",
					"type": "receive"
				}
			],
			"devdoc": {
				"kind": "dev",
				"methods": {},
				"version": 1
			},
			"evm": {
				"assembly": "    /* \"contracts/lottery.sol\":70:1271  contract Lottery{... */\n  mstore(0x40, 0x80)\n    /* \"contracts/lottery.sol\":159:209  constructor(){... */\n  callvalue\n  dup1\n  iszero\n  tag_1\n  jumpi\n  0x00\n  dup1\n  revert\ntag_1:\n  pop\n    /* \"contracts/lottery.sol\":192:202  msg.sender */\n  caller\n    /* \"contracts/lottery.sol\":182:189  manager */\n  0x01\n  0x00\n    /* \"contracts/lottery.sol\":182:202  manager = msg.sender */\n  0x0100\n  exp\n  dup2\n  sload\n  dup2\n  0xffffffffffffffffffffffffffffffffffffffff\n  mul\n  not\n  and\n  swap1\n  dup4\n  0xffffffffffffffffffffffffffffffffffffffff\n  and\n  mul\n  or\n  swap1\n  sstore\n  pop\n    /* \"contracts/lottery.sol\":70:1271  contract Lottery{... */\n  dataSize(sub_0)\n  dup1\n  dataOffset(sub_0)\n  0x00\n  codecopy\n  0x00\n  return\nstop\n\nsub_0: assembly {\n        /* \"contracts/lottery.sol\":70:1271  contract Lottery{... */\n      mstore(0x40, 0x80)\n      jumpi(tag_1, lt(calldatasize, 0x04))\n      shr(0xe0, calldataload(0x00))\n      dup1\n      0x12065fe0\n      eq\n      tag_3\n      jumpi\n      dup1\n      0x481c6a75\n      eq\n      tag_4\n      jumpi\n      dup1\n      0x5d495aea\n      eq\n      tag_5\n      jumpi\n      dup1\n      0x5ec01e4d\n      eq\n      tag_6\n      jumpi\n      dup1\n      0xf71d96cb\n      eq\n      tag_7\n      jumpi\n      jump(tag_2)\n    tag_1:\n      jumpi(tag_2, calldatasize)\n        /* \"contracts/lottery.sol\":272:281  0.1 ether */\n      0x016345785d8a0000\n        /* \"contracts/lottery.sol\":259:268  msg.value */\n      callvalue\n        /* \"contracts/lottery.sol\":259:281  msg.value == 0.1 ether */\n      eq\n        /* \"contracts/lottery.sol\":251:325  require(msg.value == 0.1 ether, \"not correct amunt, should be '0.1 Ether\") */\n      tag_10\n      jumpi\n      mload(0x40)\n      0x08c379a000000000000000000000000000000000000000000000000000000000\n      dup2\n      mstore\n      0x04\n      add\n      tag_11\n      swap1\n      tag_12\n      jump\t// in\n    tag_11:\n      mload(0x40)\n      dup1\n      swap2\n      sub\n      swap1\n      revert\n    tag_10:\n        /* \"contracts/lottery.sol\":383:390  players */\n      0x00\n        /* \"contracts/lottery.sol\":404:414  msg.sender */\n      caller\n        /* \"contracts/lottery.sol\":383:416  players.push(payable(msg.sender)) */\n      swap1\n      dup1\n      0x01\n      dup2\n      sload\n      add\n      dup1\n      dup3\n      sstore\n      dup1\n      swap2\n      pop\n      pop\n      0x01\n      swap1\n      sub\n      swap1\n      0x00\n      mstore\n      keccak256(0x00, 0x20)\n      add\n      0x00\n      swap1\n      swap2\n      swap1\n      swap2\n      swap1\n      swap2\n      0x0100\n      exp\n      dup2\n      sload\n      dup2\n      0xffffffffffffffffffffffffffffffffffffffff\n      mul\n      not\n      and\n      swap1\n      dup4\n      0xffffffffffffffffffffffffffffffffffffffff\n      and\n      mul\n      or\n      swap1\n      sstore\n      stop\n        /* \"contracts/lottery.sol\":70:1271  contract Lottery{... */\n    tag_2:\n      0x00\n      dup1\n      revert\n        /* \"contracts/lottery.sol\":477:634  function getBalance() public view returns(uint){... */\n    tag_3:\n      callvalue\n      dup1\n      iszero\n      tag_14\n      jumpi\n      0x00\n      dup1\n      revert\n    tag_14:\n      pop\n      tag_15\n      tag_16\n      jump\t// in\n    tag_15:\n      mload(0x40)\n      tag_17\n      swap2\n      swap1\n      tag_18\n      jump\t// in\n    tag_17:\n      mload(0x40)\n      dup1\n      swap2\n      sub\n      swap1\n      return\n        /* \"contracts/lottery.sol\":130:152  address public manager */\n    tag_4:\n      callvalue\n      dup1\n      iszero\n      tag_19\n      jumpi\n      0x00\n      dup1\n      revert\n    tag_19:\n      pop\n      tag_20\n      tag_21\n      jump\t// in\n    tag_20:\n      mload(0x40)\n      tag_22\n      swap2\n      swap1\n      tag_23\n      jump\t// in\n    tag_22:\n      mload(0x40)\n      dup1\n      swap2\n      sub\n      swap1\n      return\n        /* \"contracts/lottery.sol\":893:1268  function pickWinner() public payable {... */\n    tag_5:\n      tag_24\n      tag_25\n      jump\t// in\n    tag_24:\n      stop\n        /* \"contracts/lottery.sol\":640:887  function random() public view returns(uint){ // This is not safe as a miner can manipulate and make himself a winner. Use chainlink instead.... */\n    tag_6:\n      callvalue\n      dup1\n      iszero\n      tag_26\n      jumpi\n      0x00\n      dup1\n      revert\n    tag_26:\n      pop\n      tag_27\n      tag_28\n      jump\t// in\n    tag_27:\n      mload(0x40)\n      tag_29\n      swap2\n      swap1\n      tag_18\n      jump\t// in\n    tag_29:\n      mload(0x40)\n      dup1\n      swap2\n      sub\n      swap1\n      return\n        /* \"contracts/lottery.sol\":92:124  address payable[] public players */\n    tag_7:\n      callvalue\n      dup1\n      iszero\n      tag_30\n      jumpi\n      0x00\n      dup1\n      revert\n    tag_30:\n      pop\n      tag_31\n      0x04\n      dup1\n      calldatasize\n      sub\n      dup2\n      add\n      swap1\n      tag_32\n      swap2\n      swap1\n      tag_33\n      jump\t// in\n    tag_32:\n      tag_34\n      jump\t// in\n    tag_31:\n      mload(0x40)\n      tag_35\n      swap2\n      swap1\n      tag_36\n      jump\t// in\n    tag_35:\n      mload(0x40)\n      dup1\n      swap2\n      sub\n      swap1\n      return\n        /* \"contracts/lottery.sol\":477:634  function getBalance() public view returns(uint){... */\n    tag_16:\n        /* \"contracts/lottery.sol\":519:523  uint */\n      0x00\n        /* \"contracts/lottery.sol\":556:563  manager */\n      0x01\n      0x00\n      swap1\n      sload\n      swap1\n      0x0100\n      exp\n      swap1\n      div\n      0xffffffffffffffffffffffffffffffffffffffff\n      and\n        /* \"contracts/lottery.sol\":542:563  msg.sender == manager */\n      0xffffffffffffffffffffffffffffffffffffffff\n      and\n        /* \"contracts/lottery.sol\":542:552  msg.sender */\n      caller\n        /* \"contracts/lottery.sol\":542:563  msg.sender == manager */\n      0xffffffffffffffffffffffffffffffffffffffff\n      and\n      eq\n        /* \"contracts/lottery.sol\":534:589  require(msg.sender == manager, \"you are not the owenr\") */\n      tag_38\n      jumpi\n      mload(0x40)\n      0x08c379a000000000000000000000000000000000000000000000000000000000\n      dup2\n      mstore\n      0x04\n      add\n      tag_39\n      swap1\n      tag_40\n      jump\t// in\n    tag_39:\n      mload(0x40)\n      dup1\n      swap2\n      sub\n      swap1\n      revert\n    tag_38:\n        /* \"contracts/lottery.sol\":606:627  address(this).balance */\n      selfbalance\n        /* \"contracts/lottery.sol\":599:627  return address(this).balance */\n      swap1\n      pop\n        /* \"contracts/lottery.sol\":477:634  function getBalance() public view returns(uint){... */\n      swap1\n      jump\t// out\n        /* \"contracts/lottery.sol\":130:152  address public manager */\n    tag_21:\n      0x01\n      0x00\n      swap1\n      sload\n      swap1\n      0x0100\n      exp\n      swap1\n      div\n      0xffffffffffffffffffffffffffffffffffffffff\n      and\n      dup2\n      jump\t// out\n        /* \"contracts/lottery.sol\":893:1268  function pickWinner() public payable {... */\n    tag_25:\n        /* \"contracts/lottery.sol\":962:969  manager */\n      0x01\n      0x00\n      swap1\n      sload\n      swap1\n      0x0100\n      exp\n      swap1\n      div\n      0xffffffffffffffffffffffffffffffffffffffff\n      and\n        /* \"contracts/lottery.sol\":948:969  msg.sender == manager */\n      0xffffffffffffffffffffffffffffffffffffffff\n      and\n        /* \"contracts/lottery.sol\":948:958  msg.sender */\n      caller\n        /* \"contracts/lottery.sol\":948:969  msg.sender == manager */\n      0xffffffffffffffffffffffffffffffffffffffff\n      and\n      eq\n        /* \"contracts/lottery.sol\":940:970  require(msg.sender == manager) */\n      tag_42\n      jumpi\n      0x00\n      dup1\n      revert\n    tag_42:\n        /* \"contracts/lottery.sol\":1006:1007  3 */\n      0x03\n        /* \"contracts/lottery.sol\":988:995  players */\n      0x00\n        /* \"contracts/lottery.sol\":988:1002  players.length */\n      dup1\n      sload\n      swap1\n      pop\n        /* \"contracts/lottery.sol\":988:1007  players.length >= 3 */\n      lt\n      iszero\n        /* \"contracts/lottery.sol\":980:1008  require(players.length >= 3) */\n      tag_43\n      jumpi\n      0x00\n      dup1\n      revert\n    tag_43:\n        /* \"contracts/lottery.sol\":1019:1025  uint r */\n      0x00\n        /* \"contracts/lottery.sol\":1029:1037  random() */\n      tag_44\n        /* \"contracts/lottery.sol\":1029:1035  random */\n      tag_28\n        /* \"contracts/lottery.sol\":1029:1037  random() */\n      jump\t// in\n    tag_44:\n        /* \"contracts/lottery.sol\":1019:1037  uint r  = random() */\n      swap1\n      pop\n        /* \"contracts/lottery.sol\":1047:1070  address payable  winner */\n      0x00\n        /* \"contracts/lottery.sol\":1081:1091  uint index */\n      dup1\n        /* \"contracts/lottery.sol\":1098:1105  players */\n      0x00\n        /* \"contracts/lottery.sol\":1098:1112  players.length */\n      dup1\n      sload\n      swap1\n      pop\n        /* \"contracts/lottery.sol\":1094:1095  r */\n      dup4\n        /* \"contracts/lottery.sol\":1094:1112  r % players.length */\n      tag_45\n      swap2\n      swap1\n      tag_46\n      jump\t// in\n    tag_45:\n        /* \"contracts/lottery.sol\":1081:1112  uint index = r % players.length */\n      swap1\n      pop\n        /* \"contracts/lottery.sol\":1131:1138  players */\n      0x00\n        /* \"contracts/lottery.sol\":1139:1144  index */\n      dup2\n        /* \"contracts/lottery.sol\":1131:1145  players[index] */\n      dup2\n      sload\n      dup2\n      lt\n      tag_47\n      jumpi\n      tag_48\n      tag_49\n      jump\t// in\n    tag_48:\n    tag_47:\n      swap1\n      0x00\n      mstore\n      keccak256(0x00, 0x20)\n      add\n      0x00\n      swap1\n      sload\n      swap1\n      0x0100\n      exp\n      swap1\n      div\n      0xffffffffffffffffffffffffffffffffffffffff\n      and\n        /* \"contracts/lottery.sol\":1122:1145  winner = players[index] */\n      swap2\n      pop\n        /* \"contracts/lottery.sol\":1164:1170  winner */\n      dup2\n        /* \"contracts/lottery.sol\":1164:1179  winner.transfer */\n      0xffffffffffffffffffffffffffffffffffffffff\n      and\n        /* \"contracts/lottery.sol\":1164:1193  winner.transfer(getBalance()) */\n      0x08fc\n        /* \"contracts/lottery.sol\":1180:1192  getBalance() */\n      tag_51\n        /* \"contracts/lottery.sol\":1180:1190  getBalance */\n      tag_16\n        /* \"contracts/lottery.sol\":1180:1192  getBalance() */\n      jump\t// in\n    tag_51:\n        /* \"contracts/lottery.sol\":1164:1193  winner.transfer(getBalance()) */\n      swap1\n      dup2\n      iszero\n      mul\n      swap1\n      mload(0x40)\n      0x00\n      mload(0x40)\n      dup1\n      dup4\n      sub\n      dup2\n      dup6\n      dup9\n      dup9\n      call\n      swap4\n      pop\n      pop\n      pop\n      pop\n      iszero\n      dup1\n      iszero\n      tag_53\n      jumpi\n      returndatasize\n      0x00\n      dup1\n      returndatacopy\n      revert(0x00, returndatasize)\n    tag_53:\n      pop\n        /* \"contracts/lottery.sol\":1235:1236  0 */\n      0x00\n        /* \"contracts/lottery.sol\":1213:1237  new address payable[](0) */\n      0xffffffffffffffff\n      dup2\n      gt\n      iszero\n      tag_54\n      jumpi\n      tag_55\n      tag_56\n      jump\t// in\n    tag_55:\n    tag_54:\n      mload(0x40)\n      swap1\n      dup1\n      dup3\n      mstore\n      dup1\n      0x20\n      mul\n      0x20\n      add\n      dup3\n      add\n      0x40\n      mstore\n      dup1\n      iszero\n      tag_57\n      jumpi\n      dup2\n      0x20\n      add\n      0x20\n      dup3\n      mul\n      dup1\n      calldatasize\n      dup4\n      calldatacopy\n      dup1\n      dup3\n      add\n      swap2\n      pop\n      pop\n      swap1\n      pop\n    tag_57:\n      pop\n        /* \"contracts/lottery.sol\":1203:1210  players */\n      0x00\n        /* \"contracts/lottery.sol\":1203:1237  players = new address payable[](0) */\n      swap1\n      dup1\n      mload\n      swap1\n      0x20\n      add\n      swap1\n      tag_58\n      swap3\n      swap2\n      swap1\n      tag_59\n      jump\t// in\n    tag_58:\n      pop\n        /* \"contracts/lottery.sol\":930:1268  {... */\n      pop\n      pop\n      pop\n        /* \"contracts/lottery.sol\":893:1268  function pickWinner() public payable {... */\n      jump\t// out\n        /* \"contracts/lottery.sol\":640:887  function random() public view returns(uint){ // This is not safe as a miner can manipulate and make himself a winner. Use chainlink instead.... */\n    tag_28:\n        /* \"contracts/lottery.sol\":678:682  uint */\n      0x00\n        /* \"contracts/lottery.sol\":828:844  block.difficulty */\n      prevrandao\n        /* \"contracts/lottery.sol\":846:861  block.timestamp */\n      timestamp\n        /* \"contracts/lottery.sol\":863:870  players */\n      0x00\n        /* \"contracts/lottery.sol\":863:877  players.length */\n      dup1\n      sload\n      swap1\n      pop\n        /* \"contracts/lottery.sol\":811:878  abi.encodePacked(block.difficulty, block.timestamp, players.length) */\n      add(0x20, mload(0x40))\n      tag_61\n      swap4\n      swap3\n      swap2\n      swap1\n      tag_62\n      jump\t// in\n    tag_61:\n      mload(0x40)\n      0x20\n      dup2\n      dup4\n      sub\n      sub\n      dup2\n      mstore\n      swap1\n      0x40\n      mstore\n        /* \"contracts/lottery.sol\":801:879  keccak256(abi.encodePacked(block.difficulty, block.timestamp, players.length)) */\n      dup1\n      mload\n      swap1\n      0x20\n      add\n      keccak256\n        /* \"contracts/lottery.sol\":796:880  uint(keccak256(abi.encodePacked(block.difficulty, block.timestamp, players.length))) */\n      0x00\n      shr\n        /* \"contracts/lottery.sol\":789:880  return uint(keccak256(abi.encodePacked(block.difficulty, block.timestamp, players.length))) */\n      swap1\n      pop\n        /* \"contracts/lottery.sol\":640:887  function random() public view returns(uint){ // This is not safe as a miner can manipulate and make himself a winner. Use chainlink instead.... */\n      swap1\n      jump\t// out\n        /* \"contracts/lottery.sol\":92:124  address payable[] public players */\n    tag_34:\n      0x00\n      dup2\n      dup2\n      sload\n      dup2\n      lt\n      tag_63\n      jumpi\n      0x00\n      dup1\n      revert\n    tag_63:\n      swap1\n      0x00\n      mstore\n      keccak256(0x00, 0x20)\n      add\n      0x00\n      swap2\n      pop\n      sload\n      swap1\n      0x0100\n      exp\n      swap1\n      div\n      0xffffffffffffffffffffffffffffffffffffffff\n      and\n      dup2\n      jump\t// out\n    tag_59:\n      dup3\n      dup1\n      sload\n      dup3\n      dup3\n      sstore\n      swap1\n      0x00\n      mstore\n      keccak256(0x00, 0x20)\n      swap1\n      dup2\n      add\n      swap3\n      dup3\n      iszero\n      tag_65\n      jumpi\n      swap2\n      0x20\n      mul\n      dup3\n      add\n    tag_66:\n      dup3\n      dup2\n      gt\n      iszero\n      tag_67\n      jumpi\n      dup3\n      mload\n      dup3\n      exp(0x0100, 0x00)\n      dup2\n      sload\n      dup2\n      0xffffffffffffffffffffffffffffffffffffffff\n      mul\n      not\n      and\n      swap1\n      dup4\n      0xffffffffffffffffffffffffffffffffffffffff\n      and\n      mul\n      or\n      swap1\n      sstore\n      pop\n      swap2\n      0x20\n      add\n      swap2\n      swap1\n      0x01\n      add\n      swap1\n      jump(tag_66)\n    tag_67:\n    tag_65:\n      pop\n      swap1\n      pop\n      tag_68\n      swap2\n      swap1\n      tag_69\n      jump\t// in\n    tag_68:\n      pop\n      swap1\n      jump\t// out\n    tag_69:\n    tag_70:\n      dup1\n      dup3\n      gt\n      iszero\n      tag_71\n      jumpi\n      0x00\n      dup2\n      0x00\n      swap1\n      sstore\n      pop\n      0x01\n      add\n      jump(tag_70)\n    tag_71:\n      pop\n      swap1\n      jump\t// out\n        /* \"#utility.yul\":7:176   */\n    tag_72:\n        /* \"#utility.yul\":91:102   */\n      0x00\n        /* \"#utility.yul\":125:131   */\n      dup3\n        /* \"#utility.yul\":120:123   */\n      dup3\n        /* \"#utility.yul\":113:132   */\n      mstore\n        /* \"#utility.yul\":165:169   */\n      0x20\n        /* \"#utility.yul\":160:163   */\n      dup3\n        /* \"#utility.yul\":156:170   */\n      add\n        /* \"#utility.yul\":141:170   */\n      swap1\n      pop\n        /* \"#utility.yul\":7:176   */\n      swap3\n      swap2\n      pop\n      pop\n      jump\t// out\n        /* \"#utility.yul\":182:408   */\n    tag_73:\n        /* \"#utility.yul\":322:356   */\n      0x6e6f7420636f727265637420616d756e742c2073686f756c642062652027302e\n        /* \"#utility.yul\":318:319   */\n      0x00\n        /* \"#utility.yul\":310:316   */\n      dup3\n        /* \"#utility.yul\":306:320   */\n      add\n        /* \"#utility.yul\":299:357   */\n      mstore\n        /* \"#utility.yul\":391:400   */\n      0x3120457468657200000000000000000000000000000000000000000000000000\n        /* \"#utility.yul\":386:388   */\n      0x20\n        /* \"#utility.yul\":378:384   */\n      dup3\n        /* \"#utility.yul\":374:389   */\n      add\n        /* \"#utility.yul\":367:401   */\n      mstore\n        /* \"#utility.yul\":182:408   */\n      pop\n      jump\t// out\n        /* \"#utility.yul\":414:780   */\n    tag_74:\n        /* \"#utility.yul\":556:559   */\n      0x00\n        /* \"#utility.yul\":577:644   */\n      tag_96\n        /* \"#utility.yul\":641:643   */\n      0x27\n        /* \"#utility.yul\":636:639   */\n      dup4\n        /* \"#utility.yul\":577:644   */\n      tag_72\n      jump\t// in\n    tag_96:\n        /* \"#utility.yul\":570:644   */\n      swap2\n      pop\n        /* \"#utility.yul\":653:746   */\n      tag_97\n        /* \"#utility.yul\":742:745   */\n      dup3\n        /* \"#utility.yul\":653:746   */\n      tag_73\n      jump\t// in\n    tag_97:\n        /* \"#utility.yul\":771:773   */\n      0x40\n        /* \"#utility.yul\":766:769   */\n      dup3\n        /* \"#utility.yul\":762:774   */\n      add\n        /* \"#utility.yul\":755:774   */\n      swap1\n      pop\n        /* \"#utility.yul\":414:780   */\n      swap2\n      swap1\n      pop\n      jump\t// out\n        /* \"#utility.yul\":786:1205   */\n    tag_12:\n        /* \"#utility.yul\":952:956   */\n      0x00\n        /* \"#utility.yul\":990:992   */\n      0x20\n        /* \"#utility.yul\":979:988   */\n      dup3\n        /* \"#utility.yul\":975:993   */\n      add\n        /* \"#utility.yul\":967:993   */\n      swap1\n      pop\n        /* \"#utility.yul\":1039:1048   */\n      dup2\n        /* \"#utility.yul\":1033:1037   */\n      dup2\n        /* \"#utility.yul\":1029:1049   */\n      sub\n        /* \"#utility.yul\":1025:1026   */\n      0x00\n        /* \"#utility.yul\":1014:1023   */\n      dup4\n        /* \"#utility.yul\":1010:1027   */\n      add\n        /* \"#utility.yul\":1003:1050   */\n      mstore\n        /* \"#utility.yul\":1067:1198   */\n      tag_99\n        /* \"#utility.yul\":1193:1197   */\n      dup2\n        /* \"#utility.yul\":1067:1198   */\n      tag_74\n      jump\t// in\n    tag_99:\n        /* \"#utility.yul\":1059:1198   */\n      swap1\n      pop\n        /* \"#utility.yul\":786:1205   */\n      swap2\n      swap1\n      pop\n      jump\t// out\n        /* \"#utility.yul\":1211:1288   */\n    tag_75:\n        /* \"#utility.yul\":1248:1255   */\n      0x00\n        /* \"#utility.yul\":1277:1282   */\n      dup2\n        /* \"#utility.yul\":1266:1282   */\n      swap1\n      pop\n        /* \"#utility.yul\":1211:1288   */\n      swap2\n      swap1\n      pop\n      jump\t// out\n        /* \"#utility.yul\":1294:1412   */\n    tag_76:\n        /* \"#utility.yul\":1381:1405   */\n      tag_102\n        /* \"#utility.yul\":1399:1404   */\n      dup2\n        /* \"#utility.yul\":1381:1405   */\n      tag_75\n      jump\t// in\n    tag_102:\n        /* \"#utility.yul\":1376:1379   */\n      dup3\n        /* \"#utility.yul\":1369:1406   */\n      mstore\n        /* \"#utility.yul\":1294:1412   */\n      pop\n      pop\n      jump\t// out\n        /* \"#utility.yul\":1418:1640   */\n    tag_18:\n        /* \"#utility.yul\":1511:1515   */\n      0x00\n        /* \"#utility.yul\":1549:1551   */\n      0x20\n        /* \"#utility.yul\":1538:1547   */\n      dup3\n        /* \"#utility.yul\":1534:1552   */\n      add\n        /* \"#utility.yul\":1526:1552   */\n      swap1\n      pop\n        /* \"#utility.yul\":1562:1633   */\n      tag_104\n        /* \"#utility.yul\":1630:1631   */\n      0x00\n        /* \"#utility.yul\":1619:1628   */\n      dup4\n        /* \"#utility.yul\":1615:1632   */\n      add\n        /* \"#utility.yul\":1606:1612   */\n      dup5\n        /* \"#utility.yul\":1562:1633   */\n      tag_76\n      jump\t// in\n    tag_104:\n        /* \"#utility.yul\":1418:1640   */\n      swap3\n      swap2\n      pop\n      pop\n      jump\t// out\n        /* \"#utility.yul\":1646:1772   */\n    tag_77:\n        /* \"#utility.yul\":1683:1690   */\n      0x00\n        /* \"#utility.yul\":1723:1765   */\n      0xffffffffffffffffffffffffffffffffffffffff\n        /* \"#utility.yul\":1716:1721   */\n      dup3\n        /* \"#utility.yul\":1712:1766   */\n      and\n        /* \"#utility.yul\":1701:1766   */\n      swap1\n      pop\n        /* \"#utility.yul\":1646:1772   */\n      swap2\n      swap1\n      pop\n      jump\t// out\n        /* \"#utility.yul\":1778:1874   */\n    tag_78:\n        /* \"#utility.yul\":1815:1822   */\n      0x00\n        /* \"#utility.yul\":1844:1868   */\n      tag_107\n        /* \"#utility.yul\":1862:1867   */\n      dup3\n        /* \"#utility.yul\":1844:1868   */\n      tag_77\n      jump\t// in\n    tag_107:\n        /* \"#utility.yul\":1833:1868   */\n      swap1\n      pop\n        /* \"#utility.yul\":1778:1874   */\n      swap2\n      swap1\n      pop\n      jump\t// out\n        /* \"#utility.yul\":1880:1998   */\n    tag_79:\n        /* \"#utility.yul\":1967:1991   */\n      tag_109\n        /* \"#utility.yul\":1985:1990   */\n      dup2\n        /* \"#utility.yul\":1967:1991   */\n      tag_78\n      jump\t// in\n    tag_109:\n        /* \"#utility.yul\":1962:1965   */\n      dup3\n        /* \"#utility.yul\":1955:1992   */\n      mstore\n        /* \"#utility.yul\":1880:1998   */\n      pop\n      pop\n      jump\t// out\n        /* \"#utility.yul\":2004:2226   */\n    tag_23:\n        /* \"#utility.yul\":2097:2101   */\n      0x00\n        /* \"#utility.yul\":2135:2137   */\n      0x20\n        /* \"#utility.yul\":2124:2133   */\n      dup3\n        /* \"#utility.yul\":2120:2138   */\n      add\n        /* \"#utility.yul\":2112:2138   */\n      swap1\n      pop\n        /* \"#utility.yul\":2148:2219   */\n      tag_111\n        /* \"#utility.yul\":2216:2217   */\n      0x00\n        /* \"#utility.yul\":2205:2214   */\n      dup4\n        /* \"#utility.yul\":2201:2218   */\n      add\n        /* \"#utility.yul\":2192:2198   */\n      dup5\n        /* \"#utility.yul\":2148:2219   */\n      tag_79\n      jump\t// in\n    tag_111:\n        /* \"#utility.yul\":2004:2226   */\n      swap3\n      swap2\n      pop\n      pop\n      jump\t// out\n        /* \"#utility.yul\":2313:2430   */\n    tag_81:\n        /* \"#utility.yul\":2422:2423   */\n      0x00\n        /* \"#utility.yul\":2419:2420   */\n      dup1\n        /* \"#utility.yul\":2412:2424   */\n      revert\n        /* \"#utility.yul\":2559:2681   */\n    tag_83:\n        /* \"#utility.yul\":2632:2656   */\n      tag_116\n        /* \"#utility.yul\":2650:2655   */\n      dup2\n        /* \"#utility.yul\":2632:2656   */\n      tag_75\n      jump\t// in\n    tag_116:\n        /* \"#utility.yul\":2625:2630   */\n      dup2\n        /* \"#utility.yul\":2622:2657   */\n      eq\n        /* \"#utility.yul\":2612:2675   */\n      tag_117\n      jumpi\n        /* \"#utility.yul\":2671:2672   */\n      0x00\n        /* \"#utility.yul\":2668:2669   */\n      dup1\n        /* \"#utility.yul\":2661:2673   */\n      revert\n        /* \"#utility.yul\":2612:2675   */\n    tag_117:\n        /* \"#utility.yul\":2559:2681   */\n      pop\n      jump\t// out\n        /* \"#utility.yul\":2687:2826   */\n    tag_84:\n        /* \"#utility.yul\":2733:2738   */\n      0x00\n        /* \"#utility.yul\":2771:2777   */\n      dup2\n        /* \"#utility.yul\":2758:2778   */\n      calldataload\n        /* \"#utility.yul\":2749:2778   */\n      swap1\n      pop\n        /* \"#utility.yul\":2787:2820   */\n      tag_119\n        /* \"#utility.yul\":2814:2819   */\n      dup2\n        /* \"#utility.yul\":2787:2820   */\n      tag_83\n      jump\t// in\n    tag_119:\n        /* \"#utility.yul\":2687:2826   */\n      swap3\n      swap2\n      pop\n      pop\n      jump\t// out\n        /* \"#utility.yul\":2832:3161   */\n    tag_33:\n        /* \"#utility.yul\":2891:2897   */\n      0x00\n        /* \"#utility.yul\":2940:2942   */\n      0x20\n        /* \"#utility.yul\":2928:2937   */\n      dup3\n        /* \"#utility.yul\":2919:2926   */\n      dup5\n        /* \"#utility.yul\":2915:2938   */\n      sub\n        /* \"#utility.yul\":2911:2943   */\n      slt\n        /* \"#utility.yul\":2908:3027   */\n      iszero\n      tag_121\n      jumpi\n        /* \"#utility.yul\":2946:3025   */\n      tag_122\n      tag_81\n      jump\t// in\n    tag_122:\n        /* \"#utility.yul\":2908:3027   */\n    tag_121:\n        /* \"#utility.yul\":3066:3067   */\n      0x00\n        /* \"#utility.yul\":3091:3144   */\n      tag_123\n        /* \"#utility.yul\":3136:3143   */\n      dup5\n        /* \"#utility.yul\":3127:3133   */\n      dup3\n        /* \"#utility.yul\":3116:3125   */\n      dup6\n        /* \"#utility.yul\":3112:3134   */\n      add\n        /* \"#utility.yul\":3091:3144   */\n      tag_84\n      jump\t// in\n    tag_123:\n        /* \"#utility.yul\":3081:3144   */\n      swap2\n      pop\n        /* \"#utility.yul\":3037:3154   */\n      pop\n        /* \"#utility.yul\":2832:3161   */\n      swap3\n      swap2\n      pop\n      pop\n      jump\t// out\n        /* \"#utility.yul\":3167:3271   */\n    tag_85:\n        /* \"#utility.yul\":3212:3219   */\n      0x00\n        /* \"#utility.yul\":3241:3265   */\n      tag_125\n        /* \"#utility.yul\":3259:3264   */\n      dup3\n        /* \"#utility.yul\":3241:3265   */\n      tag_77\n      jump\t// in\n    tag_125:\n        /* \"#utility.yul\":3230:3265   */\n      swap1\n      pop\n        /* \"#utility.yul\":3167:3271   */\n      swap2\n      swap1\n      pop\n      jump\t// out\n        /* \"#utility.yul\":3277:3419   */\n    tag_86:\n        /* \"#utility.yul\":3380:3412   */\n      tag_127\n        /* \"#utility.yul\":3406:3411   */\n      dup2\n        /* \"#utility.yul\":3380:3412   */\n      tag_85\n      jump\t// in\n    tag_127:\n        /* \"#utility.yul\":3375:3378   */\n      dup3\n        /* \"#utility.yul\":3368:3413   */\n      mstore\n        /* \"#utility.yul\":3277:3419   */\n      pop\n      pop\n      jump\t// out\n        /* \"#utility.yul\":3425:3679   */\n    tag_36:\n        /* \"#utility.yul\":3534:3538   */\n      0x00\n        /* \"#utility.yul\":3572:3574   */\n      0x20\n        /* \"#utility.yul\":3561:3570   */\n      dup3\n        /* \"#utility.yul\":3557:3575   */\n      add\n        /* \"#utility.yul\":3549:3575   */\n      swap1\n      pop\n        /* \"#utility.yul\":3585:3672   */\n      tag_129\n        /* \"#utility.yul\":3669:3670   */\n      0x00\n        /* \"#utility.yul\":3658:3667   */\n      dup4\n        /* \"#utility.yul\":3654:3671   */\n      add\n        /* \"#utility.yul\":3645:3651   */\n      dup5\n        /* \"#utility.yul\":3585:3672   */\n      tag_86\n      jump\t// in\n    tag_129:\n        /* \"#utility.yul\":3425:3679   */\n      swap3\n      swap2\n      pop\n      pop\n      jump\t// out\n        /* \"#utility.yul\":3685:3856   */\n    tag_87:\n        /* \"#utility.yul\":3825:3848   */\n      0x796f7520617265206e6f7420746865206f77656e720000000000000000000000\n        /* \"#utility.yul\":3821:3822   */\n      0x00\n        /* \"#utility.yul\":3813:3819   */\n      dup3\n        /* \"#utility.yul\":3809:3823   */\n      add\n        /* \"#utility.yul\":3802:3849   */\n      mstore\n        /* \"#utility.yul\":3685:3856   */\n      pop\n      jump\t// out\n        /* \"#utility.yul\":3862:4228   */\n    tag_88:\n        /* \"#utility.yul\":4004:4007   */\n      0x00\n        /* \"#utility.yul\":4025:4092   */\n      tag_132\n        /* \"#utility.yul\":4089:4091   */\n      0x15\n        /* \"#utility.yul\":4084:4087   */\n      dup4\n        /* \"#utility.yul\":4025:4092   */\n      tag_72\n      jump\t// in\n    tag_132:\n        /* \"#utility.yul\":4018:4092   */\n      swap2\n      pop\n        /* \"#utility.yul\":4101:4194   */\n      tag_133\n        /* \"#utility.yul\":4190:4193   */\n      dup3\n        /* \"#utility.yul\":4101:4194   */\n      tag_87\n      jump\t// in\n    tag_133:\n        /* \"#utility.yul\":4219:4221   */\n      0x20\n        /* \"#utility.yul\":4214:4217   */\n      dup3\n        /* \"#utility.yul\":4210:4222   */\n      add\n        /* \"#utility.yul\":4203:4222   */\n      swap1\n      pop\n        /* \"#utility.yul\":3862:4228   */\n      swap2\n      swap1\n      pop\n      jump\t// out\n        /* \"#utility.yul\":4234:4653   */\n    tag_40:\n        /* \"#utility.yul\":4400:4404   */\n      0x00\n        /* \"#utility.yul\":4438:4440   */\n      0x20\n        /* \"#utility.yul\":4427:4436   */\n      dup3\n        /* \"#utility.yul\":4423:4441   */\n      add\n        /* \"#utility.yul\":4415:4441   */\n      swap1\n      pop\n        /* \"#utility.yul\":4487:4496   */\n      dup2\n        /* \"#utility.yul\":4481:4485   */\n      dup2\n        /* \"#utility.yul\":4477:4497   */\n      sub\n        /* \"#utility.yul\":4473:4474   */\n      0x00\n        /* \"#utility.yul\":4462:4471   */\n      dup4\n        /* \"#utility.yul\":4458:4475   */\n      add\n        /* \"#utility.yul\":4451:4498   */\n      mstore\n        /* \"#utility.yul\":4515:4646   */\n      tag_135\n        /* \"#utility.yul\":4641:4645   */\n      dup2\n        /* \"#utility.yul\":4515:4646   */\n      tag_88\n      jump\t// in\n    tag_135:\n        /* \"#utility.yul\":4507:4646   */\n      swap1\n      pop\n        /* \"#utility.yul\":4234:4653   */\n      swap2\n      swap1\n      pop\n      jump\t// out\n        /* \"#utility.yul\":4659:4839   */\n    tag_89:\n        /* \"#utility.yul\":4707:4784   */\n      0x4e487b7100000000000000000000000000000000000000000000000000000000\n        /* \"#utility.yul\":4704:4705   */\n      0x00\n        /* \"#utility.yul\":4697:4785   */\n      mstore\n        /* \"#utility.yul\":4804:4808   */\n      0x12\n        /* \"#utility.yul\":4801:4802   */\n      0x04\n        /* \"#utility.yul\":4794:4809   */\n      mstore\n        /* \"#utility.yul\":4828:4832   */\n      0x24\n        /* \"#utility.yul\":4825:4826   */\n      0x00\n        /* \"#utility.yul\":4818:4833   */\n      revert\n        /* \"#utility.yul\":4845:5021   */\n    tag_46:\n        /* \"#utility.yul\":4877:4878   */\n      0x00\n        /* \"#utility.yul\":4894:4914   */\n      tag_138\n        /* \"#utility.yul\":4912:4913   */\n      dup3\n        /* \"#utility.yul\":4894:4914   */\n      tag_75\n      jump\t// in\n    tag_138:\n        /* \"#utility.yul\":4889:4914   */\n      swap2\n      pop\n        /* \"#utility.yul\":4928:4948   */\n      tag_139\n        /* \"#utility.yul\":4946:4947   */\n      dup4\n        /* \"#utility.yul\":4928:4948   */\n      tag_75\n      jump\t// in\n    tag_139:\n        /* \"#utility.yul\":4923:4948   */\n      swap3\n      pop\n        /* \"#utility.yul\":4967:4968   */\n      dup3\n        /* \"#utility.yul\":4957:4992   */\n      tag_140\n      jumpi\n        /* \"#utility.yul\":4972:4990   */\n      tag_141\n      tag_89\n      jump\t// in\n    tag_141:\n        /* \"#utility.yul\":4957:4992   */\n    tag_140:\n        /* \"#utility.yul\":5013:5014   */\n      dup3\n        /* \"#utility.yul\":5010:5011   */\n      dup3\n        /* \"#utility.yul\":5006:5015   */\n      mod\n        /* \"#utility.yul\":5001:5015   */\n      swap1\n      pop\n        /* \"#utility.yul\":4845:5021   */\n      swap3\n      swap2\n      pop\n      pop\n      jump\t// out\n        /* \"#utility.yul\":5027:5207   */\n    tag_49:\n        /* \"#utility.yul\":5075:5152   */\n      0x4e487b7100000000000000000000000000000000000000000000000000000000\n        /* \"#utility.yul\":5072:5073   */\n      0x00\n        /* \"#utility.yul\":5065:5153   */\n      mstore\n        /* \"#utility.yul\":5172:5176   */\n      0x32\n        /* \"#utility.yul\":5169:5170   */\n      0x04\n        /* \"#utility.yul\":5162:5177   */\n      mstore\n        /* \"#utility.yul\":5196:5200   */\n      0x24\n        /* \"#utility.yul\":5193:5194   */\n      0x00\n        /* \"#utility.yul\":5186:5201   */\n      revert\n        /* \"#utility.yul\":5213:5393   */\n    tag_56:\n        /* \"#utility.yul\":5261:5338   */\n      0x4e487b7100000000000000000000000000000000000000000000000000000000\n        /* \"#utility.yul\":5258:5259   */\n      0x00\n        /* \"#utility.yul\":5251:5339   */\n      mstore\n        /* \"#utility.yul\":5358:5362   */\n      0x41\n        /* \"#utility.yul\":5355:5356   */\n      0x04\n        /* \"#utility.yul\":5348:5363   */\n      mstore\n        /* \"#utility.yul\":5382:5386   */\n      0x24\n        /* \"#utility.yul\":5379:5380   */\n      0x00\n        /* \"#utility.yul\":5372:5387   */\n      revert\n        /* \"#utility.yul\":5399:5478   */\n    tag_90:\n        /* \"#utility.yul\":5438:5445   */\n      0x00\n        /* \"#utility.yul\":5467:5472   */\n      dup2\n        /* \"#utility.yul\":5456:5472   */\n      swap1\n      pop\n        /* \"#utility.yul\":5399:5478   */\n      swap2\n      swap1\n      pop\n      jump\t// out\n        /* \"#utility.yul\":5484:5641   */\n    tag_91:\n        /* \"#utility.yul\":5589:5634   */\n      tag_146\n        /* \"#utility.yul\":5609:5633   */\n      tag_147\n        /* \"#utility.yul\":5627:5632   */\n      dup3\n        /* \"#utility.yul\":5609:5633   */\n      tag_75\n      jump\t// in\n    tag_147:\n        /* \"#utility.yul\":5589:5634   */\n      tag_90\n      jump\t// in\n    tag_146:\n        /* \"#utility.yul\":5584:5587   */\n      dup3\n        /* \"#utility.yul\":5577:5635   */\n      mstore\n        /* \"#utility.yul\":5484:5641   */\n      pop\n      pop\n      jump\t// out\n        /* \"#utility.yul\":5647:6185   */\n    tag_62:\n        /* \"#utility.yul\":5815:5818   */\n      0x00\n        /* \"#utility.yul\":5830:5905   */\n      tag_149\n        /* \"#utility.yul\":5901:5904   */\n      dup3\n        /* \"#utility.yul\":5892:5898   */\n      dup7\n        /* \"#utility.yul\":5830:5905   */\n      tag_91\n      jump\t// in\n    tag_149:\n        /* \"#utility.yul\":5930:5932   */\n      0x20\n        /* \"#utility.yul\":5925:5928   */\n      dup3\n        /* \"#utility.yul\":5921:5933   */\n      add\n        /* \"#utility.yul\":5914:5933   */\n      swap2\n      pop\n        /* \"#utility.yul\":5943:6018   */\n      tag_150\n        /* \"#utility.yul\":6014:6017   */\n      dup3\n        /* \"#utility.yul\":6005:6011   */\n      dup6\n        /* \"#utility.yul\":5943:6018   */\n      tag_91\n      jump\t// in\n    tag_150:\n        /* \"#utility.yul\":6043:6045   */\n      0x20\n        /* \"#utility.yul\":6038:6041   */\n      dup3\n        /* \"#utility.yul\":6034:6046   */\n      add\n        /* \"#utility.yul\":6027:6046   */\n      swap2\n      pop\n        /* \"#utility.yul\":6056:6131   */\n      tag_151\n        /* \"#utility.yul\":6127:6130   */\n      dup3\n        /* \"#utility.yul\":6118:6124   */\n      dup5\n        /* \"#utility.yul\":6056:6131   */\n      tag_91\n      jump\t// in\n    tag_151:\n        /* \"#utility.yul\":6156:6158   */\n      0x20\n        /* \"#utility.yul\":6151:6154   */\n      dup3\n        /* \"#utility.yul\":6147:6159   */\n      add\n        /* \"#utility.yul\":6140:6159   */\n      swap2\n      pop\n        /* \"#utility.yul\":6176:6179   */\n      dup2\n        /* \"#utility.yul\":6169:6179   */\n      swap1\n      pop\n        /* \"#utility.yul\":5647:6185   */\n      swap5\n      swap4\n      pop\n      pop\n      pop\n      pop\n      jump\t// out\n\n    auxdata: 0xa2646970667358221220d7be50dfa609e7240edb765de0386eef8fb60d4ab31312b9d586371ada89eb1864736f6c634300081a0033\n}\n",
				"bytecode": {
					"linkReferences": {},
					"object": "6080604052348015600e575f80fd5b503360015f6101000a81548173ffffffffffffffffffffffffffffffffffffffff021916908373ffffffffffffffffffffffffffffffffffffffff16021790555061086f8061005c5f395ff3fe60806040526004361061004d575f3560e01c806312065fe014610100578063481c6a751461012a5780635d495aea146101545780635ec01e4d1461015e578063f71d96cb14610188576100fc565b366100fc5767016345785d8a0000341461009c576040517f08c379a000000000000000000000000000000000000000000000000000000000815260040161009390610585565b60405180910390fd5b5f33908060018154018082558091505060019003905f5260205f20015f9091909190916101000a81548173ffffffffffffffffffffffffffffffffffffffff021916908373ffffffffffffffffffffffffffffffffffffffff1602179055005b5f80fd5b34801561010b575f80fd5b506101146101c4565b60405161012191906105bb565b60405180910390f35b348015610135575f80fd5b5061013e61025a565b60405161014b9190610613565b60405180910390f35b61015c61027f565b005b348015610169575f80fd5b506101726103f2565b60405161017f91906105bb565b60405180910390f35b348015610193575f80fd5b506101ae60048036038101906101a9919061065a565b610429565b6040516101bb91906106a5565b60405180910390f35b5f60015f9054906101000a900473ffffffffffffffffffffffffffffffffffffffff1673ffffffffffffffffffffffffffffffffffffffff163373ffffffffffffffffffffffffffffffffffffffff1614610254576040517f08c379a000000000000000000000000000000000000000000000000000000000815260040161024b90610708565b60405180910390fd5b47905090565b60015f9054906101000a900473ffffffffffffffffffffffffffffffffffffffff1681565b60015f9054906101000a900473ffffffffffffffffffffffffffffffffffffffff1673ffffffffffffffffffffffffffffffffffffffff163373ffffffffffffffffffffffffffffffffffffffff16146102d7575f80fd5b60035f8054905010156102e8575f80fd5b5f6102f16103f2565b90505f805f80549050836103059190610753565b90505f818154811061031a57610319610783565b5b905f5260205f20015f9054906101000a900473ffffffffffffffffffffffffffffffffffffffff1691508173ffffffffffffffffffffffffffffffffffffffff166108fc6103666101c4565b90811502906040515f60405180830381858888f1935050505015801561038e573d5f803e3d5ffd5b505f67ffffffffffffffff8111156103a9576103a86107b0565b5b6040519080825280602002602001820160405280156103d75781602001602082028036833780820191505090505b505f90805190602001906103ec929190610463565b50505050565b5f44425f8054905060405160200161040c939291906107fd565b604051602081830303815290604052805190602001205f1c905090565b5f8181548110610437575f80fd5b905f5260205f20015f915054906101000a900473ffffffffffffffffffffffffffffffffffffffff1681565b828054828255905f5260205f209081019282156104d9579160200282015b828111156104d8578251825f6101000a81548173ffffffffffffffffffffffffffffffffffffffff021916908373ffffffffffffffffffffffffffffffffffffffff16021790555091602001919060010190610481565b5b5090506104e691906104ea565b5090565b5b80821115610501575f815f9055506001016104eb565b5090565b5f82825260208201905092915050565b7f6e6f7420636f727265637420616d756e742c2073686f756c642062652027302e5f8201527f3120457468657200000000000000000000000000000000000000000000000000602082015250565b5f61056f602783610505565b915061057a82610515565b604082019050919050565b5f6020820190508181035f83015261059c81610563565b9050919050565b5f819050919050565b6105b5816105a3565b82525050565b5f6020820190506105ce5f8301846105ac565b92915050565b5f73ffffffffffffffffffffffffffffffffffffffff82169050919050565b5f6105fd826105d4565b9050919050565b61060d816105f3565b82525050565b5f6020820190506106265f830184610604565b92915050565b5f80fd5b610639816105a3565b8114610643575f80fd5b50565b5f8135905061065481610630565b92915050565b5f6020828403121561066f5761066e61062c565b5b5f61067c84828501610646565b91505092915050565b5f61068f826105d4565b9050919050565b61069f81610685565b82525050565b5f6020820190506106b85f830184610696565b92915050565b7f796f7520617265206e6f7420746865206f77656e7200000000000000000000005f82015250565b5f6106f2601583610505565b91506106fd826106be565b602082019050919050565b5f6020820190508181035f83015261071f816106e6565b9050919050565b7f4e487b71000000000000000000000000000000000000000000000000000000005f52601260045260245ffd5b5f61075d826105a3565b9150610768836105a3565b92508261077857610777610726565b5b828206905092915050565b7f4e487b71000000000000000000000000000000000000000000000000000000005f52603260045260245ffd5b7f4e487b71000000000000000000000000000000000000000000000000000000005f52604160045260245ffd5b5f819050919050565b6107f76107f2826105a3565b6107dd565b82525050565b5f61080882866107e6565b60208201915061081882856107e6565b60208201915061082882846107e6565b60208201915081905094935050505056fea2646970667358221220d7be50dfa609e7240edb765de0386eef8fb60d4ab31312b9d586371ada89eb1864736f6c634300081a0033",
					"opcodes": "PUSH1 0x80 PUSH1 0x40 MSTORE CALLVALUE DUP1 ISZERO PUSH1 0xE JUMPI PUSH0 DUP1 REVERT JUMPDEST POP CALLER PUSH1 0x1 PUSH0 PUSH2 0x100 EXP DUP2 SLOAD DUP2 PUSH20 0xFFFFFFFFFFFFFFFFFFFFFFFFFFFFFFFFFFFFFFFF MUL NOT AND SWAP1 DUP4 PUSH20 0xFFFFFFFFFFFFFFFFFFFFFFFFFFFFFFFFFFFFFFFF AND MUL OR SWAP1 SSTORE POP PUSH2 0x86F DUP1 PUSH2 0x5C PUSH0 CODECOPY PUSH0 RETURN INVALID PUSH1 0x80 PUSH1 0x40 MSTORE PUSH1 0x4 CALLDATASIZE LT PUSH2 0x4D JUMPI PUSH0 CALLDATALOAD PUSH1 0xE0 SHR DUP1 PUSH4 0x12065FE0 EQ PUSH2 0x100 JUMPI DUP1 PUSH4 0x481C6A75 EQ PUSH2 0x12A JUMPI DUP1 PUSH4 0x5D495AEA EQ PUSH2 0x154 JUMPI DUP1 PUSH4 0x5EC01E4D EQ PUSH2 0x15E JUMPI DUP1 PUSH4 0xF71D96CB EQ PUSH2 0x188 JUMPI PUSH2 0xFC JUMP JUMPDEST CALLDATASIZE PUSH2 0xFC JUMPI PUSH8 0x16345785D8A0000 CALLVALUE EQ PUSH2 0x9C JUMPI PUSH1 0x40 MLOAD PUSH32 0x8C379A000000000000000000000000000000000000000000000000000000000 DUP2 MSTORE PUSH1 0x4 ADD PUSH2 0x93 SWAP1 PUSH2 0x585 JUMP JUMPDEST PUSH1 0x40 MLOAD DUP1 SWAP2 SUB SWAP1 REVERT JUMPDEST PUSH0 CALLER SWAP1 DUP1 PUSH1 0x1 DUP2 SLOAD ADD DUP1 DUP3 SSTORE DUP1 SWAP2 POP POP PUSH1 0x1 SWAP1 SUB SWAP1 PUSH0 MSTORE PUSH1 0x20 PUSH0 KECCAK256 ADD PUSH0 SWAP1 SWAP2 SWAP1 SWAP2 SWAP1 SWAP2 PUSH2 0x100 EXP DUP2 SLOAD DUP2 PUSH20 0xFFFFFFFFFFFFFFFFFFFFFFFFFFFFFFFFFFFFFFFF MUL NOT AND SWAP1 DUP4 PUSH20 0xFFFFFFFFFFFFFFFFFFFFFFFFFFFFFFFFFFFFFFFF AND MUL OR SWAP1 SSTORE STOP JUMPDEST PUSH0 DUP1 REVERT JUMPDEST CALLVALUE DUP1 ISZERO PUSH2 0x10B JUMPI PUSH0 DUP1 REVERT JUMPDEST POP PUSH2 0x114 PUSH2 0x1C4 JUMP JUMPDEST PUSH1 0x40 MLOAD PUSH2 0x121 SWAP2 SWAP1 PUSH2 0x5BB JUMP JUMPDEST PUSH1 0x40 MLOAD DUP1 SWAP2 SUB SWAP1 RETURN JUMPDEST CALLVALUE DUP1 ISZERO PUSH2 0x135 JUMPI PUSH0 DUP1 REVERT JUMPDEST POP PUSH2 0x13E PUSH2 0x25A JUMP JUMPDEST PUSH1 0x40 MLOAD PUSH2 0x14B SWAP2 SWAP1 PUSH2 0x613 JUMP JUMPDEST PUSH1 0x40 MLOAD DUP1 SWAP2 SUB SWAP1 RETURN JUMPDEST PUSH2 0x15C PUSH2 0x27F JUMP JUMPDEST STOP JUMPDEST CALLVALUE DUP1 ISZERO PUSH2 0x169 JUMPI PUSH0 DUP1 REVERT JUMPDEST POP PUSH2 0x172 PUSH2 0x3F2 JUMP JUMPDEST PUSH1 0x40 MLOAD PUSH2 0x17F SWAP2 SWAP1 PUSH2 0x5BB JUMP JUMPDEST PUSH1 0x40 MLOAD DUP1 SWAP2 SUB SWAP1 RETURN JUMPDEST CALLVALUE DUP1 ISZERO PUSH2 0x193 JUMPI PUSH0 DUP1 REVERT JUMPDEST POP PUSH2 0x1AE PUSH1 0x4 DUP1 CALLDATASIZE SUB DUP2 ADD SWAP1 PUSH2 0x1A9 SWAP2 SWAP1 PUSH2 0x65A JUMP JUMPDEST PUSH2 0x429 JUMP JUMPDEST PUSH1 0x40 MLOAD PUSH2 0x1BB SWAP2 SWAP1 PUSH2 0x6A5 JUMP JUMPDEST PUSH1 0x40 MLOAD DUP1 SWAP2 SUB SWAP1 RETURN JUMPDEST PUSH0 PUSH1 0x1 PUSH0 SWAP1 SLOAD SWAP1 PUSH2 0x100 EXP SWAP1 DIV PUSH20 0xFFFFFFFFFFFFFFFFFFFFFFFFFFFFFFFFFFFFFFFF AND PUSH20 0xFFFFFFFFFFFFFFFFFFFFFFFFFFFFFFFFFFFFFFFF AND CALLER PUSH20 0xFFFFFFFFFFFFFFFFFFFFFFFFFFFFFFFFFFFFFFFF AND EQ PUSH2 0x254 JUMPI PUSH1 0x40 MLOAD PUSH32 0x8C379A000000000000000000000000000000000000000000000000000000000 DUP2 MSTORE PUSH1 0x4 ADD PUSH2 0x24B SWAP1 PUSH2 0x708 JUMP JUMPDEST PUSH1 0x40 MLOAD DUP1 SWAP2 SUB SWAP1 REVERT JUMPDEST SELFBALANCE SWAP1 POP SWAP1 JUMP JUMPDEST PUSH1 0x1 PUSH0 SWAP1 SLOAD SWAP1 PUSH2 0x100 EXP SWAP1 DIV PUSH20 0xFFFFFFFFFFFFFFFFFFFFFFFFFFFFFFFFFFFFFFFF AND DUP2 JUMP JUMPDEST PUSH1 0x1 PUSH0 SWAP1 SLOAD SWAP1 PUSH2 0x100 EXP SWAP1 DIV PUSH20 0xFFFFFFFFFFFFFFFFFFFFFFFFFFFFFFFFFFFFFFFF AND PUSH20 0xFFFFFFFFFFFFFFFFFFFFFFFFFFFFFFFFFFFFFFFF AND CALLER PUSH20 0xFFFFFFFFFFFFFFFFFFFFFFFFFFFFFFFFFFFFFFFF AND EQ PUSH2 0x2D7 JUMPI PUSH0 DUP1 REVERT JUMPDEST PUSH1 0x3 PUSH0 DUP1 SLOAD SWAP1 POP LT ISZERO PUSH2 0x2E8 JUMPI PUSH0 DUP1 REVERT JUMPDEST PUSH0 PUSH2 0x2F1 PUSH2 0x3F2 JUMP JUMPDEST SWAP1 POP PUSH0 DUP1 PUSH0 DUP1 SLOAD SWAP1 POP DUP4 PUSH2 0x305 SWAP2 SWAP1 PUSH2 0x753 JUMP JUMPDEST SWAP1 POP PUSH0 DUP2 DUP2 SLOAD DUP2 LT PUSH2 0x31A JUMPI PUSH2 0x319 PUSH2 0x783 JUMP JUMPDEST JUMPDEST SWAP1 PUSH0 MSTORE PUSH1 0x20 PUSH0 KECCAK256 ADD PUSH0 SWAP1 SLOAD SWAP1 PUSH2 0x100 EXP SWAP1 DIV PUSH20 0xFFFFFFFFFFFFFFFFFFFFFFFFFFFFFFFFFFFFFFFF AND SWAP2 POP DUP2 PUSH20 0xFFFFFFFFFFFFFFFFFFFFFFFFFFFFFFFFFFFFFFFF AND PUSH2 0x8FC PUSH2 0x366 PUSH2 0x1C4 JUMP JUMPDEST SWAP1 DUP2 ISZERO MUL SWAP1 PUSH1 0x40 MLOAD PUSH0 PUSH1 0x40 MLOAD DUP1 DUP4 SUB DUP2 DUP6 DUP9 DUP9 CALL SWAP4 POP POP POP POP ISZERO DUP1 ISZERO PUSH2 0x38E JUMPI RETURNDATASIZE PUSH0 DUP1 RETURNDATACOPY RETURNDATASIZE PUSH0 REVERT JUMPDEST POP PUSH0 PUSH8 0xFFFFFFFFFFFFFFFF DUP2 GT ISZERO PUSH2 0x3A9 JUMPI PUSH2 0x3A8 PUSH2 0x7B0 JUMP JUMPDEST JUMPDEST PUSH1 0x40 MLOAD SWAP1 DUP1 DUP3 MSTORE DUP1 PUSH1 0x20 MUL PUSH1 0x20 ADD DUP3 ADD PUSH1 0x40 MSTORE DUP1 ISZERO PUSH2 0x3D7 JUMPI DUP2 PUSH1 0x20 ADD PUSH1 0x20 DUP3 MUL DUP1 CALLDATASIZE DUP4 CALLDATACOPY DUP1 DUP3 ADD SWAP2 POP POP SWAP1 POP JUMPDEST POP PUSH0 SWAP1 DUP1 MLOAD SWAP1 PUSH1 0x20 ADD SWAP1 PUSH2 0x3EC SWAP3 SWAP2 SWAP1 PUSH2 0x463 JUMP JUMPDEST POP POP POP POP JUMP JUMPDEST PUSH0 PREVRANDAO TIMESTAMP PUSH0 DUP1 SLOAD SWAP1 POP PUSH1 0x40 MLOAD PUSH1 0x20 ADD PUSH2 0x40C SWAP4 SWAP3 SWAP2 SWAP1 PUSH2 0x7FD JUMP JUMPDEST PUSH1 0x40 MLOAD PUSH1 0x20 DUP2 DUP4 SUB SUB DUP2 MSTORE SWAP1 PUSH1 0x40 MSTORE DUP1 MLOAD SWAP1 PUSH1 0x20 ADD KECCAK256 PUSH0 SHR SWAP1 POP SWAP1 JUMP JUMPDEST PUSH0 DUP2 DUP2 SLOAD DUP2 LT PUSH2 0x437 JUMPI PUSH0 DUP1 REVERT JUMPDEST SWAP1 PUSH0 MSTORE PUSH1 0x20 PUSH0 KECCAK256 ADD PUSH0 SWAP2 POP SLOAD SWAP1 PUSH2 0x100 EXP SWAP1 DIV PUSH20 0xFFFFFFFFFFFFFFFFFFFFFFFFFFFFFFFFFFFFFFFF AND DUP2 JUMP JUMPDEST DUP3 DUP1 SLOAD DUP3 DUP3 SSTORE SWAP1 PUSH0 MSTORE PUSH1 0x20 PUSH0 KECCAK256 SWAP1 DUP2 ADD SWAP3 DUP3 ISZERO PUSH2 0x4D9 JUMPI SWAP2 PUSH1 0x20 MUL DUP3 ADD JUMPDEST DUP3 DUP2 GT ISZERO PUSH2 0x4D8 JUMPI DUP3 MLOAD DUP3 PUSH0 PUSH2 0x100 EXP DUP2 SLOAD DUP2 PUSH20 0xFFFFFFFFFFFFFFFFFFFFFFFFFFFFFFFFFFFFFFFF MUL NOT AND SWAP1 DUP4 PUSH20 0xFFFFFFFFFFFFFFFFFFFFFFFFFFFFFFFFFFFFFFFF AND MUL OR SWAP1 SSTORE POP SWAP2 PUSH1 0x20 ADD SWAP2 SWAP1 PUSH1 0x1 ADD SWAP1 PUSH2 0x481 JUMP JUMPDEST JUMPDEST POP SWAP1 POP PUSH2 0x4E6 SWAP2 SWAP1 PUSH2 0x4EA JUMP JUMPDEST POP SWAP1 JUMP JUMPDEST JUMPDEST DUP1 DUP3 GT ISZERO PUSH2 0x501 JUMPI PUSH0 DUP2 PUSH0 SWAP1 SSTORE POP PUSH1 0x1 ADD PUSH2 0x4EB JUMP JUMPDEST POP SWAP1 JUMP JUMPDEST PUSH0 DUP3 DUP3 MSTORE PUSH1 0x20 DUP3 ADD SWAP1 POP SWAP3 SWAP2 POP POP JUMP JUMPDEST PUSH32 0x6E6F7420636F727265637420616D756E742C2073686F756C642062652027302E PUSH0 DUP3 ADD MSTORE PUSH32 0x3120457468657200000000000000000000000000000000000000000000000000 PUSH1 0x20 DUP3 ADD MSTORE POP JUMP JUMPDEST PUSH0 PUSH2 0x56F PUSH1 0x27 DUP4 PUSH2 0x505 JUMP JUMPDEST SWAP2 POP PUSH2 0x57A DUP3 PUSH2 0x515 JUMP JUMPDEST PUSH1 0x40 DUP3 ADD SWAP1 POP SWAP2 SWAP1 POP JUMP JUMPDEST PUSH0 PUSH1 0x20 DUP3 ADD SWAP1 POP DUP2 DUP2 SUB PUSH0 DUP4 ADD MSTORE PUSH2 0x59C DUP2 PUSH2 0x563 JUMP JUMPDEST SWAP1 POP SWAP2 SWAP1 POP JUMP JUMPDEST PUSH0 DUP2 SWAP1 POP SWAP2 SWAP1 POP JUMP JUMPDEST PUSH2 0x5B5 DUP2 PUSH2 0x5A3 JUMP JUMPDEST DUP3 MSTORE POP POP JUMP JUMPDEST PUSH0 PUSH1 0x20 DUP3 ADD SWAP1 POP PUSH2 0x5CE PUSH0 DUP4 ADD DUP5 PUSH2 0x5AC JUMP JUMPDEST SWAP3 SWAP2 POP POP JUMP JUMPDEST PUSH0 PUSH20 0xFFFFFFFFFFFFFFFFFFFFFFFFFFFFFFFFFFFFFFFF DUP3 AND SWAP1 POP SWAP2 SWAP1 POP JUMP JUMPDEST PUSH0 PUSH2 0x5FD DUP3 PUSH2 0x5D4 JUMP JUMPDEST SWAP1 POP SWAP2 SWAP1 POP JUMP JUMPDEST PUSH2 0x60D DUP2 PUSH2 0x5F3 JUMP JUMPDEST DUP3 MSTORE POP POP JUMP JUMPDEST PUSH0 PUSH1 0x20 DUP3 ADD SWAP1 POP PUSH2 0x626 PUSH0 DUP4 ADD DUP5 PUSH2 0x604 JUMP JUMPDEST SWAP3 SWAP2 POP POP JUMP JUMPDEST PUSH0 DUP1 REVERT JUMPDEST PUSH2 0x639 DUP2 PUSH2 0x5A3 JUMP JUMPDEST DUP2 EQ PUSH2 0x643 JUMPI PUSH0 DUP1 REVERT JUMPDEST POP JUMP JUMPDEST PUSH0 DUP2 CALLDATALOAD SWAP1 POP PUSH2 0x654 DUP2 PUSH2 0x630 JUMP JUMPDEST SWAP3 SWAP2 POP POP JUMP JUMPDEST PUSH0 PUSH1 0x20 DUP3 DUP5 SUB SLT ISZERO PUSH2 0x66F JUMPI PUSH2 0x66E PUSH2 0x62C JUMP JUMPDEST JUMPDEST PUSH0 PUSH2 0x67C DUP5 DUP3 DUP6 ADD PUSH2 0x646 JUMP JUMPDEST SWAP2 POP POP SWAP3 SWAP2 POP POP JUMP JUMPDEST PUSH0 PUSH2 0x68F DUP3 PUSH2 0x5D4 JUMP JUMPDEST SWAP1 POP SWAP2 SWAP1 POP JUMP JUMPDEST PUSH2 0x69F DUP2 PUSH2 0x685 JUMP JUMPDEST DUP3 MSTORE POP POP JUMP JUMPDEST PUSH0 PUSH1 0x20 DUP3 ADD SWAP1 POP PUSH2 0x6B8 PUSH0 DUP4 ADD DUP5 PUSH2 0x696 JUMP JUMPDEST SWAP3 SWAP2 POP POP JUMP JUMPDEST PUSH32 0x796F7520617265206E6F7420746865206F77656E720000000000000000000000 PUSH0 DUP3 ADD MSTORE POP JUMP JUMPDEST PUSH0 PUSH2 0x6F2 PUSH1 0x15 DUP4 PUSH2 0x505 JUMP JUMPDEST SWAP2 POP PUSH2 0x6FD DUP3 PUSH2 0x6BE JUMP JUMPDEST PUSH1 0x20 DUP3 ADD SWAP1 POP SWAP2 SWAP1 POP JUMP JUMPDEST PUSH0 PUSH1 0x20 DUP3 ADD SWAP1 POP DUP2 DUP2 SUB PUSH0 DUP4 ADD MSTORE PUSH2 0x71F DUP2 PUSH2 0x6E6 JUMP JUMPDEST SWAP1 POP SWAP2 SWAP1 POP JUMP JUMPDEST PUSH32 0x4E487B7100000000000000000000000000000000000000000000000000000000 PUSH0 MSTORE PUSH1 0x12 PUSH1 0x4 MSTORE PUSH1 0x24 PUSH0 REVERT JUMPDEST PUSH0 PUSH2 0x75D DUP3 PUSH2 0x5A3 JUMP JUMPDEST SWAP2 POP PUSH2 0x768 DUP4 PUSH2 0x5A3 JUMP JUMPDEST SWAP3 POP DUP3 PUSH2 0x778 JUMPI PUSH2 0x777 PUSH2 0x726 JUMP JUMPDEST JUMPDEST DUP3 DUP3 MOD SWAP1 POP SWAP3 SWAP2 POP POP JUMP JUMPDEST PUSH32 0x4E487B7100000000000000000000000000000000000000000000000000000000 PUSH0 MSTORE PUSH1 0x32 PUSH1 0x4 MSTORE PUSH1 0x24 PUSH0 REVERT JUMPDEST PUSH32 0x4E487B7100000000000000000000000000000000000000000000000000000000 PUSH0 MSTORE PUSH1 0x41 PUSH1 0x4 MSTORE PUSH1 0x24 PUSH0 REVERT JUMPDEST PUSH0 DUP2 SWAP1 POP SWAP2 SWAP1 POP JUMP JUMPDEST PUSH2 0x7F7 PUSH2 0x7F2 DUP3 PUSH2 0x5A3 JUMP JUMPDEST PUSH2 0x7DD JUMP JUMPDEST DUP3 MSTORE POP POP JUMP JUMPDEST PUSH0 PUSH2 0x808 DUP3 DUP7 PUSH2 0x7E6 JUMP JUMPDEST PUSH1 0x20 DUP3 ADD SWAP2 POP PUSH2 0x818 DUP3 DUP6 PUSH2 0x7E6 JUMP JUMPDEST PUSH1 0x20 DUP3 ADD SWAP2 POP PUSH2 0x828 DUP3 DUP5 PUSH2 0x7E6 JUMP JUMPDEST PUSH1 0x20 DUP3 ADD SWAP2 POP DUP2 SWAP1 POP SWAP5 SWAP4 POP POP POP POP JUMP INVALID LOG2 PUSH5 0x6970667358 0x22 SLT KECCAK256 0xD7 0xBE POP 0xDF 0xA6 MULMOD 0xE7 0x24 0xE 0xDB PUSH23 0x5DE0386EEF8FB60D4AB31312B9D586371ADA89EB186473 PUSH16 0x6C634300081A00330000000000000000 "
				},
				"gasEstimates": {
					"creation": {
						"codeDepositCost": "431800",
						"executionCost": "24731",
						"totalCost": "456531"
					},
					"external": {
						"getBalance()": "2576",
						"manager()": "2508",
						"pickWinner()": "infinite",
						"players(uint256)": "5009",
						"random()": "infinite"
					}
				},
				"methodIdentifiers": {
					"getBalance()": "12065fe0",
					"manager()": "481c6a75",
					"pickWinner()": "5d495aea",
					"players(uint256)": "f71d96cb",
					"random()": "5ec01e4d"
				}
			},
			"storageLayout": {
				"storage": [
					{
						"astId": 4,
						"contract": "contracts/lottery.sol:Lottery",
						"label": "players",
						"offset": 0,
						"slot": "0",
						"type": "t_array(t_address_payable)dyn_storage"
					},
					{
						"astId": 6,
						"contract": "contracts/lottery.sol:Lottery",
						"label": "manager",
						"offset": 0,
						"slot": "1",
						"type": "t_address"
					}
				],
				"types": {
					"t_address": {
						"encoding": "inplace",
						"label": "address",
						"numberOfBytes": "20"
					},
					"t_address_payable": {
						"encoding": "inplace",
						"label": "address payable",
						"numberOfBytes": "20"
					},
					"t_array(t_address_payable)dyn_storage": {
						"base": "t_address_payable",
						"encoding": "dynamic_array",
						"label": "address payable[]",
						"numberOfBytes": "32"
					}
				}
			},
			"userdoc": {
				"kind": "user",
				"methods": {},
				"version": 1
			}
		}
	}
}