{
	"contracts/lottery_challenge.sol": {
		"Lottery": {
			"abi": [
				{
					"inputs": [],
					"stateMutability": "nonpayable",
					"type": "constructor"
				},
				{
					"inputs": [],
					"name": "getBalance",
					"outputs": [
						{
							"internalType": "uint256",
							"name": "",
							"type": "uint256"
						}
					],
					"stateMutability": "view",
					"type": "function"
				},
				{
					"inputs": [],
					"name": "manager",
					"outputs": [
						{
							"internalType": "address",
							"name": "",
							"type": "address"
						}
					],
					"stateMutability": "view",
					"type": "function"
				},
				{
					"inputs": [],
					"name": "pickWinner",
					"outputs": [],
					"stateMutability": "nonpayable",
					"type": "function"
				},
				{
					"inputs": [
						{
							"internalType": "uint256",
							"name": "",
							"type": "uint256"
						}
					],
					"name": "players",
					"outputs": [
						{
							"internalType": "address payable",
							"name": "",
							"type": "address"
						}
					],
					"stateMutability": "view",
					"type": "function"
				},
				{
					"inputs": [],
					"name": "random",
					"outputs": [
						{
							"internalType": "uint256",
							"name": "",
							"type": "uint256"
						}
					],
					"stateMutability": "view",
					"type": "function"
				},
				{
					"stateMutability": "payable",
					"type": "receive"
				}
			],
			"devdoc": {
				"kind": "dev",
				"methods": {},
				"version": 1
			},
			"evm": {
				"assembly": "    /* \"contracts/lottery_challenge.sol\":70:2544  contract Lottery{... */\n  mstore(0x40, 0x80)\n    /* \"contracts/lottery_challenge.sol\":284:514  constructor(){... */\n  callvalue\n  dup1\n  iszero\n  tag_1\n  jumpi\n  0x00\n  dup1\n  revert\ntag_1:\n  pop\n    /* \"contracts/lottery_challenge.sol\":392:402  msg.sender */\n  caller\n    /* \"contracts/lottery_challenge.sol\":382:389  manager */\n  0x01\n  0x00\n    /* \"contracts/lottery_challenge.sol\":382:402  manager = msg.sender */\n  0x0100\n  exp\n  dup2\n  sload\n  dup2\n  0xffffffffffffffffffffffffffffffffffffffff\n  mul\n  not\n  and\n  swap1\n  dup4\n  0xffffffffffffffffffffffffffffffffffffffff\n  and\n  mul\n  or\n  swap1\n  sstore\n  pop\n    /* \"contracts/lottery_challenge.sol\":477:484  players */\n  0x00\n    /* \"contracts/lottery_challenge.sol\":498:505  manager */\n  0x01\n  0x00\n  swap1\n  sload\n  swap1\n  0x0100\n  exp\n  swap1\n  div\n  0xffffffffffffffffffffffffffffffffffffffff\n  and\n    /* \"contracts/lottery_challenge.sol\":477:507  players.push(payable(manager)) */\n  swap1\n  dup1\n  0x01\n  dup2\n  sload\n  add\n  dup1\n  dup3\n  sstore\n  dup1\n  swap2\n  pop\n  pop\n  0x01\n  swap1\n  sub\n  swap1\n  0x00\n  mstore\n  keccak256(0x00, 0x20)\n  add\n  0x00\n  swap1\n  swap2\n  swap1\n  swap2\n  swap1\n  swap2\n  0x0100\n  exp\n  dup2\n  sload\n  dup2\n  0xffffffffffffffffffffffffffffffffffffffff\n  mul\n  not\n  and\n  swap1\n  dup4\n  0xffffffffffffffffffffffffffffffffffffffff\n  and\n  mul\n  or\n  swap1\n  sstore\n  pop\n    /* \"contracts/lottery_challenge.sol\":70:2544  contract Lottery{... */\n  dataSize(sub_0)\n  dup1\n  dataOffset(sub_0)\n  0x00\n  codecopy\n  0x00\n  return\nstop\n\nsub_0: assembly {\n        /* \"contracts/lottery_challenge.sol\":70:2544  contract Lottery{... */\n      mstore(0x40, 0x80)\n      jumpi(tag_1, lt(calldatasize, 0x04))\n      shr(0xe0, calldataload(0x00))\n      dup1\n      0x12065fe0\n      eq\n      tag_3\n      jumpi\n      dup1\n      0x481c6a75\n      eq\n      tag_4\n      jumpi\n      dup1\n      0x5d495aea\n      eq\n      tag_5\n      jumpi\n      dup1\n      0x5ec01e4d\n      eq\n      tag_6\n      jumpi\n      dup1\n      0xf71d96cb\n      eq\n      tag_7\n      jumpi\n      jump(tag_2)\n    tag_1:\n      jumpi(tag_2, calldatasize)\n        /* \"contracts/lottery_challenge.sol\":635:642  manager */\n      0x01\n      0x00\n      swap1\n      sload\n      swap1\n      0x0100\n      exp\n      swap1\n      div\n      0xffffffffffffffffffffffffffffffffffffffff\n      and\n        /* \"contracts/lottery_challenge.sol\":621:642  msg.sender != manager */\n      0xffffffffffffffffffffffffffffffffffffffff\n      and\n        /* \"contracts/lottery_challenge.sol\":621:631  msg.sender */\n      caller\n        /* \"contracts/lottery_challenge.sol\":621:642  msg.sender != manager */\n      0xffffffffffffffffffffffffffffffffffffffff\n      and\n      sub\n        /* \"contracts/lottery_challenge.sol\":613:684  require(msg.sender != manager, \"Manager is not allowed to participate\") */\n      tag_10\n      jumpi\n      mload(0x40)\n      0x08c379a000000000000000000000000000000000000000000000000000000000\n      dup2\n      mstore\n      0x04\n      add\n      tag_11\n      swap1\n      tag_12\n      jump\t// in\n    tag_11:\n      mload(0x40)\n      dup1\n      swap2\n      sub\n      swap1\n      revert\n    tag_10:\n        /* \"contracts/lottery_challenge.sol\":762:771  0.1 ether */\n      0x016345785d8a0000\n        /* \"contracts/lottery_challenge.sol\":749:758  msg.value */\n      callvalue\n        /* \"contracts/lottery_challenge.sol\":749:771  msg.value == 0.1 ether */\n      eq\n        /* \"contracts/lottery_challenge.sol\":741:815  require(msg.value == 0.1 ether, \"not correct amunt, should be '0.1 Ether\") */\n      tag_13\n      jumpi\n      mload(0x40)\n      0x08c379a000000000000000000000000000000000000000000000000000000000\n      dup2\n      mstore\n      0x04\n      add\n      tag_14\n      swap1\n      tag_15\n      jump\t// in\n    tag_14:\n      mload(0x40)\n      dup1\n      swap2\n      sub\n      swap1\n      revert\n    tag_13:\n        /* \"contracts/lottery_challenge.sol\":926:933  players */\n      0x00\n        /* \"contracts/lottery_challenge.sol\":947:957  msg.sender */\n      caller\n        /* \"contracts/lottery_challenge.sol\":926:959  players.push(payable(msg.sender)) */\n      swap1\n      dup1\n      0x01\n      dup2\n      sload\n      add\n      dup1\n      dup3\n      sstore\n      dup1\n      swap2\n      pop\n      pop\n      0x01\n      swap1\n      sub\n      swap1\n      0x00\n      mstore\n      keccak256(0x00, 0x20)\n      add\n      0x00\n      swap1\n      swap2\n      swap1\n      swap2\n      swap1\n      swap2\n      0x0100\n      exp\n      dup2\n      sload\n      dup2\n      0xffffffffffffffffffffffffffffffffffffffff\n      mul\n      not\n      and\n      swap1\n      dup4\n      0xffffffffffffffffffffffffffffffffffffffff\n      and\n      mul\n      or\n      swap1\n      sstore\n      stop\n        /* \"contracts/lottery_challenge.sol\":70:2544  contract Lottery{... */\n    tag_2:\n      0x00\n      dup1\n      revert\n        /* \"contracts/lottery_challenge.sol\":1068:1250  function getBalance() public view returns(uint){... */\n    tag_3:\n      callvalue\n      dup1\n      iszero\n      tag_17\n      jumpi\n      0x00\n      dup1\n      revert\n    tag_17:\n      pop\n      tag_18\n      tag_19\n      jump\t// in\n    tag_18:\n      mload(0x40)\n      tag_20\n      swap2\n      swap1\n      tag_21\n      jump\t// in\n    tag_20:\n      mload(0x40)\n      dup1\n      swap2\n      sub\n      swap1\n      return\n        /* \"contracts/lottery_challenge.sol\":212:234  address public manager */\n    tag_4:\n      callvalue\n      dup1\n      iszero\n      tag_22\n      jumpi\n      0x00\n      dup1\n      revert\n    tag_22:\n      pop\n      tag_23\n      tag_24\n      jump\t// in\n    tag_23:\n      mload(0x40)\n      tag_25\n      swap2\n      swap1\n      tag_26\n      jump\t// in\n    tag_25:\n      mload(0x40)\n      dup1\n      swap2\n      sub\n      swap1\n      return\n        /* \"contracts/lottery_challenge.sol\":1594:2540  function pickWinner() public{... */\n    tag_5:\n      callvalue\n      dup1\n      iszero\n      tag_27\n      jumpi\n      0x00\n      dup1\n      revert\n    tag_27:\n      pop\n      tag_28\n      tag_29\n      jump\t// in\n    tag_28:\n      stop\n        /* \"contracts/lottery_challenge.sol\":1313:1560  function random() public view returns(uint){ // This is not safe as a miner can manipulate and make himself a winner. Use chainlink instead.... */\n    tag_6:\n      callvalue\n      dup1\n      iszero\n      tag_30\n      jumpi\n      0x00\n      dup1\n      revert\n    tag_30:\n      pop\n      tag_31\n      tag_32\n      jump\t// in\n    tag_31:\n      mload(0x40)\n      tag_33\n      swap2\n      swap1\n      tag_21\n      jump\t// in\n    tag_33:\n      mload(0x40)\n      dup1\n      swap2\n      sub\n      swap1\n      return\n        /* \"contracts/lottery_challenge.sol\":134:166  address payable[] public players */\n    tag_7:\n      callvalue\n      dup1\n      iszero\n      tag_34\n      jumpi\n      0x00\n      dup1\n      revert\n    tag_34:\n      pop\n      tag_35\n      0x04\n      dup1\n      calldatasize\n      sub\n      dup2\n      add\n      swap1\n      tag_36\n      swap2\n      swap1\n      tag_37\n      jump\t// in\n    tag_36:\n      tag_38\n      jump\t// in\n    tag_35:\n      mload(0x40)\n      tag_39\n      swap2\n      swap1\n      tag_40\n      jump\t// in\n    tag_39:\n      mload(0x40)\n      dup1\n      swap2\n      sub\n      swap1\n      return\n        /* \"contracts/lottery_challenge.sol\":1068:1250  function getBalance() public view returns(uint){... */\n    tag_19:\n        /* \"contracts/lottery_challenge.sol\":1110:1114  uint */\n      0x00\n        /* \"contracts/lottery_challenge.sol\":1197:1204  manager */\n      0x01\n      0x00\n      swap1\n      sload\n      swap1\n      0x0100\n      exp\n      swap1\n      div\n      0xffffffffffffffffffffffffffffffffffffffff\n      and\n        /* \"contracts/lottery_challenge.sol\":1183:1204  msg.sender == manager */\n      0xffffffffffffffffffffffffffffffffffffffff\n      and\n        /* \"contracts/lottery_challenge.sol\":1183:1193  msg.sender */\n      caller\n        /* \"contracts/lottery_challenge.sol\":1183:1204  msg.sender == manager */\n      0xffffffffffffffffffffffffffffffffffffffff\n      and\n      eq\n        /* \"contracts/lottery_challenge.sol\":1175:1205  require(msg.sender == manager) */\n      tag_42\n      jumpi\n      0x00\n      dup1\n      revert\n    tag_42:\n        /* \"contracts/lottery_challenge.sol\":1222:1243  address(this).balance */\n      selfbalance\n        /* \"contracts/lottery_challenge.sol\":1215:1243  return address(this).balance */\n      swap1\n      pop\n        /* \"contracts/lottery_challenge.sol\":1068:1250  function getBalance() public view returns(uint){... */\n      swap1\n      jump\t// out\n        /* \"contracts/lottery_challenge.sol\":212:234  address public manager */\n    tag_24:\n      0x01\n      0x00\n      swap1\n      sload\n      swap1\n      0x0100\n      exp\n      swap1\n      div\n      0xffffffffffffffffffffffffffffffffffffffff\n      and\n      dup2\n      jump\t// out\n        /* \"contracts/lottery_challenge.sol\":1594:2540  function pickWinner() public{... */\n    tag_29:\n        /* \"contracts/lottery_challenge.sol\":1817:1819  10 */\n      0x0a\n        /* \"contracts/lottery_challenge.sol\":1799:1806  players */\n      0x00\n        /* \"contracts/lottery_challenge.sol\":1799:1813  players.length */\n      dup1\n      sload\n      swap1\n      pop\n        /* \"contracts/lottery_challenge.sol\":1799:1819  players.length >= 10 */\n      lt\n      iszero\n        /* \"contracts/lottery_challenge.sol\":1790:1820  require (players.length >= 10) */\n      tag_44\n      jumpi\n      0x00\n      dup1\n      revert\n    tag_44:\n        /* \"contracts/lottery_challenge.sol\":1839:1845  uint r */\n      0x00\n        /* \"contracts/lottery_challenge.sol\":1848:1856  random() */\n      tag_45\n        /* \"contracts/lottery_challenge.sol\":1848:1854  random */\n      tag_32\n        /* \"contracts/lottery_challenge.sol\":1848:1856  random() */\n      jump\t// in\n    tag_45:\n        /* \"contracts/lottery_challenge.sol\":1839:1856  uint r = random() */\n      swap1\n      pop\n        /* \"contracts/lottery_challenge.sol\":1866:1888  address payable winner */\n      0x00\n        /* \"contracts/lottery_challenge.sol\":1956:1966  uint index */\n      dup1\n        /* \"contracts/lottery_challenge.sol\":1973:1980  players */\n      0x00\n        /* \"contracts/lottery_challenge.sol\":1973:1987  players.length */\n      dup1\n      sload\n      swap1\n      pop\n        /* \"contracts/lottery_challenge.sol\":1969:1970  r */\n      dup4\n        /* \"contracts/lottery_challenge.sol\":1969:1987  r % players.length */\n      tag_46\n      swap2\n      swap1\n      tag_47\n      jump\t// in\n    tag_46:\n        /* \"contracts/lottery_challenge.sol\":1956:1987  uint index = r % players.length */\n      swap1\n      pop\n        /* \"contracts/lottery_challenge.sol\":2011:2018  players */\n      0x00\n        /* \"contracts/lottery_challenge.sol\":2019:2024  index */\n      dup2\n        /* \"contracts/lottery_challenge.sol\":2011:2025  players[index] */\n      dup2\n      sload\n      dup2\n      lt\n      tag_48\n      jumpi\n      tag_49\n      tag_50\n      jump\t// in\n    tag_49:\n    tag_48:\n      swap1\n      0x00\n      mstore\n      keccak256(0x00, 0x20)\n      add\n      0x00\n      swap1\n      sload\n      swap1\n      0x0100\n      exp\n      swap1\n      div\n      0xffffffffffffffffffffffffffffffffffffffff\n      and\n        /* \"contracts/lottery_challenge.sol\":2002:2025  winner = players[index] */\n      swap2\n      pop\n        /* \"contracts/lottery_challenge.sol\":2058:2074  uint managerFree */\n      0x00\n        /* \"contracts/lottery_challenge.sol\":2099:2102  100 */\n      0x64\n        /* \"contracts/lottery_challenge.sol\":2093:2095  10 */\n      0x0a\n        /* \"contracts/lottery_challenge.sol\":2078:2090  getBalance() */\n      tag_52\n        /* \"contracts/lottery_challenge.sol\":2078:2088  getBalance */\n      tag_19\n        /* \"contracts/lottery_challenge.sol\":2078:2090  getBalance() */\n      jump\t// in\n    tag_52:\n        /* \"contracts/lottery_challenge.sol\":2078:2095  getBalance() * 10 */\n      tag_53\n      swap2\n      swap1\n      tag_54\n      jump\t// in\n    tag_53:\n        /* \"contracts/lottery_challenge.sol\":2077:2102  (getBalance() * 10) / 100 */\n      tag_55\n      swap2\n      swap1\n      tag_56\n      jump\t// in\n    tag_55:\n        /* \"contracts/lottery_challenge.sol\":2058:2102  uint managerFree = (getBalance() * 10) / 100 */\n      swap1\n      pop\n        /* \"contracts/lottery_challenge.sol\":2134:2150  uint winnerPrize */\n      0x00\n        /* \"contracts/lottery_challenge.sol\":2175:2178  100 */\n      0x64\n        /* \"contracts/lottery_challenge.sol\":2169:2171  90 */\n      0x5a\n        /* \"contracts/lottery_challenge.sol\":2154:2166  getBalance() */\n      tag_57\n        /* \"contracts/lottery_challenge.sol\":2154:2164  getBalance */\n      tag_19\n        /* \"contracts/lottery_challenge.sol\":2154:2166  getBalance() */\n      jump\t// in\n    tag_57:\n        /* \"contracts/lottery_challenge.sol\":2154:2171  getBalance() * 90 */\n      tag_58\n      swap2\n      swap1\n      tag_54\n      jump\t// in\n    tag_58:\n        /* \"contracts/lottery_challenge.sol\":2153:2178  (getBalance() * 90) / 100 */\n      tag_59\n      swap2\n      swap1\n      tag_56\n      jump\t// in\n    tag_59:\n        /* \"contracts/lottery_challenge.sol\":2134:2178  uint winnerPrize = (getBalance() * 90) / 100 */\n      swap1\n      pop\n        /* \"contracts/lottery_challenge.sol\":2282:2288  winner */\n      dup4\n        /* \"contracts/lottery_challenge.sol\":2282:2297  winner.transfer */\n      0xffffffffffffffffffffffffffffffffffffffff\n      and\n        /* \"contracts/lottery_challenge.sol\":2282:2310  winner.transfer(winnerPrize) */\n      0x08fc\n        /* \"contracts/lottery_challenge.sol\":2298:2309  winnerPrize */\n      dup3\n        /* \"contracts/lottery_challenge.sol\":2282:2310  winner.transfer(winnerPrize) */\n      swap1\n      dup2\n      iszero\n      mul\n      swap1\n      mload(0x40)\n      0x00\n      mload(0x40)\n      dup1\n      dup4\n      sub\n      dup2\n      dup6\n      dup9\n      dup9\n      call\n      swap4\n      pop\n      pop\n      pop\n      pop\n      iszero\n      dup1\n      iszero\n      tag_61\n      jumpi\n      returndatasize\n      0x00\n      dup1\n      returndatacopy\n      revert(0x00, returndatasize)\n    tag_61:\n      pop\n        /* \"contracts/lottery_challenge.sol\":2398:2405  manager */\n      0x01\n      0x00\n      swap1\n      sload\n      swap1\n      0x0100\n      exp\n      swap1\n      div\n      0xffffffffffffffffffffffffffffffffffffffff\n      and\n        /* \"contracts/lottery_challenge.sol\":2390:2415  payable(manager).transfer */\n      0xffffffffffffffffffffffffffffffffffffffff\n      and\n        /* \"contracts/lottery_challenge.sol\":2390:2428  payable(manager).transfer(managerFree) */\n      0x08fc\n        /* \"contracts/lottery_challenge.sol\":2416:2427  managerFree */\n      dup4\n        /* \"contracts/lottery_challenge.sol\":2390:2428  payable(manager).transfer(managerFree) */\n      swap1\n      dup2\n      iszero\n      mul\n      swap1\n      mload(0x40)\n      0x00\n      mload(0x40)\n      dup1\n      dup4\n      sub\n      dup2\n      dup6\n      dup9\n      dup9\n      call\n      swap4\n      pop\n      pop\n      pop\n      pop\n      iszero\n      dup1\n      iszero\n      tag_63\n      jumpi\n      returndatasize\n      0x00\n      dup1\n      returndatacopy\n      revert(0x00, returndatasize)\n    tag_63:\n      pop\n        /* \"contracts/lottery_challenge.sol\":2531:2532  0 */\n      0x00\n        /* \"contracts/lottery_challenge.sol\":2509:2533  new address payable[](0) */\n      0xffffffffffffffff\n      dup2\n      gt\n      iszero\n      tag_64\n      jumpi\n      tag_65\n      tag_66\n      jump\t// in\n    tag_65:\n    tag_64:\n      mload(0x40)\n      swap1\n      dup1\n      dup3\n      mstore\n      dup1\n      0x20\n      mul\n      0x20\n      add\n      dup3\n      add\n      0x40\n      mstore\n      dup1\n      iszero\n      tag_67\n      jumpi\n      dup2\n      0x20\n      add\n      0x20\n      dup3\n      mul\n      dup1\n      calldatasize\n      dup4\n      calldatacopy\n      dup1\n      dup3\n      add\n      swap2\n      pop\n      pop\n      swap1\n      pop\n    tag_67:\n      pop\n        /* \"contracts/lottery_challenge.sol\":2499:2506  players */\n      0x00\n        /* \"contracts/lottery_challenge.sol\":2499:2533  players = new address payable[](0) */\n      swap1\n      dup1\n      mload\n      swap1\n      0x20\n      add\n      swap1\n      tag_68\n      swap3\n      swap2\n      swap1\n      tag_69\n      jump\t// in\n    tag_68:\n      pop\n        /* \"contracts/lottery_challenge.sol\":1622:2540  {... */\n      pop\n      pop\n      pop\n      pop\n      pop\n        /* \"contracts/lottery_challenge.sol\":1594:2540  function pickWinner() public{... */\n      jump\t// out\n        /* \"contracts/lottery_challenge.sol\":1313:1560  function random() public view returns(uint){ // This is not safe as a miner can manipulate and make himself a winner. Use chainlink instead.... */\n    tag_32:\n        /* \"contracts/lottery_challenge.sol\":1351:1355  uint */\n      0x00\n        /* \"contracts/lottery_challenge.sol\":1501:1517  block.difficulty */\n      prevrandao\n        /* \"contracts/lottery_challenge.sol\":1519:1534  block.timestamp */\n      timestamp\n        /* \"contracts/lottery_challenge.sol\":1536:1543  players */\n      0x00\n        /* \"contracts/lottery_challenge.sol\":1536:1550  players.length */\n      dup1\n      sload\n      swap1\n      pop\n        /* \"contracts/lottery_challenge.sol\":1484:1551  abi.encodePacked(block.difficulty, block.timestamp, players.length) */\n      add(0x20, mload(0x40))\n      tag_71\n      swap4\n      swap3\n      swap2\n      swap1\n      tag_72\n      jump\t// in\n    tag_71:\n      mload(0x40)\n      0x20\n      dup2\n      dup4\n      sub\n      sub\n      dup2\n      mstore\n      swap1\n      0x40\n      mstore\n        /* \"contracts/lottery_challenge.sol\":1474:1552  keccak256(abi.encodePacked(block.difficulty, block.timestamp, players.length)) */\n      dup1\n      mload\n      swap1\n      0x20\n      add\n      keccak256\n        /* \"contracts/lottery_challenge.sol\":1469:1553  uint(keccak256(abi.encodePacked(block.difficulty, block.timestamp, players.length))) */\n      0x00\n      shr\n        /* \"contracts/lottery_challenge.sol\":1462:1553  return uint(keccak256(abi.encodePacked(block.difficulty, block.timestamp, players.length))) */\n      swap1\n      pop\n        /* \"contracts/lottery_challenge.sol\":1313:1560  function random() public view returns(uint){ // This is not safe as a miner can manipulate and make himself a winner. Use chainlink instead.... */\n      swap1\n      jump\t// out\n        /* \"contracts/lottery_challenge.sol\":134:166  address payable[] public players */\n    tag_38:\n      0x00\n      dup2\n      dup2\n      sload\n      dup2\n      lt\n      tag_73\n      jumpi\n      0x00\n      dup1\n      revert\n    tag_73:\n      swap1\n      0x00\n      mstore\n      keccak256(0x00, 0x20)\n      add\n      0x00\n      swap2\n      pop\n      sload\n      swap1\n      0x0100\n      exp\n      swap1\n      div\n      0xffffffffffffffffffffffffffffffffffffffff\n      and\n      dup2\n      jump\t// out\n    tag_69:\n      dup3\n      dup1\n      sload\n      dup3\n      dup3\n      sstore\n      swap1\n      0x00\n      mstore\n      keccak256(0x00, 0x20)\n      swap1\n      dup2\n      add\n      swap3\n      dup3\n      iszero\n      tag_75\n      jumpi\n      swap2\n      0x20\n      mul\n      dup3\n      add\n    tag_76:\n      dup3\n      dup2\n      gt\n      iszero\n      tag_77\n      jumpi\n      dup3\n      mload\n      dup3\n      exp(0x0100, 0x00)\n      dup2\n      sload\n      dup2\n      0xffffffffffffffffffffffffffffffffffffffff\n      mul\n      not\n      and\n      swap1\n      dup4\n      0xffffffffffffffffffffffffffffffffffffffff\n      and\n      mul\n      or\n      swap1\n      sstore\n      pop\n      swap2\n      0x20\n      add\n      swap2\n      swap1\n      0x01\n      add\n      swap1\n      jump(tag_76)\n    tag_77:\n    tag_75:\n      pop\n      swap1\n      pop\n      tag_78\n      swap2\n      swap1\n      tag_79\n      jump\t// in\n    tag_78:\n      pop\n      swap1\n      jump\t// out\n    tag_79:\n    tag_80:\n      dup1\n      dup3\n      gt\n      iszero\n      tag_81\n      jumpi\n      0x00\n      dup2\n      0x00\n      swap1\n      sstore\n      pop\n      0x01\n      add\n      jump(tag_80)\n    tag_81:\n      pop\n      swap1\n      jump\t// out\n        /* \"#utility.yul\":7:176   */\n    tag_82:\n        /* \"#utility.yul\":91:102   */\n      0x00\n        /* \"#utility.yul\":125:131   */\n      dup3\n        /* \"#utility.yul\":120:123   */\n      dup3\n        /* \"#utility.yul\":113:132   */\n      mstore\n        /* \"#utility.yul\":165:169   */\n      0x20\n        /* \"#utility.yul\":160:163   */\n      dup3\n        /* \"#utility.yul\":156:170   */\n      add\n        /* \"#utility.yul\":141:170   */\n      swap1\n      pop\n        /* \"#utility.yul\":7:176   */\n      swap3\n      swap2\n      pop\n      pop\n      jump\t// out\n        /* \"#utility.yul\":182:406   */\n    tag_83:\n        /* \"#utility.yul\":322:356   */\n      0x4d616e61676572206973206e6f7420616c6c6f77656420746f20706172746963\n        /* \"#utility.yul\":318:319   */\n      0x00\n        /* \"#utility.yul\":310:316   */\n      dup3\n        /* \"#utility.yul\":306:320   */\n      add\n        /* \"#utility.yul\":299:357   */\n      mstore\n        /* \"#utility.yul\":391:398   */\n      0x6970617465000000000000000000000000000000000000000000000000000000\n        /* \"#utility.yul\":386:388   */\n      0x20\n        /* \"#utility.yul\":378:384   */\n      dup3\n        /* \"#utility.yul\":374:389   */\n      add\n        /* \"#utility.yul\":367:399   */\n      mstore\n        /* \"#utility.yul\":182:406   */\n      pop\n      jump\t// out\n        /* \"#utility.yul\":412:778   */\n    tag_84:\n        /* \"#utility.yul\":554:557   */\n      0x00\n        /* \"#utility.yul\":575:642   */\n      tag_107\n        /* \"#utility.yul\":639:641   */\n      0x25\n        /* \"#utility.yul\":634:637   */\n      dup4\n        /* \"#utility.yul\":575:642   */\n      tag_82\n      jump\t// in\n    tag_107:\n        /* \"#utility.yul\":568:642   */\n      swap2\n      pop\n        /* \"#utility.yul\":651:744   */\n      tag_108\n        /* \"#utility.yul\":740:743   */\n      dup3\n        /* \"#utility.yul\":651:744   */\n      tag_83\n      jump\t// in\n    tag_108:\n        /* \"#utility.yul\":769:771   */\n      0x40\n        /* \"#utility.yul\":764:767   */\n      dup3\n        /* \"#utility.yul\":760:772   */\n      add\n        /* \"#utility.yul\":753:772   */\n      swap1\n      pop\n        /* \"#utility.yul\":412:778   */\n      swap2\n      swap1\n      pop\n      jump\t// out\n        /* \"#utility.yul\":784:1203   */\n    tag_12:\n        /* \"#utility.yul\":950:954   */\n      0x00\n        /* \"#utility.yul\":988:990   */\n      0x20\n        /* \"#utility.yul\":977:986   */\n      dup3\n        /* \"#utility.yul\":973:991   */\n      add\n        /* \"#utility.yul\":965:991   */\n      swap1\n      pop\n        /* \"#utility.yul\":1037:1046   */\n      dup2\n        /* \"#utility.yul\":1031:1035   */\n      dup2\n        /* \"#utility.yul\":1027:1047   */\n      sub\n        /* \"#utility.yul\":1023:1024   */\n      0x00\n        /* \"#utility.yul\":1012:1021   */\n      dup4\n        /* \"#utility.yul\":1008:1025   */\n      add\n        /* \"#utility.yul\":1001:1048   */\n      mstore\n        /* \"#utility.yul\":1065:1196   */\n      tag_110\n        /* \"#utility.yul\":1191:1195   */\n      dup2\n        /* \"#utility.yul\":1065:1196   */\n      tag_84\n      jump\t// in\n    tag_110:\n        /* \"#utility.yul\":1057:1196   */\n      swap1\n      pop\n        /* \"#utility.yul\":784:1203   */\n      swap2\n      swap1\n      pop\n      jump\t// out\n        /* \"#utility.yul\":1209:1435   */\n    tag_85:\n        /* \"#utility.yul\":1349:1383   */\n      0x6e6f7420636f727265637420616d756e742c2073686f756c642062652027302e\n        /* \"#utility.yul\":1345:1346   */\n      0x00\n        /* \"#utility.yul\":1337:1343   */\n      dup3\n        /* \"#utility.yul\":1333:1347   */\n      add\n        /* \"#utility.yul\":1326:1384   */\n      mstore\n        /* \"#utility.yul\":1418:1427   */\n      0x3120457468657200000000000000000000000000000000000000000000000000\n        /* \"#utility.yul\":1413:1415   */\n      0x20\n        /* \"#utility.yul\":1405:1411   */\n      dup3\n        /* \"#utility.yul\":1401:1416   */\n      add\n        /* \"#utility.yul\":1394:1428   */\n      mstore\n        /* \"#utility.yul\":1209:1435   */\n      pop\n      jump\t// out\n        /* \"#utility.yul\":1441:1807   */\n    tag_86:\n        /* \"#utility.yul\":1583:1586   */\n      0x00\n        /* \"#utility.yul\":1604:1671   */\n      tag_113\n        /* \"#utility.yul\":1668:1670   */\n      0x27\n        /* \"#utility.yul\":1663:1666   */\n      dup4\n        /* \"#utility.yul\":1604:1671   */\n      tag_82\n      jump\t// in\n    tag_113:\n        /* \"#utility.yul\":1597:1671   */\n      swap2\n      pop\n        /* \"#utility.yul\":1680:1773   */\n      tag_114\n        /* \"#utility.yul\":1769:1772   */\n      dup3\n        /* \"#utility.yul\":1680:1773   */\n      tag_85\n      jump\t// in\n    tag_114:\n        /* \"#utility.yul\":1798:1800   */\n      0x40\n        /* \"#utility.yul\":1793:1796   */\n      dup3\n        /* \"#utility.yul\":1789:1801   */\n      add\n        /* \"#utility.yul\":1782:1801   */\n      swap1\n      pop\n        /* \"#utility.yul\":1441:1807   */\n      swap2\n      swap1\n      pop\n      jump\t// out\n        /* \"#utility.yul\":1813:2232   */\n    tag_15:\n        /* \"#utility.yul\":1979:1983   */\n      0x00\n        /* \"#utility.yul\":2017:2019   */\n      0x20\n        /* \"#utility.yul\":2006:2015   */\n      dup3\n        /* \"#utility.yul\":2002:2020   */\n      add\n        /* \"#utility.yul\":1994:2020   */\n      swap1\n      pop\n        /* \"#utility.yul\":2066:2075   */\n      dup2\n        /* \"#utility.yul\":2060:2064   */\n      dup2\n        /* \"#utility.yul\":2056:2076   */\n      sub\n        /* \"#utility.yul\":2052:2053   */\n      0x00\n        /* \"#utility.yul\":2041:2050   */\n      dup4\n        /* \"#utility.yul\":2037:2054   */\n      add\n        /* \"#utility.yul\":2030:2077   */\n      mstore\n        /* \"#utility.yul\":2094:2225   */\n      tag_116\n        /* \"#utility.yul\":2220:2224   */\n      dup2\n        /* \"#utility.yul\":2094:2225   */\n      tag_86\n      jump\t// in\n    tag_116:\n        /* \"#utility.yul\":2086:2225   */\n      swap1\n      pop\n        /* \"#utility.yul\":1813:2232   */\n      swap2\n      swap1\n      pop\n      jump\t// out\n        /* \"#utility.yul\":2238:2315   */\n    tag_87:\n        /* \"#utility.yul\":2275:2282   */\n      0x00\n        /* \"#utility.yul\":2304:2309   */\n      dup2\n        /* \"#utility.yul\":2293:2309   */\n      swap1\n      pop\n        /* \"#utility.yul\":2238:2315   */\n      swap2\n      swap1\n      pop\n      jump\t// out\n        /* \"#utility.yul\":2321:2439   */\n    tag_88:\n        /* \"#utility.yul\":2408:2432   */\n      tag_119\n        /* \"#utility.yul\":2426:2431   */\n      dup2\n        /* \"#utility.yul\":2408:2432   */\n      tag_87\n      jump\t// in\n    tag_119:\n        /* \"#utility.yul\":2403:2406   */\n      dup3\n        /* \"#utility.yul\":2396:2433   */\n      mstore\n        /* \"#utility.yul\":2321:2439   */\n      pop\n      pop\n      jump\t// out\n        /* \"#utility.yul\":2445:2667   */\n    tag_21:\n        /* \"#utility.yul\":2538:2542   */\n      0x00\n        /* \"#utility.yul\":2576:2578   */\n      0x20\n        /* \"#utility.yul\":2565:2574   */\n      dup3\n        /* \"#utility.yul\":2561:2579   */\n      add\n        /* \"#utility.yul\":2553:2579   */\n      swap1\n      pop\n        /* \"#utility.yul\":2589:2660   */\n      tag_121\n        /* \"#utility.yul\":2657:2658   */\n      0x00\n        /* \"#utility.yul\":2646:2655   */\n      dup4\n        /* \"#utility.yul\":2642:2659   */\n      add\n        /* \"#utility.yul\":2633:2639   */\n      dup5\n        /* \"#utility.yul\":2589:2660   */\n      tag_88\n      jump\t// in\n    tag_121:\n        /* \"#utility.yul\":2445:2667   */\n      swap3\n      swap2\n      pop\n      pop\n      jump\t// out\n        /* \"#utility.yul\":2673:2799   */\n    tag_89:\n        /* \"#utility.yul\":2710:2717   */\n      0x00\n        /* \"#utility.yul\":2750:2792   */\n      0xffffffffffffffffffffffffffffffffffffffff\n        /* \"#utility.yul\":2743:2748   */\n      dup3\n        /* \"#utility.yul\":2739:2793   */\n      and\n        /* \"#utility.yul\":2728:2793   */\n      swap1\n      pop\n        /* \"#utility.yul\":2673:2799   */\n      swap2\n      swap1\n      pop\n      jump\t// out\n        /* \"#utility.yul\":2805:2901   */\n    tag_90:\n        /* \"#utility.yul\":2842:2849   */\n      0x00\n        /* \"#utility.yul\":2871:2895   */\n      tag_124\n        /* \"#utility.yul\":2889:2894   */\n      dup3\n        /* \"#utility.yul\":2871:2895   */\n      tag_89\n      jump\t// in\n    tag_124:\n        /* \"#utility.yul\":2860:2895   */\n      swap1\n      pop\n        /* \"#utility.yul\":2805:2901   */\n      swap2\n      swap1\n      pop\n      jump\t// out\n        /* \"#utility.yul\":2907:3025   */\n    tag_91:\n        /* \"#utility.yul\":2994:3018   */\n      tag_126\n        /* \"#utility.yul\":3012:3017   */\n      dup2\n        /* \"#utility.yul\":2994:3018   */\n      tag_90\n      jump\t// in\n    tag_126:\n        /* \"#utility.yul\":2989:2992   */\n      dup3\n        /* \"#utility.yul\":2982:3019   */\n      mstore\n        /* \"#utility.yul\":2907:3025   */\n      pop\n      pop\n      jump\t// out\n        /* \"#utility.yul\":3031:3253   */\n    tag_26:\n        /* \"#utility.yul\":3124:3128   */\n      0x00\n        /* \"#utility.yul\":3162:3164   */\n      0x20\n        /* \"#utility.yul\":3151:3160   */\n      dup3\n        /* \"#utility.yul\":3147:3165   */\n      add\n        /* \"#utility.yul\":3139:3165   */\n      swap1\n      pop\n        /* \"#utility.yul\":3175:3246   */\n      tag_128\n        /* \"#utility.yul\":3243:3244   */\n      0x00\n        /* \"#utility.yul\":3232:3241   */\n      dup4\n        /* \"#utility.yul\":3228:3245   */\n      add\n        /* \"#utility.yul\":3219:3225   */\n      dup5\n        /* \"#utility.yul\":3175:3246   */\n      tag_91\n      jump\t// in\n    tag_128:\n        /* \"#utility.yul\":3031:3253   */\n      swap3\n      swap2\n      pop\n      pop\n      jump\t// out\n        /* \"#utility.yul\":3340:3457   */\n    tag_93:\n        /* \"#utility.yul\":3449:3450   */\n      0x00\n        /* \"#utility.yul\":3446:3447   */\n      dup1\n        /* \"#utility.yul\":3439:3451   */\n      revert\n        /* \"#utility.yul\":3586:3708   */\n    tag_95:\n        /* \"#utility.yul\":3659:3683   */\n      tag_133\n        /* \"#utility.yul\":3677:3682   */\n      dup2\n        /* \"#utility.yul\":3659:3683   */\n      tag_87\n      jump\t// in\n    tag_133:\n        /* \"#utility.yul\":3652:3657   */\n      dup2\n        /* \"#utility.yul\":3649:3684   */\n      eq\n        /* \"#utility.yul\":3639:3702   */\n      tag_134\n      jumpi\n        /* \"#utility.yul\":3698:3699   */\n      0x00\n        /* \"#utility.yul\":3695:3696   */\n      dup1\n        /* \"#utility.yul\":3688:3700   */\n      revert\n        /* \"#utility.yul\":3639:3702   */\n    tag_134:\n        /* \"#utility.yul\":3586:3708   */\n      pop\n      jump\t// out\n        /* \"#utility.yul\":3714:3853   */\n    tag_96:\n        /* \"#utility.yul\":3760:3765   */\n      0x00\n        /* \"#utility.yul\":3798:3804   */\n      dup2\n        /* \"#utility.yul\":3785:3805   */\n      calldataload\n        /* \"#utility.yul\":3776:3805   */\n      swap1\n      pop\n        /* \"#utility.yul\":3814:3847   */\n      tag_136\n        /* \"#utility.yul\":3841:3846   */\n      dup2\n        /* \"#utility.yul\":3814:3847   */\n      tag_95\n      jump\t// in\n    tag_136:\n        /* \"#utility.yul\":3714:3853   */\n      swap3\n      swap2\n      pop\n      pop\n      jump\t// out\n        /* \"#utility.yul\":3859:4188   */\n    tag_37:\n        /* \"#utility.yul\":3918:3924   */\n      0x00\n        /* \"#utility.yul\":3967:3969   */\n      0x20\n        /* \"#utility.yul\":3955:3964   */\n      dup3\n        /* \"#utility.yul\":3946:3953   */\n      dup5\n        /* \"#utility.yul\":3942:3965   */\n      sub\n        /* \"#utility.yul\":3938:3970   */\n      slt\n        /* \"#utility.yul\":3935:4054   */\n      iszero\n      tag_138\n      jumpi\n        /* \"#utility.yul\":3973:4052   */\n      tag_139\n      tag_93\n      jump\t// in\n    tag_139:\n        /* \"#utility.yul\":3935:4054   */\n    tag_138:\n        /* \"#utility.yul\":4093:4094   */\n      0x00\n        /* \"#utility.yul\":4118:4171   */\n      tag_140\n        /* \"#utility.yul\":4163:4170   */\n      dup5\n        /* \"#utility.yul\":4154:4160   */\n      dup3\n        /* \"#utility.yul\":4143:4152   */\n      dup6\n        /* \"#utility.yul\":4139:4161   */\n      add\n        /* \"#utility.yul\":4118:4171   */\n      tag_96\n      jump\t// in\n    tag_140:\n        /* \"#utility.yul\":4108:4171   */\n      swap2\n      pop\n        /* \"#utility.yul\":4064:4181   */\n      pop\n        /* \"#utility.yul\":3859:4188   */\n      swap3\n      swap2\n      pop\n      pop\n      jump\t// out\n        /* \"#utility.yul\":4194:4298   */\n    tag_97:\n        /* \"#utility.yul\":4239:4246   */\n      0x00\n        /* \"#utility.yul\":4268:4292   */\n      tag_142\n        /* \"#utility.yul\":4286:4291   */\n      dup3\n        /* \"#utility.yul\":4268:4292   */\n      tag_89\n      jump\t// in\n    tag_142:\n        /* \"#utility.yul\":4257:4292   */\n      swap1\n      pop\n        /* \"#utility.yul\":4194:4298   */\n      swap2\n      swap1\n      pop\n      jump\t// out\n        /* \"#utility.yul\":4304:4446   */\n    tag_98:\n        /* \"#utility.yul\":4407:4439   */\n      tag_144\n        /* \"#utility.yul\":4433:4438   */\n      dup2\n        /* \"#utility.yul\":4407:4439   */\n      tag_97\n      jump\t// in\n    tag_144:\n        /* \"#utility.yul\":4402:4405   */\n      dup3\n        /* \"#utility.yul\":4395:4440   */\n      mstore\n        /* \"#utility.yul\":4304:4446   */\n      pop\n      pop\n      jump\t// out\n        /* \"#utility.yul\":4452:4706   */\n    tag_40:\n        /* \"#utility.yul\":4561:4565   */\n      0x00\n        /* \"#utility.yul\":4599:4601   */\n      0x20\n        /* \"#utility.yul\":4588:4597   */\n      dup3\n        /* \"#utility.yul\":4584:4602   */\n      add\n        /* \"#utility.yul\":4576:4602   */\n      swap1\n      pop\n        /* \"#utility.yul\":4612:4699   */\n      tag_146\n        /* \"#utility.yul\":4696:4697   */\n      0x00\n        /* \"#utility.yul\":4685:4694   */\n      dup4\n        /* \"#utility.yul\":4681:4698   */\n      add\n        /* \"#utility.yul\":4672:4678   */\n      dup5\n        /* \"#utility.yul\":4612:4699   */\n      tag_98\n      jump\t// in\n    tag_146:\n        /* \"#utility.yul\":4452:4706   */\n      swap3\n      swap2\n      pop\n      pop\n      jump\t// out\n        /* \"#utility.yul\":4712:4892   */\n    tag_99:\n        /* \"#utility.yul\":4760:4837   */\n      0x4e487b7100000000000000000000000000000000000000000000000000000000\n        /* \"#utility.yul\":4757:4758   */\n      0x00\n        /* \"#utility.yul\":4750:4838   */\n      mstore\n        /* \"#utility.yul\":4857:4861   */\n      0x12\n        /* \"#utility.yul\":4854:4855   */\n      0x04\n        /* \"#utility.yul\":4847:4862   */\n      mstore\n        /* \"#utility.yul\":4881:4885   */\n      0x24\n        /* \"#utility.yul\":4878:4879   */\n      0x00\n        /* \"#utility.yul\":4871:4886   */\n      revert\n        /* \"#utility.yul\":4898:5074   */\n    tag_47:\n        /* \"#utility.yul\":4930:4931   */\n      0x00\n        /* \"#utility.yul\":4947:4967   */\n      tag_149\n        /* \"#utility.yul\":4965:4966   */\n      dup3\n        /* \"#utility.yul\":4947:4967   */\n      tag_87\n      jump\t// in\n    tag_149:\n        /* \"#utility.yul\":4942:4967   */\n      swap2\n      pop\n        /* \"#utility.yul\":4981:5001   */\n      tag_150\n        /* \"#utility.yul\":4999:5000   */\n      dup4\n        /* \"#utility.yul\":4981:5001   */\n      tag_87\n      jump\t// in\n    tag_150:\n        /* \"#utility.yul\":4976:5001   */\n      swap3\n      pop\n        /* \"#utility.yul\":5020:5021   */\n      dup3\n        /* \"#utility.yul\":5010:5045   */\n      tag_151\n      jumpi\n        /* \"#utility.yul\":5025:5043   */\n      tag_152\n      tag_99\n      jump\t// in\n    tag_152:\n        /* \"#utility.yul\":5010:5045   */\n    tag_151:\n        /* \"#utility.yul\":5066:5067   */\n      dup3\n        /* \"#utility.yul\":5063:5064   */\n      dup3\n        /* \"#utility.yul\":5059:5068   */\n      mod\n        /* \"#utility.yul\":5054:5068   */\n      swap1\n      pop\n        /* \"#utility.yul\":4898:5074   */\n      swap3\n      swap2\n      pop\n      pop\n      jump\t// out\n        /* \"#utility.yul\":5080:5260   */\n    tag_50:\n        /* \"#utility.yul\":5128:5205   */\n      0x4e487b7100000000000000000000000000000000000000000000000000000000\n        /* \"#utility.yul\":5125:5126   */\n      0x00\n        /* \"#utility.yul\":5118:5206   */\n      mstore\n        /* \"#utility.yul\":5225:5229   */\n      0x32\n        /* \"#utility.yul\":5222:5223   */\n      0x04\n        /* \"#utility.yul\":5215:5230   */\n      mstore\n        /* \"#utility.yul\":5249:5253   */\n      0x24\n        /* \"#utility.yul\":5246:5247   */\n      0x00\n        /* \"#utility.yul\":5239:5254   */\n      revert\n        /* \"#utility.yul\":5266:5446   */\n    tag_100:\n        /* \"#utility.yul\":5314:5391   */\n      0x4e487b7100000000000000000000000000000000000000000000000000000000\n        /* \"#utility.yul\":5311:5312   */\n      0x00\n        /* \"#utility.yul\":5304:5392   */\n      mstore\n        /* \"#utility.yul\":5411:5415   */\n      0x11\n        /* \"#utility.yul\":5408:5409   */\n      0x04\n        /* \"#utility.yul\":5401:5416   */\n      mstore\n        /* \"#utility.yul\":5435:5439   */\n      0x24\n        /* \"#utility.yul\":5432:5433   */\n      0x00\n        /* \"#utility.yul\":5425:5440   */\n      revert\n        /* \"#utility.yul\":5452:5862   */\n    tag_54:\n        /* \"#utility.yul\":5492:5499   */\n      0x00\n        /* \"#utility.yul\":5515:5535   */\n      tag_156\n        /* \"#utility.yul\":5533:5534   */\n      dup3\n        /* \"#utility.yul\":5515:5535   */\n      tag_87\n      jump\t// in\n    tag_156:\n        /* \"#utility.yul\":5510:5535   */\n      swap2\n      pop\n        /* \"#utility.yul\":5549:5569   */\n      tag_157\n        /* \"#utility.yul\":5567:5568   */\n      dup4\n        /* \"#utility.yul\":5549:5569   */\n      tag_87\n      jump\t// in\n    tag_157:\n        /* \"#utility.yul\":5544:5569   */\n      swap3\n      pop\n        /* \"#utility.yul\":5604:5605   */\n      dup3\n        /* \"#utility.yul\":5601:5602   */\n      dup3\n        /* \"#utility.yul\":5597:5606   */\n      mul\n        /* \"#utility.yul\":5626:5656   */\n      tag_158\n        /* \"#utility.yul\":5644:5655   */\n      dup2\n        /* \"#utility.yul\":5626:5656   */\n      tag_87\n      jump\t// in\n    tag_158:\n        /* \"#utility.yul\":5615:5656   */\n      swap2\n      pop\n        /* \"#utility.yul\":5805:5806   */\n      dup3\n        /* \"#utility.yul\":5796:5803   */\n      dup3\n        /* \"#utility.yul\":5792:5807   */\n      div\n        /* \"#utility.yul\":5789:5790   */\n      dup5\n        /* \"#utility.yul\":5786:5808   */\n      eq\n        /* \"#utility.yul\":5766:5767   */\n      dup4\n        /* \"#utility.yul\":5759:5768   */\n      iszero\n        /* \"#utility.yul\":5739:5822   */\n      or\n        /* \"#utility.yul\":5716:5855   */\n      tag_159\n      jumpi\n        /* \"#utility.yul\":5835:5853   */\n      tag_160\n      tag_100\n      jump\t// in\n    tag_160:\n        /* \"#utility.yul\":5716:5855   */\n    tag_159:\n        /* \"#utility.yul\":5500:5862   */\n      pop\n        /* \"#utility.yul\":5452:5862   */\n      swap3\n      swap2\n      pop\n      pop\n      jump\t// out\n        /* \"#utility.yul\":5868:6053   */\n    tag_56:\n        /* \"#utility.yul\":5908:5909   */\n      0x00\n        /* \"#utility.yul\":5925:5945   */\n      tag_162\n        /* \"#utility.yul\":5943:5944   */\n      dup3\n        /* \"#utility.yul\":5925:5945   */\n      tag_87\n      jump\t// in\n    tag_162:\n        /* \"#utility.yul\":5920:5945   */\n      swap2\n      pop\n        /* \"#utility.yul\":5959:5979   */\n      tag_163\n        /* \"#utility.yul\":5977:5978   */\n      dup4\n        /* \"#utility.yul\":5959:5979   */\n      tag_87\n      jump\t// in\n    tag_163:\n        /* \"#utility.yul\":5954:5979   */\n      swap3\n      pop\n        /* \"#utility.yul\":5998:5999   */\n      dup3\n        /* \"#utility.yul\":5988:6023   */\n      tag_164\n      jumpi\n        /* \"#utility.yul\":6003:6021   */\n      tag_165\n      tag_99\n      jump\t// in\n    tag_165:\n        /* \"#utility.yul\":5988:6023   */\n    tag_164:\n        /* \"#utility.yul\":6045:6046   */\n      dup3\n        /* \"#utility.yul\":6042:6043   */\n      dup3\n        /* \"#utility.yul\":6038:6047   */\n      div\n        /* \"#utility.yul\":6033:6047   */\n      swap1\n      pop\n        /* \"#utility.yul\":5868:6053   */\n      swap3\n      swap2\n      pop\n      pop\n      jump\t// out\n        /* \"#utility.yul\":6059:6239   */\n    tag_66:\n        /* \"#utility.yul\":6107:6184   */\n      0x4e487b7100000000000000000000000000000000000000000000000000000000\n        /* \"#utility.yul\":6104:6105   */\n      0x00\n        /* \"#utility.yul\":6097:6185   */\n      mstore\n        /* \"#utility.yul\":6204:6208   */\n      0x41\n        /* \"#utility.yul\":6201:6202   */\n      0x04\n        /* \"#utility.yul\":6194:6209   */\n      mstore\n        /* \"#utility.yul\":6228:6232   */\n      0x24\n        /* \"#utility.yul\":6225:6226   */\n      0x00\n        /* \"#utility.yul\":6218:6233   */\n      revert\n        /* \"#utility.yul\":6245:6324   */\n    tag_101:\n        /* \"#utility.yul\":6284:6291   */\n      0x00\n        /* \"#utility.yul\":6313:6318   */\n      dup2\n        /* \"#utility.yul\":6302:6318   */\n      swap1\n      pop\n        /* \"#utility.yul\":6245:6324   */\n      swap2\n      swap1\n      pop\n      jump\t// out\n        /* \"#utility.yul\":6330:6487   */\n    tag_102:\n        /* \"#utility.yul\":6435:6480   */\n      tag_169\n        /* \"#utility.yul\":6455:6479   */\n      tag_170\n        /* \"#utility.yul\":6473:6478   */\n      dup3\n        /* \"#utility.yul\":6455:6479   */\n      tag_87\n      jump\t// in\n    tag_170:\n        /* \"#utility.yul\":6435:6480   */\n      tag_101\n      jump\t// in\n    tag_169:\n        /* \"#utility.yul\":6430:6433   */\n      dup3\n        /* \"#utility.yul\":6423:6481   */\n      mstore\n        /* \"#utility.yul\":6330:6487   */\n      pop\n      pop\n      jump\t// out\n        /* \"#utility.yul\":6493:7031   */\n    tag_72:\n        /* \"#utility.yul\":6661:6664   */\n      0x00\n        /* \"#utility.yul\":6676:6751   */\n      tag_172\n        /* \"#utility.yul\":6747:6750   */\n      dup3\n        /* \"#utility.yul\":6738:6744   */\n      dup7\n        /* \"#utility.yul\":6676:6751   */\n      tag_102\n      jump\t// in\n    tag_172:\n        /* \"#utility.yul\":6776:6778   */\n      0x20\n        /* \"#utility.yul\":6771:6774   */\n      dup3\n        /* \"#utility.yul\":6767:6779   */\n      add\n        /* \"#utility.yul\":6760:6779   */\n      swap2\n      pop\n        /* \"#utility.yul\":6789:6864   */\n      tag_173\n        /* \"#utility.yul\":6860:6863   */\n      dup3\n        /* \"#utility.yul\":6851:6857   */\n      dup6\n        /* \"#utility.yul\":6789:6864   */\n      tag_102\n      jump\t// in\n    tag_173:\n        /* \"#utility.yul\":6889:6891   */\n      0x20\n        /* \"#utility.yul\":6884:6887   */\n      dup3\n        /* \"#utility.yul\":6880:6892   */\n      add\n        /* \"#utility.yul\":6873:6892   */\n      swap2\n      pop\n        /* \"#utility.yul\":6902:6977   */\n      tag_174\n        /* \"#utility.yul\":6973:6976   */\n      dup3\n        /* \"#utility.yul\":6964:6970   */\n      dup5\n        /* \"#utility.yul\":6902:6977   */\n      tag_102\n      jump\t// in\n    tag_174:\n        /* \"#utility.yul\":7002:7004   */\n      0x20\n        /* \"#utility.yul\":6997:7000   */\n      dup3\n        /* \"#utility.yul\":6993:7005   */\n      add\n        /* \"#utility.yul\":6986:7005   */\n      swap2\n      pop\n        /* \"#utility.yul\":7022:7025   */\n      dup2\n        /* \"#utility.yul\":7015:7025   */\n      swap1\n      pop\n        /* \"#utility.yul\":6493:7031   */\n      swap5\n      swap4\n      pop\n      pop\n      pop\n      pop\n      jump\t// out\n\n    auxdata: 0xa26469706673582212204fc7697ef9bdf85be6d903570910e99541963859f281dffeb3b2e3a1a12dbab564736f6c634300081a0033\n}\n",
				"bytecode": {
					"linkReferences": {},
					"object": "6080604052348015600e575f80fd5b503360015f6101000a81548173ffffffffffffffffffffffffffffffffffffffff021916908373ffffffffffffffffffffffffffffffffffffffff1602179055505f60015f9054906101000a900473ffffffffffffffffffffffffffffffffffffffff16908060018154018082558091505060019003905f5260205f20015f9091909190916101000a81548173ffffffffffffffffffffffffffffffffffffffff021916908373ffffffffffffffffffffffffffffffffffffffff1602179055506109e5806100dc5f395ff3fe60806040526004361061004d575f3560e01c806312065fe01461018f578063481c6a75146101b95780635d495aea146101e35780635ec01e4d146101f9578063f71d96cb146102235761018b565b3661018b5760015f9054906101000a900473ffffffffffffffffffffffffffffffffffffffff1673ffffffffffffffffffffffffffffffffffffffff163373ffffffffffffffffffffffffffffffffffffffff16036100e1576040517f08c379a00000000000000000000000000000000000000000000000000000000081526004016100d890610637565b60405180910390fd5b67016345785d8a0000341461012b576040517f08c379a0000000000000000000000000000000000000000000000000000000008152600401610122906106c5565b60405180910390fd5b5f33908060018154018082558091505060019003905f5260205f20015f9091909190916101000a81548173ffffffffffffffffffffffffffffffffffffffff021916908373ffffffffffffffffffffffffffffffffffffffff1602179055005b5f80fd5b34801561019a575f80fd5b506101a361025f565b6040516101b091906106fb565b60405180910390f35b3480156101c4575f80fd5b506101cd6102be565b6040516101da9190610753565b60405180910390f35b3480156101ee575f80fd5b506101f76102e3565b005b348015610204575f80fd5b5061020d6104a4565b60405161021a91906106fb565b60405180910390f35b34801561022e575f80fd5b506102496004803603810190610244919061079a565b6104db565b60405161025691906107e5565b60405180910390f35b5f60015f9054906101000a900473ffffffffffffffffffffffffffffffffffffffff1673ffffffffffffffffffffffffffffffffffffffff163373ffffffffffffffffffffffffffffffffffffffff16146102b8575f80fd5b47905090565b60015f9054906101000a900473ffffffffffffffffffffffffffffffffffffffff1681565b600a5f8054905010156102f4575f80fd5b5f6102fd6104a4565b90505f805f8054905083610311919061082b565b90505f81815481106103265761032561085b565b5b905f5260205f20015f9054906101000a900473ffffffffffffffffffffffffffffffffffffffff1691505f6064600a61035d61025f565b61036791906108b5565b61037191906108f6565b90505f6064605a61038061025f565b61038a91906108b5565b61039491906108f6565b90508373ffffffffffffffffffffffffffffffffffffffff166108fc8290811502906040515f60405180830381858888f193505050501580156103d9573d5f803e3d5ffd5b5060015f9054906101000a900473ffffffffffffffffffffffffffffffffffffffff1673ffffffffffffffffffffffffffffffffffffffff166108fc8390811502906040515f60405180830381858888f1935050505015801561043e573d5f803e3d5ffd5b505f67ffffffffffffffff81111561045957610458610926565b5b6040519080825280602002602001820160405280156104875781602001602082028036833780820191505090505b505f908051906020019061049c929190610515565b505050505050565b5f44425f805490506040516020016104be93929190610973565b604051602081830303815290604052805190602001205f1c905090565b5f81815481106104e9575f80fd5b905f5260205f20015f915054906101000a900473ffffffffffffffffffffffffffffffffffffffff1681565b828054828255905f5260205f2090810192821561058b579160200282015b8281111561058a578251825f6101000a81548173ffffffffffffffffffffffffffffffffffffffff021916908373ffffffffffffffffffffffffffffffffffffffff16021790555091602001919060010190610533565b5b509050610598919061059c565b5090565b5b808211156105b3575f815f90555060010161059d565b5090565b5f82825260208201905092915050565b7f4d616e61676572206973206e6f7420616c6c6f77656420746f207061727469635f8201527f6970617465000000000000000000000000000000000000000000000000000000602082015250565b5f6106216025836105b7565b915061062c826105c7565b604082019050919050565b5f6020820190508181035f83015261064e81610615565b9050919050565b7f6e6f7420636f727265637420616d756e742c2073686f756c642062652027302e5f8201527f3120457468657200000000000000000000000000000000000000000000000000602082015250565b5f6106af6027836105b7565b91506106ba82610655565b604082019050919050565b5f6020820190508181035f8301526106dc816106a3565b9050919050565b5f819050919050565b6106f5816106e3565b82525050565b5f60208201905061070e5f8301846106ec565b92915050565b5f73ffffffffffffffffffffffffffffffffffffffff82169050919050565b5f61073d82610714565b9050919050565b61074d81610733565b82525050565b5f6020820190506107665f830184610744565b92915050565b5f80fd5b610779816106e3565b8114610783575f80fd5b50565b5f8135905061079481610770565b92915050565b5f602082840312156107af576107ae61076c565b5b5f6107bc84828501610786565b91505092915050565b5f6107cf82610714565b9050919050565b6107df816107c5565b82525050565b5f6020820190506107f85f8301846107d6565b92915050565b7f4e487b71000000000000000000000000000000000000000000000000000000005f52601260045260245ffd5b5f610835826106e3565b9150610840836106e3565b9250826108505761084f6107fe565b5b828206905092915050565b7f4e487b71000000000000000000000000000000000000000000000000000000005f52603260045260245ffd5b7f4e487b71000000000000000000000000000000000000000000000000000000005f52601160045260245ffd5b5f6108bf826106e3565b91506108ca836106e3565b92508282026108d8816106e3565b915082820484148315176108ef576108ee610888565b5b5092915050565b5f610900826106e3565b915061090b836106e3565b92508261091b5761091a6107fe565b5b828204905092915050565b7f4e487b71000000000000000000000000000000000000000000000000000000005f52604160045260245ffd5b5f819050919050565b61096d610968826106e3565b610953565b82525050565b5f61097e828661095c565b60208201915061098e828561095c565b60208201915061099e828461095c565b60208201915081905094935050505056fea26469706673582212204fc7697ef9bdf85be6d903570910e99541963859f281dffeb3b2e3a1a12dbab564736f6c634300081a0033",
					"opcodes": "PUSH1 0x80 PUSH1 0x40 MSTORE CALLVALUE DUP1 ISZERO PUSH1 0xE JUMPI PUSH0 DUP1 REVERT JUMPDEST POP CALLER PUSH1 0x1 PUSH0 PUSH2 0x100 EXP DUP2 SLOAD DUP2 PUSH20 0xFFFFFFFFFFFFFFFFFFFFFFFFFFFFFFFFFFFFFFFF MUL NOT AND SWAP1 DUP4 PUSH20 0xFFFFFFFFFFFFFFFFFFFFFFFFFFFFFFFFFFFFFFFF AND MUL OR SWAP1 SSTORE POP PUSH0 PUSH1 0x1 PUSH0 SWAP1 SLOAD SWAP1 PUSH2 0x100 EXP SWAP1 DIV PUSH20 0xFFFFFFFFFFFFFFFFFFFFFFFFFFFFFFFFFFFFFFFF AND SWAP1 DUP1 PUSH1 0x1 DUP2 SLOAD ADD DUP1 DUP3 SSTORE DUP1 SWAP2 POP POP PUSH1 0x1 SWAP1 SUB SWAP1 PUSH0 MSTORE PUSH1 0x20 PUSH0 KECCAK256 ADD PUSH0 SWAP1 SWAP2 SWAP1 SWAP2 SWAP1 SWAP2 PUSH2 0x100 EXP DUP2 SLOAD DUP2 PUSH20 0xFFFFFFFFFFFFFFFFFFFFFFFFFFFFFFFFFFFFFFFF MUL NOT AND SWAP1 DUP4 PUSH20 0xFFFFFFFFFFFFFFFFFFFFFFFFFFFFFFFFFFFFFFFF AND MUL OR SWAP1 SSTORE POP PUSH2 0x9E5 DUP1 PUSH2 0xDC PUSH0 CODECOPY PUSH0 RETURN INVALID PUSH1 0x80 PUSH1 0x40 MSTORE PUSH1 0x4 CALLDATASIZE LT PUSH2 0x4D JUMPI PUSH0 CALLDATALOAD PUSH1 0xE0 SHR DUP1 PUSH4 0x12065FE0 EQ PUSH2 0x18F JUMPI DUP1 PUSH4 0x481C6A75 EQ PUSH2 0x1B9 JUMPI DUP1 PUSH4 0x5D495AEA EQ PUSH2 0x1E3 JUMPI DUP1 PUSH4 0x5EC01E4D EQ PUSH2 0x1F9 JUMPI DUP1 PUSH4 0xF71D96CB EQ PUSH2 0x223 JUMPI PUSH2 0x18B JUMP JUMPDEST CALLDATASIZE PUSH2 0x18B JUMPI PUSH1 0x1 PUSH0 SWAP1 SLOAD SWAP1 PUSH2 0x100 EXP SWAP1 DIV PUSH20 0xFFFFFFFFFFFFFFFFFFFFFFFFFFFFFFFFFFFFFFFF AND PUSH20 0xFFFFFFFFFFFFFFFFFFFFFFFFFFFFFFFFFFFFFFFF AND CALLER PUSH20 0xFFFFFFFFFFFFFFFFFFFFFFFFFFFFFFFFFFFFFFFF AND SUB PUSH2 0xE1 JUMPI PUSH1 0x40 MLOAD PUSH32 0x8C379A000000000000000000000000000000000000000000000000000000000 DUP2 MSTORE PUSH1 0x4 ADD PUSH2 0xD8 SWAP1 PUSH2 0x637 JUMP JUMPDEST PUSH1 0x40 MLOAD DUP1 SWAP2 SUB SWAP1 REVERT JUMPDEST PUSH8 0x16345785D8A0000 CALLVALUE EQ PUSH2 0x12B JUMPI PUSH1 0x40 MLOAD PUSH32 0x8C379A000000000000000000000000000000000000000000000000000000000 DUP2 MSTORE PUSH1 0x4 ADD PUSH2 0x122 SWAP1 PUSH2 0x6C5 JUMP JUMPDEST PUSH1 0x40 MLOAD DUP1 SWAP2 SUB SWAP1 REVERT JUMPDEST PUSH0 CALLER SWAP1 DUP1 PUSH1 0x1 DUP2 SLOAD ADD DUP1 DUP3 SSTORE DUP1 SWAP2 POP POP PUSH1 0x1 SWAP1 SUB SWAP1 PUSH0 MSTORE PUSH1 0x20 PUSH0 KECCAK256 ADD PUSH0 SWAP1 SWAP2 SWAP1 SWAP2 SWAP1 SWAP2 PUSH2 0x100 EXP DUP2 SLOAD DUP2 PUSH20 0xFFFFFFFFFFFFFFFFFFFFFFFFFFFFFFFFFFFFFFFF MUL NOT AND SWAP1 DUP4 PUSH20 0xFFFFFFFFFFFFFFFFFFFFFFFFFFFFFFFFFFFFFFFF AND MUL OR SWAP1 SSTORE STOP JUMPDEST PUSH0 DUP1 REVERT JUMPDEST CALLVALUE DUP1 ISZERO PUSH2 0x19A JUMPI PUSH0 DUP1 REVERT JUMPDEST POP PUSH2 0x1A3 PUSH2 0x25F JUMP JUMPDEST PUSH1 0x40 MLOAD PUSH2 0x1B0 SWAP2 SWAP1 PUSH2 0x6FB JUMP JUMPDEST PUSH1 0x40 MLOAD DUP1 SWAP2 SUB SWAP1 RETURN JUMPDEST CALLVALUE DUP1 ISZERO PUSH2 0x1C4 JUMPI PUSH0 DUP1 REVERT JUMPDEST POP PUSH2 0x1CD PUSH2 0x2BE JUMP JUMPDEST PUSH1 0x40 MLOAD PUSH2 0x1DA SWAP2 SWAP1 PUSH2 0x753 JUMP JUMPDEST PUSH1 0x40 MLOAD DUP1 SWAP2 SUB SWAP1 RETURN JUMPDEST CALLVALUE DUP1 ISZERO PUSH2 0x1EE JUMPI PUSH0 DUP1 REVERT JUMPDEST POP PUSH2 0x1F7 PUSH2 0x2E3 JUMP JUMPDEST STOP JUMPDEST CALLVALUE DUP1 ISZERO PUSH2 0x204 JUMPI PUSH0 DUP1 REVERT JUMPDEST POP PUSH2 0x20D PUSH2 0x4A4 JUMP JUMPDEST PUSH1 0x40 MLOAD PUSH2 0x21A SWAP2 SWAP1 PUSH2 0x6FB JUMP JUMPDEST PUSH1 0x40 MLOAD DUP1 SWAP2 SUB SWAP1 RETURN JUMPDEST CALLVALUE DUP1 ISZERO PUSH2 0x22E JUMPI PUSH0 DUP1 REVERT JUMPDEST POP PUSH2 0x249 PUSH1 0x4 DUP1 CALLDATASIZE SUB DUP2 ADD SWAP1 PUSH2 0x244 SWAP2 SWAP1 PUSH2 0x79A JUMP JUMPDEST PUSH2 0x4DB JUMP JUMPDEST PUSH1 0x40 MLOAD PUSH2 0x256 SWAP2 SWAP1 PUSH2 0x7E5 JUMP JUMPDEST PUSH1 0x40 MLOAD DUP1 SWAP2 SUB SWAP1 RETURN JUMPDEST PUSH0 PUSH1 0x1 PUSH0 SWAP1 SLOAD SWAP1 PUSH2 0x100 EXP SWAP1 DIV PUSH20 0xFFFFFFFFFFFFFFFFFFFFFFFFFFFFFFFFFFFFFFFF AND PUSH20 0xFFFFFFFFFFFFFFFFFFFFFFFFFFFFFFFFFFFFFFFF AND CALLER PUSH20 0xFFFFFFFFFFFFFFFFFFFFFFFFFFFFFFFFFFFFFFFF AND EQ PUSH2 0x2B8 JUMPI PUSH0 DUP1 REVERT JUMPDEST SELFBALANCE SWAP1 POP SWAP1 JUMP JUMPDEST PUSH1 0x1 PUSH0 SWAP1 SLOAD SWAP1 PUSH2 0x100 EXP SWAP1 DIV PUSH20 0xFFFFFFFFFFFFFFFFFFFFFFFFFFFFFFFFFFFFFFFF AND DUP2 JUMP JUMPDEST PUSH1 0xA PUSH0 DUP1 SLOAD SWAP1 POP LT ISZERO PUSH2 0x2F4 JUMPI PUSH0 DUP1 REVERT JUMPDEST PUSH0 PUSH2 0x2FD PUSH2 0x4A4 JUMP JUMPDEST SWAP1 POP PUSH0 DUP1 PUSH0 DUP1 SLOAD SWAP1 POP DUP4 PUSH2 0x311 SWAP2 SWAP1 PUSH2 0x82B JUMP JUMPDEST SWAP1 POP PUSH0 DUP2 DUP2 SLOAD DUP2 LT PUSH2 0x326 JUMPI PUSH2 0x325 PUSH2 0x85B JUMP JUMPDEST JUMPDEST SWAP1 PUSH0 MSTORE PUSH1 0x20 PUSH0 KECCAK256 ADD PUSH0 SWAP1 SLOAD SWAP1 PUSH2 0x100 EXP SWAP1 DIV PUSH20 0xFFFFFFFFFFFFFFFFFFFFFFFFFFFFFFFFFFFFFFFF AND SWAP2 POP PUSH0 PUSH1 0x64 PUSH1 0xA PUSH2 0x35D PUSH2 0x25F JUMP JUMPDEST PUSH2 0x367 SWAP2 SWAP1 PUSH2 0x8B5 JUMP JUMPDEST PUSH2 0x371 SWAP2 SWAP1 PUSH2 0x8F6 JUMP JUMPDEST SWAP1 POP PUSH0 PUSH1 0x64 PUSH1 0x5A PUSH2 0x380 PUSH2 0x25F JUMP JUMPDEST PUSH2 0x38A SWAP2 SWAP1 PUSH2 0x8B5 JUMP JUMPDEST PUSH2 0x394 SWAP2 SWAP1 PUSH2 0x8F6 JUMP JUMPDEST SWAP1 POP DUP4 PUSH20 0xFFFFFFFFFFFFFFFFFFFFFFFFFFFFFFFFFFFFFFFF AND PUSH2 0x8FC DUP3 SWAP1 DUP2 ISZERO MUL SWAP1 PUSH1 0x40 MLOAD PUSH0 PUSH1 0x40 MLOAD DUP1 DUP4 SUB DUP2 DUP6 DUP9 DUP9 CALL SWAP4 POP POP POP POP ISZERO DUP1 ISZERO PUSH2 0x3D9 JUMPI RETURNDATASIZE PUSH0 DUP1 RETURNDATACOPY RETURNDATASIZE PUSH0 REVERT JUMPDEST POP PUSH1 0x1 PUSH0 SWAP1 SLOAD SWAP1 PUSH2 0x100 EXP SWAP1 DIV PUSH20 0xFFFFFFFFFFFFFFFFFFFFFFFFFFFFFFFFFFFFFFFF AND PUSH20 0xFFFFFFFFFFFFFFFFFFFFFFFFFFFFFFFFFFFFFFFF AND PUSH2 0x8FC DUP4 SWAP1 DUP2 ISZERO MUL SWAP1 PUSH1 0x40 MLOAD PUSH0 PUSH1 0x40 MLOAD DUP1 DUP4 SUB DUP2 DUP6 DUP9 DUP9 CALL SWAP4 POP POP POP POP ISZERO DUP1 ISZERO PUSH2 0x43E JUMPI RETURNDATASIZE PUSH0 DUP1 RETURNDATACOPY RETURNDATASIZE PUSH0 REVERT JUMPDEST POP PUSH0 PUSH8 0xFFFFFFFFFFFFFFFF DUP2 GT ISZERO PUSH2 0x459 JUMPI PUSH2 0x458 PUSH2 0x926 JUMP JUMPDEST JUMPDEST PUSH1 0x40 MLOAD SWAP1 DUP1 DUP3 MSTORE DUP1 PUSH1 0x20 MUL PUSH1 0x20 ADD DUP3 ADD PUSH1 0x40 MSTORE DUP1 ISZERO PUSH2 0x487 JUMPI DUP2 PUSH1 0x20 ADD PUSH1 0x20 DUP3 MUL DUP1 CALLDATASIZE DUP4 CALLDATACOPY DUP1 DUP3 ADD SWAP2 POP POP SWAP1 POP JUMPDEST POP PUSH0 SWAP1 DUP1 MLOAD SWAP1 PUSH1 0x20 ADD SWAP1 PUSH2 0x49C SWAP3 SWAP2 SWAP1 PUSH2 0x515 JUMP JUMPDEST POP POP POP POP POP POP JUMP JUMPDEST PUSH0 PREVRANDAO TIMESTAMP PUSH0 DUP1 SLOAD SWAP1 POP PUSH1 0x40 MLOAD PUSH1 0x20 ADD PUSH2 0x4BE SWAP4 SWAP3 SWAP2 SWAP1 PUSH2 0x973 JUMP JUMPDEST PUSH1 0x40 MLOAD PUSH1 0x20 DUP2 DUP4 SUB SUB DUP2 MSTORE SWAP1 PUSH1 0x40 MSTORE DUP1 MLOAD SWAP1 PUSH1 0x20 ADD KECCAK256 PUSH0 SHR SWAP1 POP SWAP1 JUMP JUMPDEST PUSH0 DUP2 DUP2 SLOAD DUP2 LT PUSH2 0x4E9 JUMPI PUSH0 DUP1 REVERT JUMPDEST SWAP1 PUSH0 MSTORE PUSH1 0x20 PUSH0 KECCAK256 ADD PUSH0 SWAP2 POP SLOAD SWAP1 PUSH2 0x100 EXP SWAP1 DIV PUSH20 0xFFFFFFFFFFFFFFFFFFFFFFFFFFFFFFFFFFFFFFFF AND DUP2 JUMP JUMPDEST DUP3 DUP1 SLOAD DUP3 DUP3 SSTORE SWAP1 PUSH0 MSTORE PUSH1 0x20 PUSH0 KECCAK256 SWAP1 DUP2 ADD SWAP3 DUP3 ISZERO PUSH2 0x58B JUMPI SWAP2 PUSH1 0x20 MUL DUP3 ADD JUMPDEST DUP3 DUP2 GT ISZERO PUSH2 0x58A JUMPI DUP3 MLOAD DUP3 PUSH0 PUSH2 0x100 EXP DUP2 SLOAD DUP2 PUSH20 0xFFFFFFFFFFFFFFFFFFFFFFFFFFFFFFFFFFFFFFFF MUL NOT AND SWAP1 DUP4 PUSH20 0xFFFFFFFFFFFFFFFFFFFFFFFFFFFFFFFFFFFFFFFF AND MUL OR SWAP1 SSTORE POP SWAP2 PUSH1 0x20 ADD SWAP2 SWAP1 PUSH1 0x1 ADD SWAP1 PUSH2 0x533 JUMP JUMPDEST JUMPDEST POP SWAP1 POP PUSH2 0x598 SWAP2 SWAP1 PUSH2 0x59C JUMP JUMPDEST POP SWAP1 JUMP JUMPDEST JUMPDEST DUP1 DUP3 GT ISZERO PUSH2 0x5B3 JUMPI PUSH0 DUP2 PUSH0 SWAP1 SSTORE POP PUSH1 0x1 ADD PUSH2 0x59D JUMP JUMPDEST POP SWAP1 JUMP JUMPDEST PUSH0 DUP3 DUP3 MSTORE PUSH1 0x20 DUP3 ADD SWAP1 POP SWAP3 SWAP2 POP POP JUMP JUMPDEST PUSH32 0x4D616E61676572206973206E6F7420616C6C6F77656420746F20706172746963 PUSH0 DUP3 ADD MSTORE PUSH32 0x6970617465000000000000000000000000000000000000000000000000000000 PUSH1 0x20 DUP3 ADD MSTORE POP JUMP JUMPDEST PUSH0 PUSH2 0x621 PUSH1 0x25 DUP4 PUSH2 0x5B7 JUMP JUMPDEST SWAP2 POP PUSH2 0x62C DUP3 PUSH2 0x5C7 JUMP JUMPDEST PUSH1 0x40 DUP3 ADD SWAP1 POP SWAP2 SWAP1 POP JUMP JUMPDEST PUSH0 PUSH1 0x20 DUP3 ADD SWAP1 POP DUP2 DUP2 SUB PUSH0 DUP4 ADD MSTORE PUSH2 0x64E DUP2 PUSH2 0x615 JUMP JUMPDEST SWAP1 POP SWAP2 SWAP1 POP JUMP JUMPDEST PUSH32 0x6E6F7420636F727265637420616D756E742C2073686F756C642062652027302E PUSH0 DUP3 ADD MSTORE PUSH32 0x3120457468657200000000000000000000000000000000000000000000000000 PUSH1 0x20 DUP3 ADD MSTORE POP JUMP JUMPDEST PUSH0 PUSH2 0x6AF PUSH1 0x27 DUP4 PUSH2 0x5B7 JUMP JUMPDEST SWAP2 POP PUSH2 0x6BA DUP3 PUSH2 0x655 JUMP JUMPDEST PUSH1 0x40 DUP3 ADD SWAP1 POP SWAP2 SWAP1 POP JUMP JUMPDEST PUSH0 PUSH1 0x20 DUP3 ADD SWAP1 POP DUP2 DUP2 SUB PUSH0 DUP4 ADD MSTORE PUSH2 0x6DC DUP2 PUSH2 0x6A3 JUMP JUMPDEST SWAP1 POP SWAP2 SWAP1 POP JUMP JUMPDEST PUSH0 DUP2 SWAP1 POP SWAP2 SWAP1 POP JUMP JUMPDEST PUSH2 0x6F5 DUP2 PUSH2 0x6E3 JUMP JUMPDEST DUP3 MSTORE POP POP JUMP JUMPDEST PUSH0 PUSH1 0x20 DUP3 ADD SWAP1 POP PUSH2 0x70E PUSH0 DUP4 ADD DUP5 PUSH2 0x6EC JUMP JUMPDEST SWAP3 SWAP2 POP POP JUMP JUMPDEST PUSH0 PUSH20 0xFFFFFFFFFFFFFFFFFFFFFFFFFFFFFFFFFFFFFFFF DUP3 AND SWAP1 POP SWAP2 SWAP1 POP JUMP JUMPDEST PUSH0 PUSH2 0x73D DUP3 PUSH2 0x714 JUMP JUMPDEST SWAP1 POP SWAP2 SWAP1 POP JUMP JUMPDEST PUSH2 0x74D DUP2 PUSH2 0x733 JUMP JUMPDEST DUP3 MSTORE POP POP JUMP JUMPDEST PUSH0 PUSH1 0x20 DUP3 ADD SWAP1 POP PUSH2 0x766 PUSH0 DUP4 ADD DUP5 PUSH2 0x744 JUMP JUMPDEST SWAP3 SWAP2 POP POP JUMP JUMPDEST PUSH0 DUP1 REVERT JUMPDEST PUSH2 0x779 DUP2 PUSH2 0x6E3 JUMP JUMPDEST DUP2 EQ PUSH2 0x783 JUMPI PUSH0 DUP1 REVERT JUMPDEST POP JUMP JUMPDEST PUSH0 DUP2 CALLDATALOAD SWAP1 POP PUSH2 0x794 DUP2 PUSH2 0x770 JUMP JUMPDEST SWAP3 SWAP2 POP POP JUMP JUMPDEST PUSH0 PUSH1 0x20 DUP3 DUP5 SUB SLT ISZERO PUSH2 0x7AF JUMPI PUSH2 0x7AE PUSH2 0x76C JUMP JUMPDEST JUMPDEST PUSH0 PUSH2 0x7BC DUP5 DUP3 DUP6 ADD PUSH2 0x786 JUMP JUMPDEST SWAP2 POP POP SWAP3 SWAP2 POP POP JUMP JUMPDEST PUSH0 PUSH2 0x7CF DUP3 PUSH2 0x714 JUMP JUMPDEST SWAP1 POP SWAP2 SWAP1 POP JUMP JUMPDEST PUSH2 0x7DF DUP2 PUSH2 0x7C5 JUMP JUMPDEST DUP3 MSTORE POP POP JUMP JUMPDEST PUSH0 PUSH1 0x20 DUP3 ADD SWAP1 POP PUSH2 0x7F8 PUSH0 DUP4 ADD DUP5 PUSH2 0x7D6 JUMP JUMPDEST SWAP3 SWAP2 POP POP JUMP JUMPDEST PUSH32 0x4E487B7100000000000000000000000000000000000000000000000000000000 PUSH0 MSTORE PUSH1 0x12 PUSH1 0x4 MSTORE PUSH1 0x24 PUSH0 REVERT JUMPDEST PUSH0 PUSH2 0x835 DUP3 PUSH2 0x6E3 JUMP JUMPDEST SWAP2 POP PUSH2 0x840 DUP4 PUSH2 0x6E3 JUMP JUMPDEST SWAP3 POP DUP3 PUSH2 0x850 JUMPI PUSH2 0x84F PUSH2 0x7FE JUMP JUMPDEST JUMPDEST DUP3 DUP3 MOD SWAP1 POP SWAP3 SWAP2 POP POP JUMP JUMPDEST PUSH32 0x4E487B7100000000000000000000000000000000000000000000000000000000 PUSH0 MSTORE PUSH1 0x32 PUSH1 0x4 MSTORE PUSH1 0x24 PUSH0 REVERT JUMPDEST PUSH32 0x4E487B7100000000000000000000000000000000000000000000000000000000 PUSH0 MSTORE PUSH1 0x11 PUSH1 0x4 MSTORE PUSH1 0x24 PUSH0 REVERT JUMPDEST PUSH0 PUSH2 0x8BF DUP3 PUSH2 0x6E3 JUMP JUMPDEST SWAP2 POP PUSH2 0x8CA DUP4 PUSH2 0x6E3 JUMP JUMPDEST SWAP3 POP DUP3 DUP3 MUL PUSH2 0x8D8 DUP2 PUSH2 0x6E3 JUMP JUMPDEST SWAP2 POP DUP3 DUP3 DIV DUP5 EQ DUP4 ISZERO OR PUSH2 0x8EF JUMPI PUSH2 0x8EE PUSH2 0x888 JUMP JUMPDEST JUMPDEST POP SWAP3 SWAP2 POP POP JUMP JUMPDEST PUSH0 PUSH2 0x900 DUP3 PUSH2 0x6E3 JUMP JUMPDEST SWAP2 POP PUSH2 0x90B DUP4 PUSH2 0x6E3 JUMP JUMPDEST SWAP3 POP DUP3 PUSH2 0x91B JUMPI PUSH2 0x91A PUSH2 0x7FE JUMP JUMPDEST JUMPDEST DUP3 DUP3 DIV SWAP1 POP SWAP3 SWAP2 POP POP JUMP JUMPDEST PUSH32 0x4E487B7100000000000000000000000000000000000000000000000000000000 PUSH0 MSTORE PUSH1 0x41 PUSH1 0x4 MSTORE PUSH1 0x24 PUSH0 REVERT JUMPDEST PUSH0 DUP2 SWAP1 POP SWAP2 SWAP1 POP JUMP JUMPDEST PUSH2 0x96D PUSH2 0x968 DUP3 PUSH2 0x6E3 JUMP JUMPDEST PUSH2 0x953 JUMP JUMPDEST DUP3 MSTORE POP POP JUMP JUMPDEST PUSH0 PUSH2 0x97E DUP3 DUP7 PUSH2 0x95C JUMP JUMPDEST PUSH1 0x20 DUP3 ADD SWAP2 POP PUSH2 0x98E DUP3 DUP6 PUSH2 0x95C JUMP JUMPDEST PUSH1 0x20 DUP3 ADD SWAP2 POP PUSH2 0x99E DUP3 DUP5 PUSH2 0x95C JUMP JUMPDEST PUSH1 0x20 DUP3 ADD SWAP2 POP DUP2 SWAP1 POP SWAP5 SWAP4 POP POP POP POP JUMP INVALID LOG2 PUSH5 0x6970667358 0x22 SLT KECCAK256 0x4F 0xC7 PUSH10 0x7EF9BDF85BE6D9035709 LT 0xE9 SWAP6 COINBASE SWAP7 CODESIZE MSIZE CALLCODE DUP2 0xDF INVALID 0xB3 0xB2 0xE3 LOG1 LOG1 0x2D 0xBA 0xB5 PUSH5 0x736F6C6343 STOP ADDMOD BYTE STOP CALLER "
				},
				"gasEstimates": {
					"creation": {
						"codeDepositCost": "506600",
						"executionCost": "75516",
						"totalCost": "582116"
					},
					"external": {
						"getBalance()": "2481",
						"manager()": "2508",
						"pickWinner()": "infinite",
						"players(uint256)": "5009",
						"random()": "infinite"
					}
				},
				"methodIdentifiers": {
					"getBalance()": "12065fe0",
					"manager()": "481c6a75",
					"pickWinner()": "5d495aea",
					"players(uint256)": "f71d96cb",
					"random()": "5ec01e4d"
				}
			},
			"storageLayout": {
				"storage": [
					{
						"astId": 4,
						"contract": "contracts/lottery_challenge.sol:Lottery",
						"label": "players",
						"offset": 0,
						"slot": "0",
						"type": "t_array(t_address_payable)dyn_storage"
					},
					{
						"astId": 6,
						"contract": "contracts/lottery_challenge.sol:Lottery",
						"label": "manager",
						"offset": 0,
						"slot": "1",
						"type": "t_address"
					}
				],
				"types": {
					"t_address": {
						"encoding": "inplace",
						"label": "address",
						"numberOfBytes": "20"
					},
					"t_address_payable": {
						"encoding": "inplace",
						"label": "address payable",
						"numberOfBytes": "20"
					},
					"t_array(t_address_payable)dyn_storage": {
						"base": "t_address_payable",
						"encoding": "dynamic_array",
						"label": "address payable[]",
						"numberOfBytes": "32"
					}
				}
			},
			"userdoc": {
				"kind": "user",
				"methods": {},
				"version": 1
			}
		}
	}
}