{
	"contracts/challenge/lottery_smart_contract_ch4.sol": {
		"Lottery": {
			"abi": [
				{
					"inputs": [],
					"stateMutability": "nonpayable",
					"type": "constructor"
				},
				{
					"inputs": [],
					"name": "getBalance",
					"outputs": [
						{
							"internalType": "uint256",
							"name": "",
							"type": "uint256"
						}
					],
					"stateMutability": "view",
					"type": "function"
				},
				{
					"inputs": [],
					"name": "manager",
					"outputs": [
						{
							"internalType": "address",
							"name": "",
							"type": "address"
						}
					],
					"stateMutability": "view",
					"type": "function"
				},
				{
					"inputs": [],
					"name": "pickWinner",
					"outputs": [],
					"stateMutability": "nonpayable",
					"type": "function"
				},
				{
					"inputs": [
						{
							"internalType": "uint256",
							"name": "",
							"type": "uint256"
						}
					],
					"name": "players",
					"outputs": [
						{
							"internalType": "address payable",
							"name": "",
							"type": "address"
						}
					],
					"stateMutability": "view",
					"type": "function"
				},
				{
					"stateMutability": "payable",
					"type": "receive"
				}
			],
			"devdoc": {
				"kind": "dev",
				"methods": {},
				"version": 1
			},
			"evm": {
				"assembly": "    /* \"contracts/challenge/lottery_smart_contract_ch4.sol\":70:2162  contract Lottery{... */\n  mstore(0x40, 0x80)\n    /* \"contracts/challenge/lottery_smart_contract_ch4.sol\":284:419  constructor(){... */\n  callvalue\n  dup1\n  iszero\n  tag_1\n  jumpi\n  0x00\n  dup1\n  revert\ntag_1:\n  pop\n    /* \"contracts/challenge/lottery_smart_contract_ch4.sol\":392:402  msg.sender */\n  caller\n    /* \"contracts/challenge/lottery_smart_contract_ch4.sol\":382:389  manager */\n  0x01\n  0x00\n    /* \"contracts/challenge/lottery_smart_contract_ch4.sol\":382:402  manager = msg.sender */\n  0x0100\n  exp\n  dup2\n  sload\n  dup2\n  0xffffffffffffffffffffffffffffffffffffffff\n  mul\n  not\n  and\n  swap1\n  dup4\n  0xffffffffffffffffffffffffffffffffffffffff\n  and\n  mul\n  or\n  swap1\n  sstore\n  pop\n    /* \"contracts/challenge/lottery_smart_contract_ch4.sol\":70:2162  contract Lottery{... */\n  dataSize(sub_0)\n  dup1\n  dataOffset(sub_0)\n  0x00\n  codecopy\n  0x00\n  return\nstop\n\nsub_0: assembly {\n        /* \"contracts/challenge/lottery_smart_contract_ch4.sol\":70:2162  contract Lottery{... */\n      mstore(0x40, 0x80)\n      jumpi(tag_1, lt(calldatasize, 0x04))\n      shr(0xe0, calldataload(0x00))\n      dup1\n      0x12065fe0\n      eq\n      tag_3\n      jumpi\n      dup1\n      0x481c6a75\n      eq\n      tag_4\n      jumpi\n      dup1\n      0x5d495aea\n      eq\n      tag_5\n      jumpi\n      dup1\n      0xf71d96cb\n      eq\n      tag_6\n      jumpi\n      jump(tag_2)\n    tag_1:\n      jumpi(tag_2, calldatasize)\n        /* \"contracts/challenge/lottery_smart_contract_ch4.sol\":607:616  0.1 ether */\n      0x016345785d8a0000\n        /* \"contracts/challenge/lottery_smart_contract_ch4.sol\":594:603  msg.value */\n      callvalue\n        /* \"contracts/challenge/lottery_smart_contract_ch4.sol\":594:616  msg.value == 0.1 ether */\n      eq\n        /* \"contracts/challenge/lottery_smart_contract_ch4.sol\":586:617  require(msg.value == 0.1 ether) */\n      tag_9\n      jumpi\n      0x00\n      dup1\n      revert\n    tag_9:\n        /* \"contracts/challenge/lottery_smart_contract_ch4.sol\":680:687  players */\n      0x00\n        /* \"contracts/challenge/lottery_smart_contract_ch4.sol\":701:711  msg.sender */\n      caller\n        /* \"contracts/challenge/lottery_smart_contract_ch4.sol\":680:713  players.push(payable(msg.sender)) */\n      swap1\n      dup1\n      0x01\n      dup2\n      sload\n      add\n      dup1\n      dup3\n      sstore\n      dup1\n      swap2\n      pop\n      pop\n      0x01\n      swap1\n      sub\n      swap1\n      0x00\n      mstore\n      keccak256(0x00, 0x20)\n      add\n      0x00\n      swap1\n      swap2\n      swap1\n      swap2\n      swap1\n      swap2\n      0x0100\n      exp\n      dup2\n      sload\n      dup2\n      0xffffffffffffffffffffffffffffffffffffffff\n      mul\n      not\n      and\n      swap1\n      dup4\n      0xffffffffffffffffffffffffffffffffffffffff\n      and\n      mul\n      or\n      swap1\n      sstore\n      stop\n        /* \"contracts/challenge/lottery_smart_contract_ch4.sol\":70:2162  contract Lottery{... */\n    tag_2:\n      0x00\n      dup1\n      revert\n        /* \"contracts/challenge/lottery_smart_contract_ch4.sol\":777:959  function getBalance() public view returns(uint){... */\n    tag_3:\n      callvalue\n      dup1\n      iszero\n      tag_11\n      jumpi\n      0x00\n      dup1\n      revert\n    tag_11:\n      pop\n      tag_12\n      tag_13\n      jump\t// in\n    tag_12:\n      mload(0x40)\n      tag_14\n      swap2\n      swap1\n      tag_15\n      jump\t// in\n    tag_14:\n      mload(0x40)\n      dup1\n      swap2\n      sub\n      swap1\n      return\n        /* \"contracts/challenge/lottery_smart_contract_ch4.sol\":212:234  address public manager */\n    tag_4:\n      callvalue\n      dup1\n      iszero\n      tag_16\n      jumpi\n      0x00\n      dup1\n      revert\n    tag_16:\n      pop\n      tag_17\n      tag_18\n      jump\t// in\n    tag_17:\n      mload(0x40)\n      tag_19\n      swap2\n      swap1\n      tag_20\n      jump\t// in\n    tag_19:\n      mload(0x40)\n      dup1\n      swap2\n      sub\n      swap1\n      return\n        /* \"contracts/challenge/lottery_smart_contract_ch4.sol\":1221:2159  function pickWinner() public{... */\n    tag_5:\n      callvalue\n      dup1\n      iszero\n      tag_21\n      jumpi\n      0x00\n      dup1\n      revert\n    tag_21:\n      pop\n      tag_22\n      tag_23\n      jump\t// in\n    tag_22:\n      stop\n        /* \"contracts/challenge/lottery_smart_contract_ch4.sol\":134:166  address payable[] public players */\n    tag_6:\n      callvalue\n      dup1\n      iszero\n      tag_24\n      jumpi\n      0x00\n      dup1\n      revert\n    tag_24:\n      pop\n      tag_25\n      0x04\n      dup1\n      calldatasize\n      sub\n      dup2\n      add\n      swap1\n      tag_26\n      swap2\n      swap1\n      tag_27\n      jump\t// in\n    tag_26:\n      tag_28\n      jump\t// in\n    tag_25:\n      mload(0x40)\n      tag_29\n      swap2\n      swap1\n      tag_30\n      jump\t// in\n    tag_29:\n      mload(0x40)\n      dup1\n      swap2\n      sub\n      swap1\n      return\n        /* \"contracts/challenge/lottery_smart_contract_ch4.sol\":777:959  function getBalance() public view returns(uint){... */\n    tag_13:\n        /* \"contracts/challenge/lottery_smart_contract_ch4.sol\":819:823  uint */\n      0x00\n        /* \"contracts/challenge/lottery_smart_contract_ch4.sol\":906:913  manager */\n      0x01\n      0x00\n      swap1\n      sload\n      swap1\n      0x0100\n      exp\n      swap1\n      div\n      0xffffffffffffffffffffffffffffffffffffffff\n      and\n        /* \"contracts/challenge/lottery_smart_contract_ch4.sol\":892:913  msg.sender == manager */\n      0xffffffffffffffffffffffffffffffffffffffff\n      and\n        /* \"contracts/challenge/lottery_smart_contract_ch4.sol\":892:902  msg.sender */\n      caller\n        /* \"contracts/challenge/lottery_smart_contract_ch4.sol\":892:913  msg.sender == manager */\n      0xffffffffffffffffffffffffffffffffffffffff\n      and\n      eq\n        /* \"contracts/challenge/lottery_smart_contract_ch4.sol\":884:914  require(msg.sender == manager) */\n      tag_32\n      jumpi\n      0x00\n      dup1\n      revert\n    tag_32:\n        /* \"contracts/challenge/lottery_smart_contract_ch4.sol\":931:952  address(this).balance */\n      selfbalance\n        /* \"contracts/challenge/lottery_smart_contract_ch4.sol\":924:952  return address(this).balance */\n      swap1\n      pop\n        /* \"contracts/challenge/lottery_smart_contract_ch4.sol\":777:959  function getBalance() public view returns(uint){... */\n      swap1\n      jump\t// out\n        /* \"contracts/challenge/lottery_smart_contract_ch4.sol\":212:234  address public manager */\n    tag_18:\n      0x01\n      0x00\n      swap1\n      sload\n      swap1\n      0x0100\n      exp\n      swap1\n      div\n      0xffffffffffffffffffffffffffffffffffffffff\n      and\n      dup2\n      jump\t// out\n        /* \"contracts/challenge/lottery_smart_contract_ch4.sol\":1221:2159  function pickWinner() public{... */\n    tag_23:\n        /* \"contracts/challenge/lottery_smart_contract_ch4.sol\":1374:1381  manager */\n      0x01\n      0x00\n      swap1\n      sload\n      swap1\n      0x0100\n      exp\n      swap1\n      div\n      0xffffffffffffffffffffffffffffffffffffffff\n      and\n        /* \"contracts/challenge/lottery_smart_contract_ch4.sol\":1360:1381  msg.sender == manager */\n      0xffffffffffffffffffffffffffffffffffffffff\n      and\n        /* \"contracts/challenge/lottery_smart_contract_ch4.sol\":1360:1370  msg.sender */\n      caller\n        /* \"contracts/challenge/lottery_smart_contract_ch4.sol\":1360:1381  msg.sender == manager */\n      0xffffffffffffffffffffffffffffffffffffffff\n      and\n      eq\n        /* \"contracts/challenge/lottery_smart_contract_ch4.sol\":1352:1382  require(msg.sender == manager) */\n      tag_34\n      jumpi\n      0x00\n      dup1\n      revert\n    tag_34:\n        /* \"contracts/challenge/lottery_smart_contract_ch4.sol\":1419:1420  3 */\n      0x03\n        /* \"contracts/challenge/lottery_smart_contract_ch4.sol\":1401:1408  players */\n      0x00\n        /* \"contracts/challenge/lottery_smart_contract_ch4.sol\":1401:1415  players.length */\n      dup1\n      sload\n      swap1\n      pop\n        /* \"contracts/challenge/lottery_smart_contract_ch4.sol\":1401:1420  players.length >= 3 */\n      lt\n      iszero\n        /* \"contracts/challenge/lottery_smart_contract_ch4.sol\":1392:1421  require (players.length >= 3) */\n      tag_35\n      jumpi\n      0x00\n      dup1\n      revert\n    tag_35:\n        /* \"contracts/challenge/lottery_smart_contract_ch4.sol\":1440:1446  uint r */\n      0x00\n        /* \"contracts/challenge/lottery_smart_contract_ch4.sol\":1449:1457  random() */\n      tag_36\n        /* \"contracts/challenge/lottery_smart_contract_ch4.sol\":1449:1455  random */\n      tag_37\n        /* \"contracts/challenge/lottery_smart_contract_ch4.sol\":1449:1457  random() */\n      jump\t// in\n    tag_36:\n        /* \"contracts/challenge/lottery_smart_contract_ch4.sol\":1440:1457  uint r = random() */\n      swap1\n      pop\n        /* \"contracts/challenge/lottery_smart_contract_ch4.sol\":1467:1489  address payable winner */\n      0x00\n        /* \"contracts/challenge/lottery_smart_contract_ch4.sol\":1557:1567  uint index */\n      dup1\n        /* \"contracts/challenge/lottery_smart_contract_ch4.sol\":1574:1581  players */\n      0x00\n        /* \"contracts/challenge/lottery_smart_contract_ch4.sol\":1574:1588  players.length */\n      dup1\n      sload\n      swap1\n      pop\n        /* \"contracts/challenge/lottery_smart_contract_ch4.sol\":1570:1571  r */\n      dup4\n        /* \"contracts/challenge/lottery_smart_contract_ch4.sol\":1570:1588  r % players.length */\n      tag_38\n      swap2\n      swap1\n      tag_39\n      jump\t// in\n    tag_38:\n        /* \"contracts/challenge/lottery_smart_contract_ch4.sol\":1557:1588  uint index = r % players.length */\n      swap1\n      pop\n        /* \"contracts/challenge/lottery_smart_contract_ch4.sol\":1612:1619  players */\n      0x00\n        /* \"contracts/challenge/lottery_smart_contract_ch4.sol\":1620:1625  index */\n      dup2\n        /* \"contracts/challenge/lottery_smart_contract_ch4.sol\":1612:1626  players[index] */\n      dup2\n      sload\n      dup2\n      lt\n      tag_40\n      jumpi\n      tag_41\n      tag_42\n      jump\t// in\n    tag_41:\n    tag_40:\n      swap1\n      0x00\n      mstore\n      keccak256(0x00, 0x20)\n      add\n      0x00\n      swap1\n      sload\n      swap1\n      0x0100\n      exp\n      swap1\n      div\n      0xffffffffffffffffffffffffffffffffffffffff\n      and\n        /* \"contracts/challenge/lottery_smart_contract_ch4.sol\":1603:1626  winner = players[index] */\n      swap2\n      pop\n        /* \"contracts/challenge/lottery_smart_contract_ch4.sol\":1667:1682  uint managerFee */\n      0x00\n        /* \"contracts/challenge/lottery_smart_contract_ch4.sol\":1708:1711  100 */\n      0x64\n        /* \"contracts/challenge/lottery_smart_contract_ch4.sol\":1701:1703  10 */\n      0x0a\n        /* \"contracts/challenge/lottery_smart_contract_ch4.sol\":1686:1698  getBalance() */\n      tag_44\n        /* \"contracts/challenge/lottery_smart_contract_ch4.sol\":1686:1696  getBalance */\n      tag_13\n        /* \"contracts/challenge/lottery_smart_contract_ch4.sol\":1686:1698  getBalance() */\n      jump\t// in\n    tag_44:\n        /* \"contracts/challenge/lottery_smart_contract_ch4.sol\":1686:1703  getBalance() * 10 */\n      tag_45\n      swap2\n      swap1\n      tag_46\n      jump\t// in\n    tag_45:\n        /* \"contracts/challenge/lottery_smart_contract_ch4.sol\":1685:1711  (getBalance() * 10 ) / 100 */\n      tag_47\n      swap2\n      swap1\n      tag_48\n      jump\t// in\n    tag_47:\n        /* \"contracts/challenge/lottery_smart_contract_ch4.sol\":1667:1711  uint managerFee = (getBalance() * 10 ) / 100 */\n      swap1\n      pop\n        /* \"contracts/challenge/lottery_smart_contract_ch4.sol\":1743:1759  uint winnerPrize */\n      0x00\n        /* \"contracts/challenge/lottery_smart_contract_ch4.sol\":1785:1788  100 */\n      0x64\n        /* \"contracts/challenge/lottery_smart_contract_ch4.sol\":1778:1780  90 */\n      0x5a\n        /* \"contracts/challenge/lottery_smart_contract_ch4.sol\":1763:1775  getBalance() */\n      tag_49\n        /* \"contracts/challenge/lottery_smart_contract_ch4.sol\":1763:1773  getBalance */\n      tag_13\n        /* \"contracts/challenge/lottery_smart_contract_ch4.sol\":1763:1775  getBalance() */\n      jump\t// in\n    tag_49:\n        /* \"contracts/challenge/lottery_smart_contract_ch4.sol\":1763:1780  getBalance() * 90 */\n      tag_50\n      swap2\n      swap1\n      tag_46\n      jump\t// in\n    tag_50:\n        /* \"contracts/challenge/lottery_smart_contract_ch4.sol\":1762:1788  (getBalance() * 90 ) / 100 */\n      tag_51\n      swap2\n      swap1\n      tag_48\n      jump\t// in\n    tag_51:\n        /* \"contracts/challenge/lottery_smart_contract_ch4.sol\":1743:1788  uint winnerPrize = (getBalance() * 90 ) / 100 */\n      swap1\n      pop\n        /* \"contracts/challenge/lottery_smart_contract_ch4.sol\":1898:1904  winner */\n      dup4\n        /* \"contracts/challenge/lottery_smart_contract_ch4.sol\":1898:1913  winner.transfer */\n      0xffffffffffffffffffffffffffffffffffffffff\n      and\n        /* \"contracts/challenge/lottery_smart_contract_ch4.sol\":1898:1926  winner.transfer(winnerPrize) */\n      0x08fc\n        /* \"contracts/challenge/lottery_smart_contract_ch4.sol\":1914:1925  winnerPrize */\n      dup3\n        /* \"contracts/challenge/lottery_smart_contract_ch4.sol\":1898:1926  winner.transfer(winnerPrize) */\n      swap1\n      dup2\n      iszero\n      mul\n      swap1\n      mload(0x40)\n      0x00\n      mload(0x40)\n      dup1\n      dup4\n      sub\n      dup2\n      dup6\n      dup9\n      dup9\n      call\n      swap4\n      pop\n      pop\n      pop\n      pop\n      iszero\n      dup1\n      iszero\n      tag_53\n      jumpi\n      returndatasize\n      0x00\n      dup1\n      returndatacopy\n      revert(0x00, returndatasize)\n    tag_53:\n      pop\n        /* \"contracts/challenge/lottery_smart_contract_ch4.sol\":2018:2025  manager */\n      0x01\n      0x00\n      swap1\n      sload\n      swap1\n      0x0100\n      exp\n      swap1\n      div\n      0xffffffffffffffffffffffffffffffffffffffff\n      and\n        /* \"contracts/challenge/lottery_smart_contract_ch4.sol\":2010:2035  payable(manager).transfer */\n      0xffffffffffffffffffffffffffffffffffffffff\n      and\n        /* \"contracts/challenge/lottery_smart_contract_ch4.sol\":2010:2047  payable(manager).transfer(managerFee) */\n      0x08fc\n        /* \"contracts/challenge/lottery_smart_contract_ch4.sol\":2036:2046  managerFee */\n      dup4\n        /* \"contracts/challenge/lottery_smart_contract_ch4.sol\":2010:2047  payable(manager).transfer(managerFee) */\n      swap1\n      dup2\n      iszero\n      mul\n      swap1\n      mload(0x40)\n      0x00\n      mload(0x40)\n      dup1\n      dup4\n      sub\n      dup2\n      dup6\n      dup9\n      dup9\n      call\n      swap4\n      pop\n      pop\n      pop\n      pop\n      iszero\n      dup1\n      iszero\n      tag_55\n      jumpi\n      returndatasize\n      0x00\n      dup1\n      returndatacopy\n      revert(0x00, returndatasize)\n    tag_55:\n      pop\n        /* \"contracts/challenge/lottery_smart_contract_ch4.sol\":2150:2151  0 */\n      0x00\n        /* \"contracts/challenge/lottery_smart_contract_ch4.sol\":2128:2152  new address payable[](0) */\n      0xffffffffffffffff\n      dup2\n      gt\n      iszero\n      tag_56\n      jumpi\n      tag_57\n      tag_58\n      jump\t// in\n    tag_57:\n    tag_56:\n      mload(0x40)\n      swap1\n      dup1\n      dup3\n      mstore\n      dup1\n      0x20\n      mul\n      0x20\n      add\n      dup3\n      add\n      0x40\n      mstore\n      dup1\n      iszero\n      tag_59\n      jumpi\n      dup2\n      0x20\n      add\n      0x20\n      dup3\n      mul\n      dup1\n      calldatasize\n      dup4\n      calldatacopy\n      dup1\n      dup3\n      add\n      swap2\n      pop\n      pop\n      swap1\n      pop\n    tag_59:\n      pop\n        /* \"contracts/challenge/lottery_smart_contract_ch4.sol\":2118:2125  players */\n      0x00\n        /* \"contracts/challenge/lottery_smart_contract_ch4.sol\":2118:2152  players = new address payable[](0) */\n      swap1\n      dup1\n      mload\n      swap1\n      0x20\n      add\n      swap1\n      tag_60\n      swap3\n      swap2\n      swap1\n      tag_61\n      jump\t// in\n    tag_60:\n      pop\n        /* \"contracts/challenge/lottery_smart_contract_ch4.sol\":1249:2159  {... */\n      pop\n      pop\n      pop\n      pop\n      pop\n        /* \"contracts/challenge/lottery_smart_contract_ch4.sol\":1221:2159  function pickWinner() public{... */\n      jump\t// out\n        /* \"contracts/challenge/lottery_smart_contract_ch4.sol\":134:166  address payable[] public players */\n    tag_28:\n      0x00\n      dup2\n      dup2\n      sload\n      dup2\n      lt\n      tag_62\n      jumpi\n      0x00\n      dup1\n      revert\n    tag_62:\n      swap1\n      0x00\n      mstore\n      keccak256(0x00, 0x20)\n      add\n      0x00\n      swap2\n      pop\n      sload\n      swap1\n      0x0100\n      exp\n      swap1\n      div\n      0xffffffffffffffffffffffffffffffffffffffff\n      and\n      dup2\n      jump\t// out\n        /* \"contracts/challenge/lottery_smart_contract_ch4.sol\":1026:1178  function random() internal view returns(uint){... */\n    tag_37:\n        /* \"contracts/challenge/lottery_smart_contract_ch4.sol\":1066:1070  uint */\n      0x00\n        /* \"contracts/challenge/lottery_smart_contract_ch4.sol\":1119:1135  block.difficulty */\n      prevrandao\n        /* \"contracts/challenge/lottery_smart_contract_ch4.sol\":1137:1152  block.timestamp */\n      timestamp\n        /* \"contracts/challenge/lottery_smart_contract_ch4.sol\":1154:1161  players */\n      0x00\n        /* \"contracts/challenge/lottery_smart_contract_ch4.sol\":1154:1168  players.length */\n      dup1\n      sload\n      swap1\n      pop\n        /* \"contracts/challenge/lottery_smart_contract_ch4.sol\":1102:1169  abi.encodePacked(block.difficulty, block.timestamp, players.length) */\n      add(0x20, mload(0x40))\n      tag_65\n      swap4\n      swap3\n      swap2\n      swap1\n      tag_66\n      jump\t// in\n    tag_65:\n      mload(0x40)\n      0x20\n      dup2\n      dup4\n      sub\n      sub\n      dup2\n      mstore\n      swap1\n      0x40\n      mstore\n        /* \"contracts/challenge/lottery_smart_contract_ch4.sol\":1092:1170  keccak256(abi.encodePacked(block.difficulty, block.timestamp, players.length)) */\n      dup1\n      mload\n      swap1\n      0x20\n      add\n      keccak256\n        /* \"contracts/challenge/lottery_smart_contract_ch4.sol\":1087:1171  uint(keccak256(abi.encodePacked(block.difficulty, block.timestamp, players.length))) */\n      0x00\n      shr\n        /* \"contracts/challenge/lottery_smart_contract_ch4.sol\":1080:1171  return uint(keccak256(abi.encodePacked(block.difficulty, block.timestamp, players.length))) */\n      swap1\n      pop\n        /* \"contracts/challenge/lottery_smart_contract_ch4.sol\":1026:1178  function random() internal view returns(uint){... */\n      swap1\n      jump\t// out\n    tag_61:\n      dup3\n      dup1\n      sload\n      dup3\n      dup3\n      sstore\n      swap1\n      0x00\n      mstore\n      keccak256(0x00, 0x20)\n      swap1\n      dup2\n      add\n      swap3\n      dup3\n      iszero\n      tag_67\n      jumpi\n      swap2\n      0x20\n      mul\n      dup3\n      add\n    tag_68:\n      dup3\n      dup2\n      gt\n      iszero\n      tag_69\n      jumpi\n      dup3\n      mload\n      dup3\n      exp(0x0100, 0x00)\n      dup2\n      sload\n      dup2\n      0xffffffffffffffffffffffffffffffffffffffff\n      mul\n      not\n      and\n      swap1\n      dup4\n      0xffffffffffffffffffffffffffffffffffffffff\n      and\n      mul\n      or\n      swap1\n      sstore\n      pop\n      swap2\n      0x20\n      add\n      swap2\n      swap1\n      0x01\n      add\n      swap1\n      jump(tag_68)\n    tag_69:\n    tag_67:\n      pop\n      swap1\n      pop\n      tag_70\n      swap2\n      swap1\n      tag_71\n      jump\t// in\n    tag_70:\n      pop\n      swap1\n      jump\t// out\n    tag_71:\n    tag_72:\n      dup1\n      dup3\n      gt\n      iszero\n      tag_73\n      jumpi\n      0x00\n      dup2\n      0x00\n      swap1\n      sstore\n      pop\n      0x01\n      add\n      jump(tag_72)\n    tag_73:\n      pop\n      swap1\n      jump\t// out\n        /* \"#utility.yul\":7:84   */\n    tag_74:\n        /* \"#utility.yul\":44:51   */\n      0x00\n        /* \"#utility.yul\":73:78   */\n      dup2\n        /* \"#utility.yul\":62:78   */\n      swap1\n      pop\n        /* \"#utility.yul\":7:84   */\n      swap2\n      swap1\n      pop\n      jump\t// out\n        /* \"#utility.yul\":90:208   */\n    tag_75:\n        /* \"#utility.yul\":177:201   */\n      tag_93\n        /* \"#utility.yul\":195:200   */\n      dup2\n        /* \"#utility.yul\":177:201   */\n      tag_74\n      jump\t// in\n    tag_93:\n        /* \"#utility.yul\":172:175   */\n      dup3\n        /* \"#utility.yul\":165:202   */\n      mstore\n        /* \"#utility.yul\":90:208   */\n      pop\n      pop\n      jump\t// out\n        /* \"#utility.yul\":214:436   */\n    tag_15:\n        /* \"#utility.yul\":307:311   */\n      0x00\n        /* \"#utility.yul\":345:347   */\n      0x20\n        /* \"#utility.yul\":334:343   */\n      dup3\n        /* \"#utility.yul\":330:348   */\n      add\n        /* \"#utility.yul\":322:348   */\n      swap1\n      pop\n        /* \"#utility.yul\":358:429   */\n      tag_95\n        /* \"#utility.yul\":426:427   */\n      0x00\n        /* \"#utility.yul\":415:424   */\n      dup4\n        /* \"#utility.yul\":411:428   */\n      add\n        /* \"#utility.yul\":402:408   */\n      dup5\n        /* \"#utility.yul\":358:429   */\n      tag_75\n      jump\t// in\n    tag_95:\n        /* \"#utility.yul\":214:436   */\n      swap3\n      swap2\n      pop\n      pop\n      jump\t// out\n        /* \"#utility.yul\":442:568   */\n    tag_76:\n        /* \"#utility.yul\":479:486   */\n      0x00\n        /* \"#utility.yul\":519:561   */\n      0xffffffffffffffffffffffffffffffffffffffff\n        /* \"#utility.yul\":512:517   */\n      dup3\n        /* \"#utility.yul\":508:562   */\n      and\n        /* \"#utility.yul\":497:562   */\n      swap1\n      pop\n        /* \"#utility.yul\":442:568   */\n      swap2\n      swap1\n      pop\n      jump\t// out\n        /* \"#utility.yul\":574:670   */\n    tag_77:\n        /* \"#utility.yul\":611:618   */\n      0x00\n        /* \"#utility.yul\":640:664   */\n      tag_98\n        /* \"#utility.yul\":658:663   */\n      dup3\n        /* \"#utility.yul\":640:664   */\n      tag_76\n      jump\t// in\n    tag_98:\n        /* \"#utility.yul\":629:664   */\n      swap1\n      pop\n        /* \"#utility.yul\":574:670   */\n      swap2\n      swap1\n      pop\n      jump\t// out\n        /* \"#utility.yul\":676:794   */\n    tag_78:\n        /* \"#utility.yul\":763:787   */\n      tag_100\n        /* \"#utility.yul\":781:786   */\n      dup2\n        /* \"#utility.yul\":763:787   */\n      tag_77\n      jump\t// in\n    tag_100:\n        /* \"#utility.yul\":758:761   */\n      dup3\n        /* \"#utility.yul\":751:788   */\n      mstore\n        /* \"#utility.yul\":676:794   */\n      pop\n      pop\n      jump\t// out\n        /* \"#utility.yul\":800:1022   */\n    tag_20:\n        /* \"#utility.yul\":893:897   */\n      0x00\n        /* \"#utility.yul\":931:933   */\n      0x20\n        /* \"#utility.yul\":920:929   */\n      dup3\n        /* \"#utility.yul\":916:934   */\n      add\n        /* \"#utility.yul\":908:934   */\n      swap1\n      pop\n        /* \"#utility.yul\":944:1015   */\n      tag_102\n        /* \"#utility.yul\":1012:1013   */\n      0x00\n        /* \"#utility.yul\":1001:1010   */\n      dup4\n        /* \"#utility.yul\":997:1014   */\n      add\n        /* \"#utility.yul\":988:994   */\n      dup5\n        /* \"#utility.yul\":944:1015   */\n      tag_78\n      jump\t// in\n    tag_102:\n        /* \"#utility.yul\":800:1022   */\n      swap3\n      swap2\n      pop\n      pop\n      jump\t// out\n        /* \"#utility.yul\":1109:1226   */\n    tag_80:\n        /* \"#utility.yul\":1218:1219   */\n      0x00\n        /* \"#utility.yul\":1215:1216   */\n      dup1\n        /* \"#utility.yul\":1208:1220   */\n      revert\n        /* \"#utility.yul\":1355:1477   */\n    tag_82:\n        /* \"#utility.yul\":1428:1452   */\n      tag_107\n        /* \"#utility.yul\":1446:1451   */\n      dup2\n        /* \"#utility.yul\":1428:1452   */\n      tag_74\n      jump\t// in\n    tag_107:\n        /* \"#utility.yul\":1421:1426   */\n      dup2\n        /* \"#utility.yul\":1418:1453   */\n      eq\n        /* \"#utility.yul\":1408:1471   */\n      tag_108\n      jumpi\n        /* \"#utility.yul\":1467:1468   */\n      0x00\n        /* \"#utility.yul\":1464:1465   */\n      dup1\n        /* \"#utility.yul\":1457:1469   */\n      revert\n        /* \"#utility.yul\":1408:1471   */\n    tag_108:\n        /* \"#utility.yul\":1355:1477   */\n      pop\n      jump\t// out\n        /* \"#utility.yul\":1483:1622   */\n    tag_83:\n        /* \"#utility.yul\":1529:1534   */\n      0x00\n        /* \"#utility.yul\":1567:1573   */\n      dup2\n        /* \"#utility.yul\":1554:1574   */\n      calldataload\n        /* \"#utility.yul\":1545:1574   */\n      swap1\n      pop\n        /* \"#utility.yul\":1583:1616   */\n      tag_110\n        /* \"#utility.yul\":1610:1615   */\n      dup2\n        /* \"#utility.yul\":1583:1616   */\n      tag_82\n      jump\t// in\n    tag_110:\n        /* \"#utility.yul\":1483:1622   */\n      swap3\n      swap2\n      pop\n      pop\n      jump\t// out\n        /* \"#utility.yul\":1628:1957   */\n    tag_27:\n        /* \"#utility.yul\":1687:1693   */\n      0x00\n        /* \"#utility.yul\":1736:1738   */\n      0x20\n        /* \"#utility.yul\":1724:1733   */\n      dup3\n        /* \"#utility.yul\":1715:1722   */\n      dup5\n        /* \"#utility.yul\":1711:1734   */\n      sub\n        /* \"#utility.yul\":1707:1739   */\n      slt\n        /* \"#utility.yul\":1704:1823   */\n      iszero\n      tag_112\n      jumpi\n        /* \"#utility.yul\":1742:1821   */\n      tag_113\n      tag_80\n      jump\t// in\n    tag_113:\n        /* \"#utility.yul\":1704:1823   */\n    tag_112:\n        /* \"#utility.yul\":1862:1863   */\n      0x00\n        /* \"#utility.yul\":1887:1940   */\n      tag_114\n        /* \"#utility.yul\":1932:1939   */\n      dup5\n        /* \"#utility.yul\":1923:1929   */\n      dup3\n        /* \"#utility.yul\":1912:1921   */\n      dup6\n        /* \"#utility.yul\":1908:1930   */\n      add\n        /* \"#utility.yul\":1887:1940   */\n      tag_83\n      jump\t// in\n    tag_114:\n        /* \"#utility.yul\":1877:1940   */\n      swap2\n      pop\n        /* \"#utility.yul\":1833:1950   */\n      pop\n        /* \"#utility.yul\":1628:1957   */\n      swap3\n      swap2\n      pop\n      pop\n      jump\t// out\n        /* \"#utility.yul\":1963:2067   */\n    tag_84:\n        /* \"#utility.yul\":2008:2015   */\n      0x00\n        /* \"#utility.yul\":2037:2061   */\n      tag_116\n        /* \"#utility.yul\":2055:2060   */\n      dup3\n        /* \"#utility.yul\":2037:2061   */\n      tag_76\n      jump\t// in\n    tag_116:\n        /* \"#utility.yul\":2026:2061   */\n      swap1\n      pop\n        /* \"#utility.yul\":1963:2067   */\n      swap2\n      swap1\n      pop\n      jump\t// out\n        /* \"#utility.yul\":2073:2215   */\n    tag_85:\n        /* \"#utility.yul\":2176:2208   */\n      tag_118\n        /* \"#utility.yul\":2202:2207   */\n      dup2\n        /* \"#utility.yul\":2176:2208   */\n      tag_84\n      jump\t// in\n    tag_118:\n        /* \"#utility.yul\":2171:2174   */\n      dup3\n        /* \"#utility.yul\":2164:2209   */\n      mstore\n        /* \"#utility.yul\":2073:2215   */\n      pop\n      pop\n      jump\t// out\n        /* \"#utility.yul\":2221:2475   */\n    tag_30:\n        /* \"#utility.yul\":2330:2334   */\n      0x00\n        /* \"#utility.yul\":2368:2370   */\n      0x20\n        /* \"#utility.yul\":2357:2366   */\n      dup3\n        /* \"#utility.yul\":2353:2371   */\n      add\n        /* \"#utility.yul\":2345:2371   */\n      swap1\n      pop\n        /* \"#utility.yul\":2381:2468   */\n      tag_120\n        /* \"#utility.yul\":2465:2466   */\n      0x00\n        /* \"#utility.yul\":2454:2463   */\n      dup4\n        /* \"#utility.yul\":2450:2467   */\n      add\n        /* \"#utility.yul\":2441:2447   */\n      dup5\n        /* \"#utility.yul\":2381:2468   */\n      tag_85\n      jump\t// in\n    tag_120:\n        /* \"#utility.yul\":2221:2475   */\n      swap3\n      swap2\n      pop\n      pop\n      jump\t// out\n        /* \"#utility.yul\":2481:2661   */\n    tag_86:\n        /* \"#utility.yul\":2529:2606   */\n      0x4e487b7100000000000000000000000000000000000000000000000000000000\n        /* \"#utility.yul\":2526:2527   */\n      0x00\n        /* \"#utility.yul\":2519:2607   */\n      mstore\n        /* \"#utility.yul\":2626:2630   */\n      0x12\n        /* \"#utility.yul\":2623:2624   */\n      0x04\n        /* \"#utility.yul\":2616:2631   */\n      mstore\n        /* \"#utility.yul\":2650:2654   */\n      0x24\n        /* \"#utility.yul\":2647:2648   */\n      0x00\n        /* \"#utility.yul\":2640:2655   */\n      revert\n        /* \"#utility.yul\":2667:2843   */\n    tag_39:\n        /* \"#utility.yul\":2699:2700   */\n      0x00\n        /* \"#utility.yul\":2716:2736   */\n      tag_123\n        /* \"#utility.yul\":2734:2735   */\n      dup3\n        /* \"#utility.yul\":2716:2736   */\n      tag_74\n      jump\t// in\n    tag_123:\n        /* \"#utility.yul\":2711:2736   */\n      swap2\n      pop\n        /* \"#utility.yul\":2750:2770   */\n      tag_124\n        /* \"#utility.yul\":2768:2769   */\n      dup4\n        /* \"#utility.yul\":2750:2770   */\n      tag_74\n      jump\t// in\n    tag_124:\n        /* \"#utility.yul\":2745:2770   */\n      swap3\n      pop\n        /* \"#utility.yul\":2789:2790   */\n      dup3\n        /* \"#utility.yul\":2779:2814   */\n      tag_125\n      jumpi\n        /* \"#utility.yul\":2794:2812   */\n      tag_126\n      tag_86\n      jump\t// in\n    tag_126:\n        /* \"#utility.yul\":2779:2814   */\n    tag_125:\n        /* \"#utility.yul\":2835:2836   */\n      dup3\n        /* \"#utility.yul\":2832:2833   */\n      dup3\n        /* \"#utility.yul\":2828:2837   */\n      mod\n        /* \"#utility.yul\":2823:2837   */\n      swap1\n      pop\n        /* \"#utility.yul\":2667:2843   */\n      swap3\n      swap2\n      pop\n      pop\n      jump\t// out\n        /* \"#utility.yul\":2849:3029   */\n    tag_42:\n        /* \"#utility.yul\":2897:2974   */\n      0x4e487b7100000000000000000000000000000000000000000000000000000000\n        /* \"#utility.yul\":2894:2895   */\n      0x00\n        /* \"#utility.yul\":2887:2975   */\n      mstore\n        /* \"#utility.yul\":2994:2998   */\n      0x32\n        /* \"#utility.yul\":2991:2992   */\n      0x04\n        /* \"#utility.yul\":2984:2999   */\n      mstore\n        /* \"#utility.yul\":3018:3022   */\n      0x24\n        /* \"#utility.yul\":3015:3016   */\n      0x00\n        /* \"#utility.yul\":3008:3023   */\n      revert\n        /* \"#utility.yul\":3035:3215   */\n    tag_87:\n        /* \"#utility.yul\":3083:3160   */\n      0x4e487b7100000000000000000000000000000000000000000000000000000000\n        /* \"#utility.yul\":3080:3081   */\n      0x00\n        /* \"#utility.yul\":3073:3161   */\n      mstore\n        /* \"#utility.yul\":3180:3184   */\n      0x11\n        /* \"#utility.yul\":3177:3178   */\n      0x04\n        /* \"#utility.yul\":3170:3185   */\n      mstore\n        /* \"#utility.yul\":3204:3208   */\n      0x24\n        /* \"#utility.yul\":3201:3202   */\n      0x00\n        /* \"#utility.yul\":3194:3209   */\n      revert\n        /* \"#utility.yul\":3221:3631   */\n    tag_46:\n        /* \"#utility.yul\":3261:3268   */\n      0x00\n        /* \"#utility.yul\":3284:3304   */\n      tag_130\n        /* \"#utility.yul\":3302:3303   */\n      dup3\n        /* \"#utility.yul\":3284:3304   */\n      tag_74\n      jump\t// in\n    tag_130:\n        /* \"#utility.yul\":3279:3304   */\n      swap2\n      pop\n        /* \"#utility.yul\":3318:3338   */\n      tag_131\n        /* \"#utility.yul\":3336:3337   */\n      dup4\n        /* \"#utility.yul\":3318:3338   */\n      tag_74\n      jump\t// in\n    tag_131:\n        /* \"#utility.yul\":3313:3338   */\n      swap3\n      pop\n        /* \"#utility.yul\":3373:3374   */\n      dup3\n        /* \"#utility.yul\":3370:3371   */\n      dup3\n        /* \"#utility.yul\":3366:3375   */\n      mul\n        /* \"#utility.yul\":3395:3425   */\n      tag_132\n        /* \"#utility.yul\":3413:3424   */\n      dup2\n        /* \"#utility.yul\":3395:3425   */\n      tag_74\n      jump\t// in\n    tag_132:\n        /* \"#utility.yul\":3384:3425   */\n      swap2\n      pop\n        /* \"#utility.yul\":3574:3575   */\n      dup3\n        /* \"#utility.yul\":3565:3572   */\n      dup3\n        /* \"#utility.yul\":3561:3576   */\n      div\n        /* \"#utility.yul\":3558:3559   */\n      dup5\n        /* \"#utility.yul\":3555:3577   */\n      eq\n        /* \"#utility.yul\":3535:3536   */\n      dup4\n        /* \"#utility.yul\":3528:3537   */\n      iszero\n        /* \"#utility.yul\":3508:3591   */\n      or\n        /* \"#utility.yul\":3485:3624   */\n      tag_133\n      jumpi\n        /* \"#utility.yul\":3604:3622   */\n      tag_134\n      tag_87\n      jump\t// in\n    tag_134:\n        /* \"#utility.yul\":3485:3624   */\n    tag_133:\n        /* \"#utility.yul\":3269:3631   */\n      pop\n        /* \"#utility.yul\":3221:3631   */\n      swap3\n      swap2\n      pop\n      pop\n      jump\t// out\n        /* \"#utility.yul\":3637:3822   */\n    tag_48:\n        /* \"#utility.yul\":3677:3678   */\n      0x00\n        /* \"#utility.yul\":3694:3714   */\n      tag_136\n        /* \"#utility.yul\":3712:3713   */\n      dup3\n        /* \"#utility.yul\":3694:3714   */\n      tag_74\n      jump\t// in\n    tag_136:\n        /* \"#utility.yul\":3689:3714   */\n      swap2\n      pop\n        /* \"#utility.yul\":3728:3748   */\n      tag_137\n        /* \"#utility.yul\":3746:3747   */\n      dup4\n        /* \"#utility.yul\":3728:3748   */\n      tag_74\n      jump\t// in\n    tag_137:\n        /* \"#utility.yul\":3723:3748   */\n      swap3\n      pop\n        /* \"#utility.yul\":3767:3768   */\n      dup3\n        /* \"#utility.yul\":3757:3792   */\n      tag_138\n      jumpi\n        /* \"#utility.yul\":3772:3790   */\n      tag_139\n      tag_86\n      jump\t// in\n    tag_139:\n        /* \"#utility.yul\":3757:3792   */\n    tag_138:\n        /* \"#utility.yul\":3814:3815   */\n      dup3\n        /* \"#utility.yul\":3811:3812   */\n      dup3\n        /* \"#utility.yul\":3807:3816   */\n      div\n        /* \"#utility.yul\":3802:3816   */\n      swap1\n      pop\n        /* \"#utility.yul\":3637:3822   */\n      swap3\n      swap2\n      pop\n      pop\n      jump\t// out\n        /* \"#utility.yul\":3828:4008   */\n    tag_58:\n        /* \"#utility.yul\":3876:3953   */\n      0x4e487b7100000000000000000000000000000000000000000000000000000000\n        /* \"#utility.yul\":3873:3874   */\n      0x00\n        /* \"#utility.yul\":3866:3954   */\n      mstore\n        /* \"#utility.yul\":3973:3977   */\n      0x41\n        /* \"#utility.yul\":3970:3971   */\n      0x04\n        /* \"#utility.yul\":3963:3978   */\n      mstore\n        /* \"#utility.yul\":3997:4001   */\n      0x24\n        /* \"#utility.yul\":3994:3995   */\n      0x00\n        /* \"#utility.yul\":3987:4002   */\n      revert\n        /* \"#utility.yul\":4014:4093   */\n    tag_88:\n        /* \"#utility.yul\":4053:4060   */\n      0x00\n        /* \"#utility.yul\":4082:4087   */\n      dup2\n        /* \"#utility.yul\":4071:4087   */\n      swap1\n      pop\n        /* \"#utility.yul\":4014:4093   */\n      swap2\n      swap1\n      pop\n      jump\t// out\n        /* \"#utility.yul\":4099:4256   */\n    tag_89:\n        /* \"#utility.yul\":4204:4249   */\n      tag_143\n        /* \"#utility.yul\":4224:4248   */\n      tag_144\n        /* \"#utility.yul\":4242:4247   */\n      dup3\n        /* \"#utility.yul\":4224:4248   */\n      tag_74\n      jump\t// in\n    tag_144:\n        /* \"#utility.yul\":4204:4249   */\n      tag_88\n      jump\t// in\n    tag_143:\n        /* \"#utility.yul\":4199:4202   */\n      dup3\n        /* \"#utility.yul\":4192:4250   */\n      mstore\n        /* \"#utility.yul\":4099:4256   */\n      pop\n      pop\n      jump\t// out\n        /* \"#utility.yul\":4262:4800   */\n    tag_66:\n        /* \"#utility.yul\":4430:4433   */\n      0x00\n        /* \"#utility.yul\":4445:4520   */\n      tag_146\n        /* \"#utility.yul\":4516:4519   */\n      dup3\n        /* \"#utility.yul\":4507:4513   */\n      dup7\n        /* \"#utility.yul\":4445:4520   */\n      tag_89\n      jump\t// in\n    tag_146:\n        /* \"#utility.yul\":4545:4547   */\n      0x20\n        /* \"#utility.yul\":4540:4543   */\n      dup3\n        /* \"#utility.yul\":4536:4548   */\n      add\n        /* \"#utility.yul\":4529:4548   */\n      swap2\n      pop\n        /* \"#utility.yul\":4558:4633   */\n      tag_147\n        /* \"#utility.yul\":4629:4632   */\n      dup3\n        /* \"#utility.yul\":4620:4626   */\n      dup6\n        /* \"#utility.yul\":4558:4633   */\n      tag_89\n      jump\t// in\n    tag_147:\n        /* \"#utility.yul\":4658:4660   */\n      0x20\n        /* \"#utility.yul\":4653:4656   */\n      dup3\n        /* \"#utility.yul\":4649:4661   */\n      add\n        /* \"#utility.yul\":4642:4661   */\n      swap2\n      pop\n        /* \"#utility.yul\":4671:4746   */\n      tag_148\n        /* \"#utility.yul\":4742:4745   */\n      dup3\n        /* \"#utility.yul\":4733:4739   */\n      dup5\n        /* \"#utility.yul\":4671:4746   */\n      tag_89\n      jump\t// in\n    tag_148:\n        /* \"#utility.yul\":4771:4773   */\n      0x20\n        /* \"#utility.yul\":4766:4769   */\n      dup3\n        /* \"#utility.yul\":4762:4774   */\n      add\n        /* \"#utility.yul\":4755:4774   */\n      swap2\n      pop\n        /* \"#utility.yul\":4791:4794   */\n      dup2\n        /* \"#utility.yul\":4784:4794   */\n      swap1\n      pop\n        /* \"#utility.yul\":4262:4800   */\n      swap5\n      swap4\n      pop\n      pop\n      pop\n      pop\n      jump\t// out\n\n    auxdata: 0xa26469706673582212203829dea15b9aaf5e11e6324e2835ad607fe3a5b433dda25117f18f685e6cef1164736f6c634300081a0033\n}\n",
				"bytecode": {
					"linkReferences": {},
					"object": "6080604052348015600e575f80fd5b503360015f6101000a81548173ffffffffffffffffffffffffffffffffffffffff021916908373ffffffffffffffffffffffffffffffffffffffff1602179055506108168061005c5f395ff3fe608060405260043610610042575f3560e01c806312065fe0146100be578063481c6a75146100e85780635d495aea14610112578063f71d96cb14610128576100ba565b366100ba5767016345785d8a0000341461005a575f80fd5b5f33908060018154018082558091505060019003905f5260205f20015f9091909190916101000a81548173ffffffffffffffffffffffffffffffffffffffff021916908373ffffffffffffffffffffffffffffffffffffffff1602179055005b5f80fd5b3480156100c9575f80fd5b506100d2610164565b6040516100df919061052c565b60405180910390f35b3480156100f3575f80fd5b506100fc6101c3565b6040516101099190610584565b60405180910390f35b34801561011d575f80fd5b506101266101e8565b005b348015610133575f80fd5b5061014e600480360381019061014991906105cb565b610401565b60405161015b9190610616565b60405180910390f35b5f60015f9054906101000a900473ffffffffffffffffffffffffffffffffffffffff1673ffffffffffffffffffffffffffffffffffffffff163373ffffffffffffffffffffffffffffffffffffffff16146101bd575f80fd5b47905090565b60015f9054906101000a900473ffffffffffffffffffffffffffffffffffffffff1681565b60015f9054906101000a900473ffffffffffffffffffffffffffffffffffffffff1673ffffffffffffffffffffffffffffffffffffffff163373ffffffffffffffffffffffffffffffffffffffff1614610240575f80fd5b60035f805490501015610251575f80fd5b5f61025a61043b565b90505f805f805490508361026e919061065c565b90505f81815481106102835761028261068c565b5b905f5260205f20015f9054906101000a900473ffffffffffffffffffffffffffffffffffffffff1691505f6064600a6102ba610164565b6102c491906106e6565b6102ce9190610727565b90505f6064605a6102dd610164565b6102e791906106e6565b6102f19190610727565b90508373ffffffffffffffffffffffffffffffffffffffff166108fc8290811502906040515f60405180830381858888f19350505050158015610336573d5f803e3d5ffd5b5060015f9054906101000a900473ffffffffffffffffffffffffffffffffffffffff1673ffffffffffffffffffffffffffffffffffffffff166108fc8390811502906040515f60405180830381858888f1935050505015801561039b573d5f803e3d5ffd5b505f67ffffffffffffffff8111156103b6576103b5610757565b5b6040519080825280602002602001820160405280156103e45781602001602082028036833780820191505090505b505f90805190602001906103f9929190610472565b505050505050565b5f818154811061040f575f80fd5b905f5260205f20015f915054906101000a900473ffffffffffffffffffffffffffffffffffffffff1681565b5f44425f80549050604051602001610455939291906107a4565b604051602081830303815290604052805190602001205f1c905090565b828054828255905f5260205f209081019282156104e8579160200282015b828111156104e7578251825f6101000a81548173ffffffffffffffffffffffffffffffffffffffff021916908373ffffffffffffffffffffffffffffffffffffffff16021790555091602001919060010190610490565b5b5090506104f591906104f9565b5090565b5b80821115610510575f815f9055506001016104fa565b5090565b5f819050919050565b61052681610514565b82525050565b5f60208201905061053f5f83018461051d565b92915050565b5f73ffffffffffffffffffffffffffffffffffffffff82169050919050565b5f61056e82610545565b9050919050565b61057e81610564565b82525050565b5f6020820190506105975f830184610575565b92915050565b5f80fd5b6105aa81610514565b81146105b4575f80fd5b50565b5f813590506105c5816105a1565b92915050565b5f602082840312156105e0576105df61059d565b5b5f6105ed848285016105b7565b91505092915050565b5f61060082610545565b9050919050565b610610816105f6565b82525050565b5f6020820190506106295f830184610607565b92915050565b7f4e487b71000000000000000000000000000000000000000000000000000000005f52601260045260245ffd5b5f61066682610514565b915061067183610514565b9250826106815761068061062f565b5b828206905092915050565b7f4e487b71000000000000000000000000000000000000000000000000000000005f52603260045260245ffd5b7f4e487b71000000000000000000000000000000000000000000000000000000005f52601160045260245ffd5b5f6106f082610514565b91506106fb83610514565b925082820261070981610514565b915082820484148315176107205761071f6106b9565b5b5092915050565b5f61073182610514565b915061073c83610514565b92508261074c5761074b61062f565b5b828204905092915050565b7f4e487b71000000000000000000000000000000000000000000000000000000005f52604160045260245ffd5b5f819050919050565b61079e61079982610514565b610784565b82525050565b5f6107af828661078d565b6020820191506107bf828561078d565b6020820191506107cf828461078d565b60208201915081905094935050505056fea26469706673582212203829dea15b9aaf5e11e6324e2835ad607fe3a5b433dda25117f18f685e6cef1164736f6c634300081a0033",
					"opcodes": "PUSH1 0x80 PUSH1 0x40 MSTORE CALLVALUE DUP1 ISZERO PUSH1 0xE JUMPI PUSH0 DUP1 REVERT JUMPDEST POP CALLER PUSH1 0x1 PUSH0 PUSH2 0x100 EXP DUP2 SLOAD DUP2 PUSH20 0xFFFFFFFFFFFFFFFFFFFFFFFFFFFFFFFFFFFFFFFF MUL NOT AND SWAP1 DUP4 PUSH20 0xFFFFFFFFFFFFFFFFFFFFFFFFFFFFFFFFFFFFFFFF AND MUL OR SWAP1 SSTORE POP PUSH2 0x816 DUP1 PUSH2 0x5C PUSH0 CODECOPY PUSH0 RETURN INVALID PUSH1 0x80 PUSH1 0x40 MSTORE PUSH1 0x4 CALLDATASIZE LT PUSH2 0x42 JUMPI PUSH0 CALLDATALOAD PUSH1 0xE0 SHR DUP1 PUSH4 0x12065FE0 EQ PUSH2 0xBE JUMPI DUP1 PUSH4 0x481C6A75 EQ PUSH2 0xE8 JUMPI DUP1 PUSH4 0x5D495AEA EQ PUSH2 0x112 JUMPI DUP1 PUSH4 0xF71D96CB EQ PUSH2 0x128 JUMPI PUSH2 0xBA JUMP JUMPDEST CALLDATASIZE PUSH2 0xBA JUMPI PUSH8 0x16345785D8A0000 CALLVALUE EQ PUSH2 0x5A JUMPI PUSH0 DUP1 REVERT JUMPDEST PUSH0 CALLER SWAP1 DUP1 PUSH1 0x1 DUP2 SLOAD ADD DUP1 DUP3 SSTORE DUP1 SWAP2 POP POP PUSH1 0x1 SWAP1 SUB SWAP1 PUSH0 MSTORE PUSH1 0x20 PUSH0 KECCAK256 ADD PUSH0 SWAP1 SWAP2 SWAP1 SWAP2 SWAP1 SWAP2 PUSH2 0x100 EXP DUP2 SLOAD DUP2 PUSH20 0xFFFFFFFFFFFFFFFFFFFFFFFFFFFFFFFFFFFFFFFF MUL NOT AND SWAP1 DUP4 PUSH20 0xFFFFFFFFFFFFFFFFFFFFFFFFFFFFFFFFFFFFFFFF AND MUL OR SWAP1 SSTORE STOP JUMPDEST PUSH0 DUP1 REVERT JUMPDEST CALLVALUE DUP1 ISZERO PUSH2 0xC9 JUMPI PUSH0 DUP1 REVERT JUMPDEST POP PUSH2 0xD2 PUSH2 0x164 JUMP JUMPDEST PUSH1 0x40 MLOAD PUSH2 0xDF SWAP2 SWAP1 PUSH2 0x52C JUMP JUMPDEST PUSH1 0x40 MLOAD DUP1 SWAP2 SUB SWAP1 RETURN JUMPDEST CALLVALUE DUP1 ISZERO PUSH2 0xF3 JUMPI PUSH0 DUP1 REVERT JUMPDEST POP PUSH2 0xFC PUSH2 0x1C3 JUMP JUMPDEST PUSH1 0x40 MLOAD PUSH2 0x109 SWAP2 SWAP1 PUSH2 0x584 JUMP JUMPDEST PUSH1 0x40 MLOAD DUP1 SWAP2 SUB SWAP1 RETURN JUMPDEST CALLVALUE DUP1 ISZERO PUSH2 0x11D JUMPI PUSH0 DUP1 REVERT JUMPDEST POP PUSH2 0x126 PUSH2 0x1E8 JUMP JUMPDEST STOP JUMPDEST CALLVALUE DUP1 ISZERO PUSH2 0x133 JUMPI PUSH0 DUP1 REVERT JUMPDEST POP PUSH2 0x14E PUSH1 0x4 DUP1 CALLDATASIZE SUB DUP2 ADD SWAP1 PUSH2 0x149 SWAP2 SWAP1 PUSH2 0x5CB JUMP JUMPDEST PUSH2 0x401 JUMP JUMPDEST PUSH1 0x40 MLOAD PUSH2 0x15B SWAP2 SWAP1 PUSH2 0x616 JUMP JUMPDEST PUSH1 0x40 MLOAD DUP1 SWAP2 SUB SWAP1 RETURN JUMPDEST PUSH0 PUSH1 0x1 PUSH0 SWAP1 SLOAD SWAP1 PUSH2 0x100 EXP SWAP1 DIV PUSH20 0xFFFFFFFFFFFFFFFFFFFFFFFFFFFFFFFFFFFFFFFF AND PUSH20 0xFFFFFFFFFFFFFFFFFFFFFFFFFFFFFFFFFFFFFFFF AND CALLER PUSH20 0xFFFFFFFFFFFFFFFFFFFFFFFFFFFFFFFFFFFFFFFF AND EQ PUSH2 0x1BD JUMPI PUSH0 DUP1 REVERT JUMPDEST SELFBALANCE SWAP1 POP SWAP1 JUMP JUMPDEST PUSH1 0x1 PUSH0 SWAP1 SLOAD SWAP1 PUSH2 0x100 EXP SWAP1 DIV PUSH20 0xFFFFFFFFFFFFFFFFFFFFFFFFFFFFFFFFFFFFFFFF AND DUP2 JUMP JUMPDEST PUSH1 0x1 PUSH0 SWAP1 SLOAD SWAP1 PUSH2 0x100 EXP SWAP1 DIV PUSH20 0xFFFFFFFFFFFFFFFFFFFFFFFFFFFFFFFFFFFFFFFF AND PUSH20 0xFFFFFFFFFFFFFFFFFFFFFFFFFFFFFFFFFFFFFFFF AND CALLER PUSH20 0xFFFFFFFFFFFFFFFFFFFFFFFFFFFFFFFFFFFFFFFF AND EQ PUSH2 0x240 JUMPI PUSH0 DUP1 REVERT JUMPDEST PUSH1 0x3 PUSH0 DUP1 SLOAD SWAP1 POP LT ISZERO PUSH2 0x251 JUMPI PUSH0 DUP1 REVERT JUMPDEST PUSH0 PUSH2 0x25A PUSH2 0x43B JUMP JUMPDEST SWAP1 POP PUSH0 DUP1 PUSH0 DUP1 SLOAD SWAP1 POP DUP4 PUSH2 0x26E SWAP2 SWAP1 PUSH2 0x65C JUMP JUMPDEST SWAP1 POP PUSH0 DUP2 DUP2 SLOAD DUP2 LT PUSH2 0x283 JUMPI PUSH2 0x282 PUSH2 0x68C JUMP JUMPDEST JUMPDEST SWAP1 PUSH0 MSTORE PUSH1 0x20 PUSH0 KECCAK256 ADD PUSH0 SWAP1 SLOAD SWAP1 PUSH2 0x100 EXP SWAP1 DIV PUSH20 0xFFFFFFFFFFFFFFFFFFFFFFFFFFFFFFFFFFFFFFFF AND SWAP2 POP PUSH0 PUSH1 0x64 PUSH1 0xA PUSH2 0x2BA PUSH2 0x164 JUMP JUMPDEST PUSH2 0x2C4 SWAP2 SWAP1 PUSH2 0x6E6 JUMP JUMPDEST PUSH2 0x2CE SWAP2 SWAP1 PUSH2 0x727 JUMP JUMPDEST SWAP1 POP PUSH0 PUSH1 0x64 PUSH1 0x5A PUSH2 0x2DD PUSH2 0x164 JUMP JUMPDEST PUSH2 0x2E7 SWAP2 SWAP1 PUSH2 0x6E6 JUMP JUMPDEST PUSH2 0x2F1 SWAP2 SWAP1 PUSH2 0x727 JUMP JUMPDEST SWAP1 POP DUP4 PUSH20 0xFFFFFFFFFFFFFFFFFFFFFFFFFFFFFFFFFFFFFFFF AND PUSH2 0x8FC DUP3 SWAP1 DUP2 ISZERO MUL SWAP1 PUSH1 0x40 MLOAD PUSH0 PUSH1 0x40 MLOAD DUP1 DUP4 SUB DUP2 DUP6 DUP9 DUP9 CALL SWAP4 POP POP POP POP ISZERO DUP1 ISZERO PUSH2 0x336 JUMPI RETURNDATASIZE PUSH0 DUP1 RETURNDATACOPY RETURNDATASIZE PUSH0 REVERT JUMPDEST POP PUSH1 0x1 PUSH0 SWAP1 SLOAD SWAP1 PUSH2 0x100 EXP SWAP1 DIV PUSH20 0xFFFFFFFFFFFFFFFFFFFFFFFFFFFFFFFFFFFFFFFF AND PUSH20 0xFFFFFFFFFFFFFFFFFFFFFFFFFFFFFFFFFFFFFFFF AND PUSH2 0x8FC DUP4 SWAP1 DUP2 ISZERO MUL SWAP1 PUSH1 0x40 MLOAD PUSH0 PUSH1 0x40 MLOAD DUP1 DUP4 SUB DUP2 DUP6 DUP9 DUP9 CALL SWAP4 POP POP POP POP ISZERO DUP1 ISZERO PUSH2 0x39B JUMPI RETURNDATASIZE PUSH0 DUP1 RETURNDATACOPY RETURNDATASIZE PUSH0 REVERT JUMPDEST POP PUSH0 PUSH8 0xFFFFFFFFFFFFFFFF DUP2 GT ISZERO PUSH2 0x3B6 JUMPI PUSH2 0x3B5 PUSH2 0x757 JUMP JUMPDEST JUMPDEST PUSH1 0x40 MLOAD SWAP1 DUP1 DUP3 MSTORE DUP1 PUSH1 0x20 MUL PUSH1 0x20 ADD DUP3 ADD PUSH1 0x40 MSTORE DUP1 ISZERO PUSH2 0x3E4 JUMPI DUP2 PUSH1 0x20 ADD PUSH1 0x20 DUP3 MUL DUP1 CALLDATASIZE DUP4 CALLDATACOPY DUP1 DUP3 ADD SWAP2 POP POP SWAP1 POP JUMPDEST POP PUSH0 SWAP1 DUP1 MLOAD SWAP1 PUSH1 0x20 ADD SWAP1 PUSH2 0x3F9 SWAP3 SWAP2 SWAP1 PUSH2 0x472 JUMP JUMPDEST POP POP POP POP POP POP JUMP JUMPDEST PUSH0 DUP2 DUP2 SLOAD DUP2 LT PUSH2 0x40F JUMPI PUSH0 DUP1 REVERT JUMPDEST SWAP1 PUSH0 MSTORE PUSH1 0x20 PUSH0 KECCAK256 ADD PUSH0 SWAP2 POP SLOAD SWAP1 PUSH2 0x100 EXP SWAP1 DIV PUSH20 0xFFFFFFFFFFFFFFFFFFFFFFFFFFFFFFFFFFFFFFFF AND DUP2 JUMP JUMPDEST PUSH0 PREVRANDAO TIMESTAMP PUSH0 DUP1 SLOAD SWAP1 POP PUSH1 0x40 MLOAD PUSH1 0x20 ADD PUSH2 0x455 SWAP4 SWAP3 SWAP2 SWAP1 PUSH2 0x7A4 JUMP JUMPDEST PUSH1 0x40 MLOAD PUSH1 0x20 DUP2 DUP4 SUB SUB DUP2 MSTORE SWAP1 PUSH1 0x40 MSTORE DUP1 MLOAD SWAP1 PUSH1 0x20 ADD KECCAK256 PUSH0 SHR SWAP1 POP SWAP1 JUMP JUMPDEST DUP3 DUP1 SLOAD DUP3 DUP3 SSTORE SWAP1 PUSH0 MSTORE PUSH1 0x20 PUSH0 KECCAK256 SWAP1 DUP2 ADD SWAP3 DUP3 ISZERO PUSH2 0x4E8 JUMPI SWAP2 PUSH1 0x20 MUL DUP3 ADD JUMPDEST DUP3 DUP2 GT ISZERO PUSH2 0x4E7 JUMPI DUP3 MLOAD DUP3 PUSH0 PUSH2 0x100 EXP DUP2 SLOAD DUP2 PUSH20 0xFFFFFFFFFFFFFFFFFFFFFFFFFFFFFFFFFFFFFFFF MUL NOT AND SWAP1 DUP4 PUSH20 0xFFFFFFFFFFFFFFFFFFFFFFFFFFFFFFFFFFFFFFFF AND MUL OR SWAP1 SSTORE POP SWAP2 PUSH1 0x20 ADD SWAP2 SWAP1 PUSH1 0x1 ADD SWAP1 PUSH2 0x490 JUMP JUMPDEST JUMPDEST POP SWAP1 POP PUSH2 0x4F5 SWAP2 SWAP1 PUSH2 0x4F9 JUMP JUMPDEST POP SWAP1 JUMP JUMPDEST JUMPDEST DUP1 DUP3 GT ISZERO PUSH2 0x510 JUMPI PUSH0 DUP2 PUSH0 SWAP1 SSTORE POP PUSH1 0x1 ADD PUSH2 0x4FA JUMP JUMPDEST POP SWAP1 JUMP JUMPDEST PUSH0 DUP2 SWAP1 POP SWAP2 SWAP1 POP JUMP JUMPDEST PUSH2 0x526 DUP2 PUSH2 0x514 JUMP JUMPDEST DUP3 MSTORE POP POP JUMP JUMPDEST PUSH0 PUSH1 0x20 DUP3 ADD SWAP1 POP PUSH2 0x53F PUSH0 DUP4 ADD DUP5 PUSH2 0x51D JUMP JUMPDEST SWAP3 SWAP2 POP POP JUMP JUMPDEST PUSH0 PUSH20 0xFFFFFFFFFFFFFFFFFFFFFFFFFFFFFFFFFFFFFFFF DUP3 AND SWAP1 POP SWAP2 SWAP1 POP JUMP JUMPDEST PUSH0 PUSH2 0x56E DUP3 PUSH2 0x545 JUMP JUMPDEST SWAP1 POP SWAP2 SWAP1 POP JUMP JUMPDEST PUSH2 0x57E DUP2 PUSH2 0x564 JUMP JUMPDEST DUP3 MSTORE POP POP JUMP JUMPDEST PUSH0 PUSH1 0x20 DUP3 ADD SWAP1 POP PUSH2 0x597 PUSH0 DUP4 ADD DUP5 PUSH2 0x575 JUMP JUMPDEST SWAP3 SWAP2 POP POP JUMP JUMPDEST PUSH0 DUP1 REVERT JUMPDEST PUSH2 0x5AA DUP2 PUSH2 0x514 JUMP JUMPDEST DUP2 EQ PUSH2 0x5B4 JUMPI PUSH0 DUP1 REVERT JUMPDEST POP JUMP JUMPDEST PUSH0 DUP2 CALLDATALOAD SWAP1 POP PUSH2 0x5C5 DUP2 PUSH2 0x5A1 JUMP JUMPDEST SWAP3 SWAP2 POP POP JUMP JUMPDEST PUSH0 PUSH1 0x20 DUP3 DUP5 SUB SLT ISZERO PUSH2 0x5E0 JUMPI PUSH2 0x5DF PUSH2 0x59D JUMP JUMPDEST JUMPDEST PUSH0 PUSH2 0x5ED DUP5 DUP3 DUP6 ADD PUSH2 0x5B7 JUMP JUMPDEST SWAP2 POP POP SWAP3 SWAP2 POP POP JUMP JUMPDEST PUSH0 PUSH2 0x600 DUP3 PUSH2 0x545 JUMP JUMPDEST SWAP1 POP SWAP2 SWAP1 POP JUMP JUMPDEST PUSH2 0x610 DUP2 PUSH2 0x5F6 JUMP JUMPDEST DUP3 MSTORE POP POP JUMP JUMPDEST PUSH0 PUSH1 0x20 DUP3 ADD SWAP1 POP PUSH2 0x629 PUSH0 DUP4 ADD DUP5 PUSH2 0x607 JUMP JUMPDEST SWAP3 SWAP2 POP POP JUMP JUMPDEST PUSH32 0x4E487B7100000000000000000000000000000000000000000000000000000000 PUSH0 MSTORE PUSH1 0x12 PUSH1 0x4 MSTORE PUSH1 0x24 PUSH0 REVERT JUMPDEST PUSH0 PUSH2 0x666 DUP3 PUSH2 0x514 JUMP JUMPDEST SWAP2 POP PUSH2 0x671 DUP4 PUSH2 0x514 JUMP JUMPDEST SWAP3 POP DUP3 PUSH2 0x681 JUMPI PUSH2 0x680 PUSH2 0x62F JUMP JUMPDEST JUMPDEST DUP3 DUP3 MOD SWAP1 POP SWAP3 SWAP2 POP POP JUMP JUMPDEST PUSH32 0x4E487B7100000000000000000000000000000000000000000000000000000000 PUSH0 MSTORE PUSH1 0x32 PUSH1 0x4 MSTORE PUSH1 0x24 PUSH0 REVERT JUMPDEST PUSH32 0x4E487B7100000000000000000000000000000000000000000000000000000000 PUSH0 MSTORE PUSH1 0x11 PUSH1 0x4 MSTORE PUSH1 0x24 PUSH0 REVERT JUMPDEST PUSH0 PUSH2 0x6F0 DUP3 PUSH2 0x514 JUMP JUMPDEST SWAP2 POP PUSH2 0x6FB DUP4 PUSH2 0x514 JUMP JUMPDEST SWAP3 POP DUP3 DUP3 MUL PUSH2 0x709 DUP2 PUSH2 0x514 JUMP JUMPDEST SWAP2 POP DUP3 DUP3 DIV DUP5 EQ DUP4 ISZERO OR PUSH2 0x720 JUMPI PUSH2 0x71F PUSH2 0x6B9 JUMP JUMPDEST JUMPDEST POP SWAP3 SWAP2 POP POP JUMP JUMPDEST PUSH0 PUSH2 0x731 DUP3 PUSH2 0x514 JUMP JUMPDEST SWAP2 POP PUSH2 0x73C DUP4 PUSH2 0x514 JUMP JUMPDEST SWAP3 POP DUP3 PUSH2 0x74C JUMPI PUSH2 0x74B PUSH2 0x62F JUMP JUMPDEST JUMPDEST DUP3 DUP3 DIV SWAP1 POP SWAP3 SWAP2 POP POP JUMP JUMPDEST PUSH32 0x4E487B7100000000000000000000000000000000000000000000000000000000 PUSH0 MSTORE PUSH1 0x41 PUSH1 0x4 MSTORE PUSH1 0x24 PUSH0 REVERT JUMPDEST PUSH0 DUP2 SWAP1 POP SWAP2 SWAP1 POP JUMP JUMPDEST PUSH2 0x79E PUSH2 0x799 DUP3 PUSH2 0x514 JUMP JUMPDEST PUSH2 0x784 JUMP JUMPDEST DUP3 MSTORE POP POP JUMP JUMPDEST PUSH0 PUSH2 0x7AF DUP3 DUP7 PUSH2 0x78D JUMP JUMPDEST PUSH1 0x20 DUP3 ADD SWAP2 POP PUSH2 0x7BF DUP3 DUP6 PUSH2 0x78D JUMP JUMPDEST PUSH1 0x20 DUP3 ADD SWAP2 POP PUSH2 0x7CF DUP3 DUP5 PUSH2 0x78D JUMP JUMPDEST PUSH1 0x20 DUP3 ADD SWAP2 POP DUP2 SWAP1 POP SWAP5 SWAP4 POP POP POP POP JUMP INVALID LOG2 PUSH5 0x6970667358 0x22 SLT KECCAK256 CODESIZE 0x29 0xDE LOG1 JUMPDEST SWAP11 0xAF MCOPY GT 0xE6 ORIGIN 0x4E 0x28 CALLDATALOAD 0xAD PUSH1 0x7F 0xE3 0xA5 0xB4 CALLER 0xDD LOG2 MLOAD OR CALL DUP16 PUSH9 0x5E6CEF1164736F6C63 NUMBER STOP ADDMOD BYTE STOP CALLER "
				},
				"gasEstimates": {
					"creation": {
						"codeDepositCost": "414000",
						"executionCost": "24712",
						"totalCost": "438712"
					},
					"external": {
						"getBalance()": "2481",
						"manager()": "2508",
						"pickWinner()": "infinite",
						"players(uint256)": "4987"
					},
					"internal": {
						"random()": "infinite"
					}
				},
				"methodIdentifiers": {
					"getBalance()": "12065fe0",
					"manager()": "481c6a75",
					"pickWinner()": "5d495aea",
					"players(uint256)": "f71d96cb"
				}
			},
			"storageLayout": {
				"storage": [
					{
						"astId": 4,
						"contract": "contracts/challenge/lottery_smart_contract_ch4.sol:Lottery",
						"label": "players",
						"offset": 0,
						"slot": "0",
						"type": "t_array(t_address_payable)dyn_storage"
					},
					{
						"astId": 6,
						"contract": "contracts/challenge/lottery_smart_contract_ch4.sol:Lottery",
						"label": "manager",
						"offset": 0,
						"slot": "1",
						"type": "t_address"
					}
				],
				"types": {
					"t_address": {
						"encoding": "inplace",
						"label": "address",
						"numberOfBytes": "20"
					},
					"t_address_payable": {
						"encoding": "inplace",
						"label": "address payable",
						"numberOfBytes": "20"
					},
					"t_array(t_address_payable)dyn_storage": {
						"base": "t_address_payable",
						"encoding": "dynamic_array",
						"label": "address payable[]",
						"numberOfBytes": "32"
					}
				}
			},
			"userdoc": {
				"kind": "user",
				"methods": {},
				"version": 1
			}
		}
	}
}